{
  "_format": "hh-sol-artifact-1",
  "contractName": "AuraVault",
  "sourceName": "contracts/AuraVault.sol",
  "abi": [
    {
      "inputs": [
        {
          "internalType": "address",
          "name": "_usdc",
          "type": "address"
        }
      ],
      "stateMutability": "nonpayable",
      "type": "constructor"
    },
    {
      "inputs": [],
      "name": "AlreadySettled",
      "type": "error"
    },
    {
      "inputs": [],
      "name": "Insolvent",
      "type": "error"
    },
    {
      "inputs": [],
      "name": "InsufficientBalance",
      "type": "error"
    },
    {
      "inputs": [],
      "name": "InvalidReceipt",
      "type": "error"
    },
    {
      "inputs": [],
      "name": "NoClaimableFunds",
      "type": "error"
    },
    {
      "inputs": [],
      "name": "TransferFailed",
      "type": "error"
    },
    {
      "inputs": [],
      "name": "Unauthorized",
      "type": "error"
    },
    {
      "inputs": [],
      "name": "ZeroAmount",
      "type": "error"
    },
    {
      "anonymous": false,
      "inputs": [
        {
          "indexed": true,
          "internalType": "address",
          "name": "merchant",
          "type": "address"
        },
        {
          "indexed": false,
          "internalType": "uint256",
          "name": "totalAmount",
          "type": "uint256"
        },
        {
          "indexed": false,
          "internalType": "uint256",
          "name": "count",
          "type": "uint256"
        }
      ],
      "name": "BulkClaim",
      "type": "event"
    },
    {
      "anonymous": false,
      "inputs": [
        {
          "indexed": true,
          "internalType": "bytes32",
          "name": "identityHash",
          "type": "bytes32"
        },
        {
          "indexed": false,
          "internalType": "uint256",
          "name": "limitScore",
          "type": "uint256"
        }
      ],
      "name": "CreditLimitSet",
      "type": "event"
    },
    {
      "anonymous": false,
      "inputs": [
        {
          "indexed": true,
          "internalType": "bytes32",
          "name": "receiptHash",
          "type": "bytes32"
        },
        {
          "indexed": true,
          "internalType": "address",
          "name": "merchant",
          "type": "address"
        },
        {
          "indexed": false,
          "internalType": "uint256",
          "name": "amount",
          "type": "uint256"
        }
      ],
      "name": "FundsLocked",
      "type": "event"
    },
    {
      "anonymous": false,
      "inputs": [
        {
          "indexed": true,
          "internalType": "address",
          "name": "lender",
          "type": "address"
        },
        {
          "indexed": false,
          "internalType": "uint256",
          "name": "amount",
          "type": "uint256"
        }
      ],
      "name": "LiquidityProvided",
      "type": "event"
    },
    {
      "anonymous": false,
      "inputs": [
        {
          "indexed": true,
          "internalType": "address",
          "name": "lender",
          "type": "address"
        },
        {
          "indexed": false,
          "internalType": "uint256",
          "name": "amount",
          "type": "uint256"
        }
      ],
      "name": "LiquidityWithdrawn",
      "type": "event"
    },
    {
      "anonymous": false,
      "inputs": [
        {
          "indexed": true,
          "internalType": "address",
          "name": "borrower",
          "type": "address"
        },
        {
          "indexed": false,
          "internalType": "uint256",
          "name": "amount",
          "type": "uint256"
        }
      ],
      "name": "LoanRepaid",
      "type": "event"
    },
    {
      "anonymous": false,
      "inputs": [
        {
          "indexed": true,
          "internalType": "address",
          "name": "newOracle",
          "type": "address"
        }
      ],
      "name": "OracleUpdated",
      "type": "event"
    },
    {
      "anonymous": false,
      "inputs": [
        {
          "indexed": true,
          "internalType": "bytes32",
          "name": "receiptHash",
          "type": "bytes32"
        },
        {
          "indexed": true,
          "internalType": "address",
          "name": "merchant",
          "type": "address"
        },
        {
          "indexed": false,
          "internalType": "uint256",
          "name": "amount",
          "type": "uint256"
        }
      ],
      "name": "ReceiptSettled",
      "type": "event"
    },
    {
      "inputs": [],
      "name": "claimAll",
      "outputs": [],
      "stateMutability": "nonpayable",
      "type": "function"
    },
    {
      "inputs": [
        {
          "internalType": "bytes32",
          "name": "",
          "type": "bytes32"
        }
      ],
      "name": "creditLimits",
      "outputs": [
        {
          "internalType": "uint256",
          "name": "",
          "type": "uint256"
        }
      ],
      "stateMutability": "view",
      "type": "function"
    },
    {
      "inputs": [
        {
          "internalType": "address",
          "name": "user",
          "type": "address"
        }
      ],
      "name": "getDebugInfo",
      "outputs": [
        {
          "internalType": "uint256",
          "name": "userBalance",
          "type": "uint256"
        },
        {
          "internalType": "uint256",
          "name": "vaultAllowance",
          "type": "uint256"
        },
        {
          "internalType": "address",
          "name": "vaultAddress",
          "type": "address"
        }
      ],
      "stateMutability": "view",
      "type": "function"
    },
    {
      "inputs": [
        {
          "internalType": "address",
          "name": "",
          "type": "address"
        }
      ],
      "name": "lenderBalances",
      "outputs": [
        {
          "internalType": "uint256",
          "name": "",
          "type": "uint256"
        }
      ],
      "stateMutability": "view",
      "type": "function"
    },
    {
      "inputs": [
        {
          "internalType": "address",
          "name": "merchant",
          "type": "address"
        },
        {
          "internalType": "uint256",
          "name": "amount",
          "type": "uint256"
        }
      ],
      "name": "lockFunds",
      "outputs": [
        {
          "internalType": "bytes32",
          "name": "receiptHash",
          "type": "bytes32"
        }
      ],
      "stateMutability": "nonpayable",
      "type": "function"
    },
    {
      "inputs": [],
      "name": "lockedForSettlement",
      "outputs": [
        {
          "internalType": "uint256",
          "name": "",
          "type": "uint256"
        }
      ],
      "stateMutability": "view",
      "type": "function"
    },
    {
      "inputs": [
        {
          "internalType": "address",
          "name": "",
          "type": "address"
        },
        {
          "internalType": "uint256",
          "name": "",
          "type": "uint256"
        }
      ],
      "name": "merchantReceipts",
      "outputs": [
        {
          "internalType": "bytes32",
          "name": "",
          "type": "bytes32"
        }
      ],
      "stateMutability": "view",
      "type": "function"
    },
    {
      "inputs": [],
      "name": "oracle",
      "outputs": [
        {
          "internalType": "address",
          "name": "",
          "type": "address"
        }
      ],
      "stateMutability": "view",
      "type": "function"
    },
    {
      "inputs": [
        {
          "internalType": "uint256",
          "name": "amount",
          "type": "uint256"
        }
      ],
      "name": "provideLiquidity",
      "outputs": [],
      "stateMutability": "nonpayable",
      "type": "function"
    },
    {
      "inputs": [
        {
          "internalType": "bytes32",
          "name": "",
          "type": "bytes32"
        }
      ],
      "name": "receipts",
      "outputs": [
        {
          "internalType": "address",
          "name": "merchant",
          "type": "address"
        },
        {
          "internalType": "uint256",
          "name": "amount",
          "type": "uint256"
        },
        {
          "internalType": "bool",
          "name": "settled",
          "type": "bool"
        }
      ],
      "stateMutability": "view",
      "type": "function"
    },
    {
      "inputs": [
        {
          "internalType": "uint256",
          "name": "amount",
          "type": "uint256"
        }
      ],
      "name": "repay",
      "outputs": [],
      "stateMutability": "nonpayable",
      "type": "function"
    },
    {
      "inputs": [
        {
          "internalType": "bytes32",
          "name": "identityHash",
          "type": "bytes32"
        },
        {
          "internalType": "uint256",
          "name": "limitScore",
          "type": "uint256"
        }
      ],
      "name": "setCreditLimit",
      "outputs": [],
      "stateMutability": "nonpayable",
      "type": "function"
    },
    {
      "inputs": [
        {
          "internalType": "address",
          "name": "_newOracle",
          "type": "address"
        }
      ],
      "name": "setOracle",
      "outputs": [],
      "stateMutability": "nonpayable",
      "type": "function"
    },
    {
      "inputs": [
        {
          "internalType": "bytes32",
          "name": "receiptHash",
          "type": "bytes32"
        }
      ],
      "name": "settleReceipt",
      "outputs": [],
      "stateMutability": "nonpayable",
      "type": "function"
    },
    {
      "inputs": [],
      "name": "totalLent",
      "outputs": [
        {
          "internalType": "uint256",
          "name": "",
          "type": "uint256"
        }
      ],
      "stateMutability": "view",
      "type": "function"
    },
    {
      "inputs": [],
      "name": "usdc",
      "outputs": [
        {
          "internalType": "contract IERC20",
          "name": "",
          "type": "address"
        }
      ],
      "stateMutability": "view",
      "type": "function"
    },
    {
      "inputs": [
        {
          "internalType": "bytes32",
          "name": "receiptHash",
          "type": "bytes32"
        }
      ],
      "name": "verifyReceipt",
      "outputs": [
        {
          "internalType": "address",
          "name": "merchant",
          "type": "address"
        },
        {
          "internalType": "uint256",
          "name": "amount",
          "type": "uint256"
        },
        {
          "internalType": "bool",
          "name": "claimable",
          "type": "bool"
        }
      ],
      "stateMutability": "view",
      "type": "function"
    },
    {
      "inputs": [
        {
          "internalType": "uint256",
          "name": "amount",
          "type": "uint256"
        }
      ],
      "name": "withdrawLiquidity",
      "outputs": [],
      "stateMutability": "nonpayable",
      "type": "function"
    }
  ],
  "bytecode": "0x60a060405234801561001057600080fd5b506040516114aa3803806114aa83398101604081905261002f91610052565b600080546001600160a01b031916331790556001600160a01b0316608052610082565b60006020828403121561006457600080fd5b81516001600160a01b038116811461007b57600080fd5b9392505050565b6080516113c06100ea600039600081816101c10152818161038a0152818161049d015281816105a9015281816107cf015281816108610152818161091f01528181610bad01528181610eee01528181610ff401528181611097015261113c01526113c06000f3fe608060405234801561001057600080fd5b50600436106101165760003560e01c80637dc0d1d0116100a2578063bb7b02fe11610071578063bb7b02fe14610297578063d1058e59146102aa578063eb521a4c146102b2578063ef6cf04d146102c5578063f1941ce91461030157600080fd5b80637dc0d1d0146102175780637e1e2b7a1461022a5780638174794e1461023d578063a27a944d1461027757600080fd5b8063371fd8e6116100e9578063371fd8e6146101965780633c1166f3146101a95780633e413bee146101bc5780636d7c218b146101fb5780637adbf9731461020457600080fd5b80630a861f2a1461011b5780630d9d93d91461013057806312e382b41461014c5780631f668cdb1461015f575b600080fd5b61012e61012936600461123b565b610321565b005b61013960025481565b6040519081526020015b60405180910390f35b61013961015a366004611270565b61056e565b61017261016d36600461129a565b6107a9565b6040805193845260208401929092526001600160a01b031690820152606001610143565b61012e6101a436600461123b565b6108d9565b61012e6101b73660046112bc565b6109ee565b6101e37f000000000000000000000000000000000000000000000000000000000000000081565b6040516001600160a01b039091168152602001610143565b61013960015481565b61012e61021236600461129a565b610a5d565b6000546101e3906001600160a01b031681565b61012e61023836600461123b565b610acf565b61025061024b36600461123b565b610c87565b604080516001600160a01b0390941684526020840192909252151590820152606001610143565b61013961028536600461129a565b60036020526000908152604090205481565b6101396102a5366004611270565b610d08565b61012e610d39565b61012e6102c036600461123b565b610fbb565b6102506102d336600461123b565b6005602052600090815260409020805460018201546002909201546001600160a01b03909116919060ff1683565b61013961030f36600461123b565b60046020526000908152604090205481565b8060000361034257604051631f2a200560e01b815260040160405180910390fd5b3360009081526003602052604090205481111561037257604051631e9acf1760e31b815260040160405180910390fd5b6040516370a0823160e01b81523060048201526000907f00000000000000000000000000000000000000000000000000000000000000006001600160a01b0316906370a0823190602401602060405180830381865afa1580156103d9573d6000803e3d6000fd5b505050506040513d601f19601f820116820180604052508101906103fd91906112de565b90506000600254821161041157600061041e565b60025461041e908361130d565b90508281101561044157604051631f84400760e31b815260040160405180910390fd5b336000908152600360205260408120805485929061046090849061130d565b925050819055508260016000828254610479919061130d565b909155505060405163a9059cbb60e01b8152336004820152602481018490526000907f00000000000000000000000000000000000000000000000000000000000000006001600160a01b03169063a9059cbb906044016020604051808303816000875af11580156104ee573d6000803e3d6000fd5b505050506040513d601f19601f820116820180604052508101906105129190611326565b905080610532576040516312171d8360e31b815260040160405180910390fd5b60405184815233907fb1cce8684b4ffa8667b4577654e61ee3480d661ee9c27522ac80e211f6bd4d25906020015b60405180910390a250505050565b60008160000361059157604051631f2a200560e01b815260040160405180910390fd5b6040516370a0823160e01b81523060048201526000907f00000000000000000000000000000000000000000000000000000000000000006001600160a01b0316906370a0823190602401602060405180830381865afa1580156105f8573d6000803e3d6000fd5b505050506040513d601f19601f8201168201806040525081019061061c91906112de565b90508260025461062c9190611348565b81101561064c57604051631f84400760e31b815260040160405180910390fd5b6002546040516bffffffffffffffffffffffff19606087901b16602082015260348101859052426054820152436074820152609481019190915260b40160408051601f19818403018152918152815160209283012060008181526005909352912060010154909250156106d25760405163300262ab60e21b815260040160405180910390fd5b82600260008282546106e49190611348565b9091555050604080516060810182526001600160a01b038681168083526020808401888152600085870181815289825260058452878220965187546001600160a01b0319169616959095178655905160018087019190915593516002909501805460ff1916951515959095179094558184526006815284842080549384018155845292839020909101859055915185815284917f15144217405064631de951752111334f6d9db4be6cfff45346f7068ea857fcad910160405180910390a35092915050565b6040516370a0823160e01b81526001600160a01b038281166004830152600091829182917f0000000000000000000000000000000000000000000000000000000000000000909116906370a0823190602401602060405180830381865afa158015610818573d6000803e3d6000fd5b505050506040513d601f19601f8201168201806040525081019061083c91906112de565b604051636eb1769f60e11b81526001600160a01b0386811660048301523060248301527f0000000000000000000000000000000000000000000000000000000000000000169063dd62ed3e90604401602060405180830381865afa1580156108a8573d6000803e3d6000fd5b505050506040513d601f19601f820116820180604052508101906108cc91906112de565b9095909450309350915050565b806000036108fa57604051631f2a200560e01b815260040160405180910390fd5b6040516323b872dd60e01b8152336004820152306024820152604481018290526000907f00000000000000000000000000000000000000000000000000000000000000006001600160a01b0316906323b872dd906064016020604051808303816000875af1158015610970573d6000803e3d6000fd5b505050506040513d601f19601f820116820180604052508101906109949190611326565b9050806109b4576040516312171d8360e31b815260040160405180910390fd5b60405182815233907fc200a1f31dd659e356e0f112c82558e25f49f7b0f84438691cd96f5cb3558823906020015b60405180910390a25050565b6000546001600160a01b03163314610a18576040516282b42960e81b815260040160405180910390fd5b600082815260046020526040908190208290555182907fc3f17324b83b26d327f1cfbd9ca233d915225309762161729642a4a04c963a4a906109e29084815260200190565b6000546001600160a01b03163314610a87576040516282b42960e81b815260040160405180910390fd5b600080546001600160a01b0319166001600160a01b038316908117825560405190917f3df77beb5db05fcdd70a30fc8adf3f83f9501b68579455adbd100b818094039491a250565b60008181526005602052604081206001810154909103610b025760405163300262ab60e21b815260040160405180910390fd5b600281015460ff1615610b275760405162560ff960e81b815260040160405180910390fd5b80546001600160a01b03163314610b50576040516282b42960e81b815260040160405180910390fd5b806001015460026000828254610b66919061130d565b909155505060028101805460ff1916600190811790915581549082015460405163a9059cbb60e01b81526001600160a01b03928316600482015260248101919091526000917f0000000000000000000000000000000000000000000000000000000000000000169063a9059cbb906044016020604051808303816000875af1158015610bf6573d6000803e3d6000fd5b505050506040513d601f19601f82011682018060405250810190610c1a9190611326565b905080610c3a576040516312171d8360e31b815260040160405180910390fd5b815460018301546040519081526001600160a01b039091169084907fb47d398c825a0f71f49c4fded299540689e40b98b4095dc747dee95312bf642d9060200160405180910390a3505050565b6000818152600560209081526040808320815160608101835281546001600160a01b03168152600182015493810184905260029091015460ff1615159181019190915282918291908203610cee5760405163300262ab60e21b815260040160405180910390fd5b805160208201516040909201519096919550159350915050565b60066020528160005260406000208181548110610d2457600080fd5b90600052602060002001600091509150505481565b33600090815260066020908152604080832080548251818502810185019093528083529192909190830182828015610d9057602002820191906000526020600020905b815481526020019060010190808311610d7c575b5050505050905060008060005b8351811015610ead576000848281518110610dba57610dba61135b565b60200260200101519050600060056000838152602001908152602001600020905060008160010154118015610df8575080546001600160a01b031633145b8015610e095750600281015460ff16155b15610ea3576002808201805460ff191660019081179091558201548154909190600090610e3790849061130d565b90915550506001810154610e4b9086611348565b945083610e5781611371565b945050336001600160a01b0316827fb47d398c825a0f71f49c4fded299540689e40b98b4095dc747dee95312bf642d8360010154604051610e9a91815260200190565b60405180910390a35b5050600101610d9d565b5081600003610ecf576040516327e260b560e11b815260040160405180910390fd5b60405163a9059cbb60e01b8152336004820152602481018390526000907f00000000000000000000000000000000000000000000000000000000000000006001600160a01b03169063a9059cbb906044016020604051808303816000875af1158015610f3f573d6000803e3d6000fd5b505050506040513d601f19601f82011682018060405250810190610f639190611326565b905080610f83576040516312171d8360e31b815260040160405180910390fd5b604080518481526020810184905233917f04e42401f3579707778c2bff1b65c8ae5a8594758afc05fec76541afcd4c3a3b9101610560565b80600003610fdc57604051631f2a200560e01b815260040160405180910390fd5b6040516370a0823160e01b81523060048201526000907f00000000000000000000000000000000000000000000000000000000000000006001600160a01b0316906370a0823190602401602060405180830381865afa158015611043573d6000803e3d6000fd5b505050506040513d601f19601f8201168201806040525081019061106791906112de565b6040516323b872dd60e01b8152336004820152306024820152604481018490529091506000906001600160a01b037f000000000000000000000000000000000000000000000000000000000000000016906323b872dd906064016020604051808303816000875af11580156110e0573d6000803e3d6000fd5b505050506040513d601f19601f820116820180604052508101906111049190611326565b905080611124576040516312171d8360e31b815260040160405180910390fd5b6040516370a0823160e01b81523060048201526000907f00000000000000000000000000000000000000000000000000000000000000006001600160a01b0316906370a0823190602401602060405180830381865afa15801561118b573d6000803e3d6000fd5b505050506040513d601f19601f820116820180604052508101906111af91906112de565b905060006111bd848361130d565b336000908152600360205260408120805492935083929091906111e1908490611348565b9250508190555080600160008282546111fa9190611348565b909155505060405181815233907fccb2ae3a2936bf4c94fa4e12cdf0cdad6ed0e4888a044cef89afa60f2e4b92d39060200160405180910390a25050505050565b60006020828403121561124d57600080fd5b5035919050565b80356001600160a01b038116811461126b57600080fd5b919050565b6000806040838503121561128357600080fd5b61128c83611254565b946020939093013593505050565b6000602082840312156112ac57600080fd5b6112b582611254565b9392505050565b600080604083850312156112cf57600080fd5b50508035926020909101359150565b6000602082840312156112f057600080fd5b5051919050565b634e487b7160e01b600052601160045260246000fd5b81810381811115611320576113206112f7565b92915050565b60006020828403121561133857600080fd5b815180151581146112b557600080fd5b80820180821115611320576113206112f7565b634e487b7160e01b600052603260045260246000fd5b600060018201611383576113836112f7565b506001019056fea2646970667358221220e75a37ba9f6302ffbecf19d6a988f82f2ee78ff01685de1b2084a0bbedadb9d664736f6c63430008170033",
  "linkReferences": {},
  "deployedLinkReferences": {}
}