{
  "_format": "hh-sol-artifact-1",
  "contractName": "MockUSDC",
  "sourceName": "contracts/MockUSDC.sol",
  "abi": [
    {
      "inputs": [
        {
          "internalType": "uint256",
          "name": "initialSupply",
          "type": "uint256"
        }
      ],
      "stateMutability": "nonpayable",
      "type": "constructor"
    },
    {
      "anonymous": false,
      "inputs": [
        {
          "indexed": true,
          "internalType": "address",
          "name": "owner",
          "type": "address"
        },
        {
          "indexed": true,
          "internalType": "address",
          "name": "spender",
          "type": "address"
        },
        {
          "indexed": false,
          "internalType": "uint256",
          "name": "amount",
          "type": "uint256"
        }
      ],
      "name": "Approval",
      "type": "event"
    },
    {
      "anonymous": false,
      "inputs": [
        {
          "indexed": true,
          "internalType": "address",
          "name": "from",
          "type": "address"
        },
        {
          "indexed": true,
          "internalType": "address",
          "name": "to",
          "type": "address"
        },
        {
          "indexed": false,
          "internalType": "uint256",
          "name": "amount",
          "type": "uint256"
        }
      ],
      "name": "Transfer",
      "type": "event"
    },
    {
      "inputs": [
        {
          "internalType": "address",
          "name": "",
          "type": "address"
        },
        {
          "internalType": "address",
          "name": "",
          "type": "address"
        }
      ],
      "name": "allowance",
      "outputs": [
        {
          "internalType": "uint256",
          "name": "",
          "type": "uint256"
        }
      ],
      "stateMutability": "view",
      "type": "function"
    },
    {
      "inputs": [
        {
          "internalType": "address",
          "name": "spender",
          "type": "address"
        },
        {
          "internalType": "uint256",
          "name": "amount",
          "type": "uint256"
        }
      ],
      "name": "approve",
      "outputs": [
        {
          "internalType": "bool",
          "name": "",
          "type": "bool"
        }
      ],
      "stateMutability": "nonpayable",
      "type": "function"
    },
    {
      "inputs": [
        {
          "internalType": "address",
          "name": "",
          "type": "address"
        }
      ],
      "name": "balanceOf",
      "outputs": [
        {
          "internalType": "uint256",
          "name": "",
          "type": "uint256"
        }
      ],
      "stateMutability": "view",
      "type": "function"
    },
    {
      "inputs": [],
      "name": "decimals",
      "outputs": [
        {
          "internalType": "uint8",
          "name": "",
          "type": "uint8"
        }
      ],
      "stateMutability": "view",
      "type": "function"
    },
    {
      "inputs": [
        {
          "internalType": "address",
          "name": "to",
          "type": "address"
        },
        {
          "internalType": "uint256",
          "name": "amount",
          "type": "uint256"
        }
      ],
      "name": "mint",
      "outputs": [],
      "stateMutability": "nonpayable",
      "type": "function"
    },
    {
      "inputs": [],
      "name": "name",
      "outputs": [
        {
          "internalType": "string",
          "name": "",
          "type": "string"
        }
      ],
      "stateMutability": "view",
      "type": "function"
    },
    {
      "inputs": [],
      "name": "symbol",
      "outputs": [
        {
          "internalType": "string",
          "name": "",
          "type": "string"
        }
      ],
      "stateMutability": "view",
      "type": "function"
    },
    {
      "inputs": [
        {
          "internalType": "address",
          "name": "to",
          "type": "address"
        },
        {
          "internalType": "uint256",
          "name": "amount",
          "type": "uint256"
        }
      ],
      "name": "transfer",
      "outputs": [
        {
          "internalType": "bool",
          "name": "",
          "type": "bool"
        }
      ],
      "stateMutability": "nonpayable",
      "type": "function"
    },
    {
      "inputs": [
        {
          "internalType": "address",
          "name": "from",
          "type": "address"
        },
        {
          "internalType": "address",
          "name": "to",
          "type": "address"
        },
        {
          "internalType": "uint256",
          "name": "amount",
          "type": "uint256"
        }
      ],
      "name": "transferFrom",
      "outputs": [
        {
          "internalType": "bool",
          "name": "",
          "type": "bool"
        }
      ],
      "stateMutability": "nonpayable",
      "type": "function"
    }
  ],
  "bytecode": "0x60c060405260096080908152684d6f636b205553444360b81b60a05260009061002890826101ad565b506040805180820190915260048152635553444360e01b602082015260019061005190826101ad565b506002805460ff1916600617905534801561006b57600080fd5b5060405161099938038061099983398101604081905261008a9161026c565b610094338261009a565b506102ac565b6001600160a01b038216600090815260036020526040812080548392906100c2908490610285565b90915550506040518181526001600160a01b038316906000907fddf252ad1be2c89b69c2b068fc378daa952ba7f163c4a11628f55a4df523b3ef9060200160405180910390a35050565b634e487b7160e01b600052604160045260246000fd5b600181811c9082168061013657607f821691505b60208210810361015657634e487b7160e01b600052602260045260246000fd5b50919050565b601f8211156101a8576000816000526020600020601f850160051c810160208610156101855750805b601f850160051c820191505b818110156101a457828155600101610191565b5050505b505050565b81516001600160401b038111156101c6576101c661010c565b6101da816101d48454610122565b8461015c565b602080601f83116001811461020f57600084156101f75750858301515b600019600386901b1c1916600185901b1785556101a4565b600085815260208120601f198616915b8281101561023e5788860151825594840194600190910190840161021f565b508582101561025c5787850151600019600388901b60f8161c191681555b5050505050600190811b01905550565b60006020828403121561027e57600080fd5b5051919050565b808201808211156102a657634e487b7160e01b600052601160045260246000fd5b92915050565b6106de806102bb6000396000f3fe608060405234801561001057600080fd5b50600436106100935760003560e01c806340c10f191161006657806340c10f191461010b57806370a082311461012057806395d89b411461014e578063a9059cbb14610156578063dd62ed3e1461016957600080fd5b806306fdde0314610098578063095ea7b3146100b657806323b872dd146100d9578063313ce567146100ec575b600080fd5b6100a0610194565b6040516100ad9190610513565b60405180910390f35b6100c96100c436600461057e565b610222565b60405190151581526020016100ad565b6100c96100e73660046105a8565b61028f565b6002546100f99060ff1681565b60405160ff90911681526020016100ad565b61011e61011936600461057e565b61035b565b005b61014061012e3660046105e4565b60036020526000908152604090205481565b6040519081526020016100ad565b6100a0610369565b6100c961016436600461057e565b610376565b6101406101773660046105ff565b600460209081526000928352604080842090915290825290205481565b600080546101a190610632565b80601f01602080910402602001604051908101604052809291908181526020018280546101cd90610632565b801561021a5780601f106101ef5761010080835404028352916020019161021a565b820191906000526020600020905b8154815290600101906020018083116101fd57829003601f168201915b505050505081565b3360008181526004602090815260408083206001600160a01b038716808552925280832085905551919290917f8c5be1e5ebec7d5bd14f71427d1e84f3dd0314c0f7b2291e5b200ac8c7c3b9259061027d9086815260200190565b60405180910390a35060015b92915050565b6001600160a01b0383166000908152600460209081526040808320338452909152812054828110156103195760405162461bcd60e51b815260206004820152602860248201527f45524332303a207472616e7366657220616d6f756e74206578636565647320616044820152676c6c6f77616e636560c01b60648201526084015b60405180910390fd5b6103238382610682565b6001600160a01b038616600090815260046020908152604080832033845290915290205561035285858561038a565b95945050505050565b61036582826104a1565b5050565b600180546101a190610632565b600061038333848461038a565b9392505050565b6001600160a01b038316600090815260036020526040812054828110156104025760405162461bcd60e51b815260206004820152602660248201527f45524332303a207472616e7366657220616d6f756e7420657863656564732062604482015265616c616e636560d01b6064820152608401610310565b61040c8382610682565b6001600160a01b038087166000908152600360205260408082209390935590861681529081208054859290610442908490610695565b92505081905550836001600160a01b0316856001600160a01b03167fddf252ad1be2c89b69c2b068fc378daa952ba7f163c4a11628f55a4df523b3ef8560405161048e91815260200190565b60405180910390a3506001949350505050565b6001600160a01b038216600090815260036020526040812080548392906104c9908490610695565b90915550506040518181526001600160a01b038316906000907fddf252ad1be2c89b69c2b068fc378daa952ba7f163c4a11628f55a4df523b3ef9060200160405180910390a35050565b60006020808352835180602085015260005b8181101561054157858101830151858201604001528201610525565b506000604082860101526040601f19601f8301168501019250505092915050565b80356001600160a01b038116811461057957600080fd5b919050565b6000806040838503121561059157600080fd5b61059a83610562565b946020939093013593505050565b6000806000606084860312156105bd57600080fd5b6105c684610562565b92506105d460208501610562565b9150604084013590509250925092565b6000602082840312156105f657600080fd5b61038382610562565b6000806040838503121561061257600080fd5b61061b83610562565b915061062960208401610562565b90509250929050565b600181811c9082168061064657607f821691505b60208210810361066657634e487b7160e01b600052602260045260246000fd5b50919050565b634e487b7160e01b600052601160045260246000fd5b818103818111156102895761028961066c565b808201808211156102895761028961066c56fea2646970667358221220eba4d0b31fb3ba83555e3a8b14931e4321dab459d1e0b764d81ff925c16279d364736f6c63430008170033",
  "linkReferences": {},
  "deployedLinkReferences": {}
}