{
	"contracts/AuraVault.sol": {
		"AuraVault": {
			"abi": [
				{
					"inputs": [
						{
							"internalType": "address",
							"name": "_usdc",
							"type": "address"
						}
					],
					"stateMutability": "nonpayable",
					"type": "constructor"
				},
				{
					"inputs": [],
					"name": "AlreadySettled",
					"type": "error"
				},
				{
					"inputs": [],
					"name": "Insolvent",
					"type": "error"
				},
				{
					"inputs": [],
					"name": "InsufficientBalance",
					"type": "error"
				},
				{
					"inputs": [],
					"name": "InvalidReceipt",
					"type": "error"
				},
				{
					"inputs": [],
					"name": "NoClaimableFunds",
					"type": "error"
				},
				{
					"inputs": [],
					"name": "TransferFailed",
					"type": "error"
				},
				{
					"inputs": [],
					"name": "Unauthorized",
					"type": "error"
				},
				{
					"inputs": [],
					"name": "ZeroAmount",
					"type": "error"
				},
				{
					"anonymous": false,
					"inputs": [
						{
							"indexed": true,
							"internalType": "address",
							"name": "merchant",
							"type": "address"
						},
						{
							"indexed": false,
							"internalType": "uint256",
							"name": "totalAmount",
							"type": "uint256"
						},
						{
							"indexed": false,
							"internalType": "uint256",
							"name": "count",
							"type": "uint256"
						}
					],
					"name": "BulkClaim",
					"type": "event"
				},
				{
					"anonymous": false,
					"inputs": [
						{
							"indexed": true,
							"internalType": "bytes32",
							"name": "identityHash",
							"type": "bytes32"
						},
						{
							"indexed": false,
							"internalType": "uint256",
							"name": "limitScore",
							"type": "uint256"
						}
					],
					"name": "CreditLimitSet",
					"type": "event"
				},
				{
					"anonymous": false,
					"inputs": [
						{
							"indexed": true,
							"internalType": "bytes32",
							"name": "receiptHash",
							"type": "bytes32"
						},
						{
							"indexed": true,
							"internalType": "address",
							"name": "merchant",
							"type": "address"
						},
						{
							"indexed": false,
							"internalType": "uint256",
							"name": "amount",
							"type": "uint256"
						}
					],
					"name": "FundsLocked",
					"type": "event"
				},
				{
					"anonymous": false,
					"inputs": [
						{
							"indexed": true,
							"internalType": "address",
							"name": "lender",
							"type": "address"
						},
						{
							"indexed": false,
							"internalType": "uint256",
							"name": "amount",
							"type": "uint256"
						}
					],
					"name": "LiquidityProvided",
					"type": "event"
				},
				{
					"anonymous": false,
					"inputs": [
						{
							"indexed": true,
							"internalType": "address",
							"name": "lender",
							"type": "address"
						},
						{
							"indexed": false,
							"internalType": "uint256",
							"name": "amount",
							"type": "uint256"
						}
					],
					"name": "LiquidityWithdrawn",
					"type": "event"
				},
				{
					"anonymous": false,
					"inputs": [
						{
							"indexed": true,
							"internalType": "address",
							"name": "borrower",
							"type": "address"
						},
						{
							"indexed": false,
							"internalType": "uint256",
							"name": "amount",
							"type": "uint256"
						}
					],
					"name": "LoanRepaid",
					"type": "event"
				},
				{
					"anonymous": false,
					"inputs": [
						{
							"indexed": true,
							"internalType": "address",
							"name": "newOracle",
							"type": "address"
						}
					],
					"name": "OracleUpdated",
					"type": "event"
				},
				{
					"anonymous": false,
					"inputs": [
						{
							"indexed": true,
							"internalType": "bytes32",
							"name": "receiptHash",
							"type": "bytes32"
						},
						{
							"indexed": true,
							"internalType": "address",
							"name": "merchant",
							"type": "address"
						},
						{
							"indexed": false,
							"internalType": "uint256",
							"name": "amount",
							"type": "uint256"
						}
					],
					"name": "ReceiptSettled",
					"type": "event"
				},
				{
					"inputs": [],
					"name": "claimAll",
					"outputs": [],
					"stateMutability": "nonpayable",
					"type": "function"
				},
				{
					"inputs": [
						{
							"internalType": "bytes32",
							"name": "",
							"type": "bytes32"
						}
					],
					"name": "creditLimits",
					"outputs": [
						{
							"internalType": "uint256",
							"name": "",
							"type": "uint256"
						}
					],
					"stateMutability": "view",
					"type": "function"
				},
				{
					"inputs": [
						{
							"internalType": "address",
							"name": "user",
							"type": "address"
						}
					],
					"name": "getDebugInfo",
					"outputs": [
						{
							"internalType": "uint256",
							"name": "userBalance",
							"type": "uint256"
						},
						{
							"internalType": "uint256",
							"name": "vaultAllowance",
							"type": "uint256"
						},
						{
							"internalType": "address",
							"name": "vaultAddress",
							"type": "address"
						}
					],
					"stateMutability": "view",
					"type": "function"
				},
				{
					"inputs": [
						{
							"internalType": "address",
							"name": "",
							"type": "address"
						}
					],
					"name": "lenderBalances",
					"outputs": [
						{
							"internalType": "uint256",
							"name": "",
							"type": "uint256"
						}
					],
					"stateMutability": "view",
					"type": "function"
				},
				{
					"inputs": [
						{
							"internalType": "address",
							"name": "merchant",
							"type": "address"
						},
						{
							"internalType": "uint256",
							"name": "amount",
							"type": "uint256"
						}
					],
					"name": "lockFunds",
					"outputs": [
						{
							"internalType": "bytes32",
							"name": "receiptHash",
							"type": "bytes32"
						}
					],
					"stateMutability": "nonpayable",
					"type": "function"
				},
				{
					"inputs": [],
					"name": "lockedForSettlement",
					"outputs": [
						{
							"internalType": "uint256",
							"name": "",
							"type": "uint256"
						}
					],
					"stateMutability": "view",
					"type": "function"
				},
				{
					"inputs": [
						{
							"internalType": "address",
							"name": "",
							"type": "address"
						},
						{
							"internalType": "uint256",
							"name": "",
							"type": "uint256"
						}
					],
					"name": "merchantReceipts",
					"outputs": [
						{
							"internalType": "bytes32",
							"name": "",
							"type": "bytes32"
						}
					],
					"stateMutability": "view",
					"type": "function"
				},
				{
					"inputs": [],
					"name": "oracle",
					"outputs": [
						{
							"internalType": "address",
							"name": "",
							"type": "address"
						}
					],
					"stateMutability": "view",
					"type": "function"
				},
				{
					"inputs": [
						{
							"internalType": "uint256",
							"name": "amount",
							"type": "uint256"
						}
					],
					"name": "provideLiquidity",
					"outputs": [],
					"stateMutability": "nonpayable",
					"type": "function"
				},
				{
					"inputs": [
						{
							"internalType": "bytes32",
							"name": "",
							"type": "bytes32"
						}
					],
					"name": "receipts",
					"outputs": [
						{
							"internalType": "address",
							"name": "merchant",
							"type": "address"
						},
						{
							"internalType": "uint256",
							"name": "amount",
							"type": "uint256"
						},
						{
							"internalType": "bool",
							"name": "settled",
							"type": "bool"
						}
					],
					"stateMutability": "view",
					"type": "function"
				},
				{
					"inputs": [
						{
							"internalType": "uint256",
							"name": "amount",
							"type": "uint256"
						}
					],
					"name": "repay",
					"outputs": [],
					"stateMutability": "nonpayable",
					"type": "function"
				},
				{
					"inputs": [
						{
							"internalType": "bytes32",
							"name": "identityHash",
							"type": "bytes32"
						},
						{
							"internalType": "uint256",
							"name": "limitScore",
							"type": "uint256"
						}
					],
					"name": "setCreditLimit",
					"outputs": [],
					"stateMutability": "nonpayable",
					"type": "function"
				},
				{
					"inputs": [
						{
							"internalType": "address",
							"name": "_newOracle",
							"type": "address"
						}
					],
					"name": "setOracle",
					"outputs": [],
					"stateMutability": "nonpayable",
					"type": "function"
				},
				{
					"inputs": [
						{
							"internalType": "bytes32",
							"name": "receiptHash",
							"type": "bytes32"
						}
					],
					"name": "settleReceipt",
					"outputs": [],
					"stateMutability": "nonpayable",
					"type": "function"
				},
				{
					"inputs": [],
					"name": "totalLent",
					"outputs": [
						{
							"internalType": "uint256",
							"name": "",
							"type": "uint256"
						}
					],
					"stateMutability": "view",
					"type": "function"
				},
				{
					"inputs": [],
					"name": "usdc",
					"outputs": [
						{
							"internalType": "contract IERC20",
							"name": "",
							"type": "address"
						}
					],
					"stateMutability": "view",
					"type": "function"
				},
				{
					"inputs": [
						{
							"internalType": "bytes32",
							"name": "receiptHash",
							"type": "bytes32"
						}
					],
					"name": "verifyReceipt",
					"outputs": [
						{
							"internalType": "address",
							"name": "merchant",
							"type": "address"
						},
						{
							"internalType": "uint256",
							"name": "amount",
							"type": "uint256"
						},
						{
							"internalType": "bool",
							"name": "claimable",
							"type": "bool"
						}
					],
					"stateMutability": "view",
					"type": "function"
				},
				{
					"inputs": [
						{
							"internalType": "uint256",
							"name": "amount",
							"type": "uint256"
						}
					],
					"name": "withdrawLiquidity",
					"outputs": [],
					"stateMutability": "nonpayable",
					"type": "function"
				}
			],
			"devdoc": {
				"kind": "dev",
				"methods": {},
				"version": 1
			},
			"evm": {
				"assembly": "    /* \"contracts/AuraVault.sol\":435:7142  contract AuraVault {... */\n  mstore(0x40, 0xa0)\n    /* \"contracts/AuraVault.sol\":1933:2029  constructor(address _usdc) {... */\n  callvalue\n  dup1\n  iszero\n  tag_1\n  jumpi\n  0x00\n  dup1\n  revert\ntag_1:\n  pop\n  mload(0x40)\n  sub(codesize, bytecodeSize)\n  dup1\n  bytecodeSize\n  dup4\n  codecopy\n  dup2\n  dup2\n  add\n  0x40\n  mstore\n  dup2\n  add\n  swap1\n  tag_2\n  swap2\n  swap1\n  tag_3\n  jump\t// in\ntag_2:\n    /* \"contracts/AuraVault.sol\":1980:1990  msg.sender */\n  caller\n    /* \"contracts/AuraVault.sol\":1971:1977  oracle */\n  0x00\n  dup1\n    /* \"contracts/AuraVault.sol\":1971:1990  oracle = msg.sender */\n  0x0100\n  exp\n  dup2\n  sload\n  dup2\n  0xffffffffffffffffffffffffffffffffffffffff\n  mul\n  not\n  and\n  swap1\n  dup4\n  0xffffffffffffffffffffffffffffffffffffffff\n  and\n  mul\n  or\n  swap1\n  sstore\n  pop\n    /* \"contracts/AuraVault.sol\":2015:2020  _usdc */\n  dup1\n    /* \"contracts/AuraVault.sol\":2001:2021  usdc = IERC20(_usdc) */\n  0xffffffffffffffffffffffffffffffffffffffff\n  and\n  0x80\n  dup2\n  0xffffffffffffffffffffffffffffffffffffffff\n  and\n  dup2\n  mstore\n  pop\n  pop\n    /* \"contracts/AuraVault.sol\":1933:2029  constructor(address _usdc) {... */\n  pop\n    /* \"contracts/AuraVault.sol\":435:7142  contract AuraVault {... */\n  jump(tag_6)\n    /* \"#utility.yul\":88:205   */\ntag_8:\n    /* \"#utility.yul\":197:198   */\n  0x00\n    /* \"#utility.yul\":194:195   */\n  dup1\n    /* \"#utility.yul\":187:199   */\n  revert\n    /* \"#utility.yul\":334:460   */\ntag_10:\n    /* \"#utility.yul\":371:378   */\n  0x00\n    /* \"#utility.yul\":411:453   */\n  0xffffffffffffffffffffffffffffffffffffffff\n    /* \"#utility.yul\":404:409   */\n  dup3\n    /* \"#utility.yul\":400:454   */\n  and\n    /* \"#utility.yul\":389:454   */\n  swap1\n  pop\n    /* \"#utility.yul\":334:460   */\n  swap2\n  swap1\n  pop\n  jump\t// out\n    /* \"#utility.yul\":466:562   */\ntag_11:\n    /* \"#utility.yul\":503:510   */\n  0x00\n    /* \"#utility.yul\":532:556   */\n  tag_20\n    /* \"#utility.yul\":550:555   */\n  dup3\n    /* \"#utility.yul\":532:556   */\n  tag_10\n  jump\t// in\ntag_20:\n    /* \"#utility.yul\":521:556   */\n  swap1\n  pop\n    /* \"#utility.yul\":466:562   */\n  swap2\n  swap1\n  pop\n  jump\t// out\n    /* \"#utility.yul\":568:690   */\ntag_12:\n    /* \"#utility.yul\":641:665   */\n  tag_22\n    /* \"#utility.yul\":659:664   */\n  dup2\n    /* \"#utility.yul\":641:665   */\n  tag_11\n  jump\t// in\ntag_22:\n    /* \"#utility.yul\":634:639   */\n  dup2\n    /* \"#utility.yul\":631:666   */\n  eq\n    /* \"#utility.yul\":621:684   */\n  tag_23\n  jumpi\n    /* \"#utility.yul\":680:681   */\n  0x00\n    /* \"#utility.yul\":677:678   */\n  dup1\n    /* \"#utility.yul\":670:682   */\n  revert\n    /* \"#utility.yul\":621:684   */\ntag_23:\n    /* \"#utility.yul\":568:690   */\n  pop\n  jump\t// out\n    /* \"#utility.yul\":696:839   */\ntag_13:\n    /* \"#utility.yul\":753:758   */\n  0x00\n    /* \"#utility.yul\":784:790   */\n  dup2\n    /* \"#utility.yul\":778:791   */\n  mload\n    /* \"#utility.yul\":769:791   */\n  swap1\n  pop\n    /* \"#utility.yul\":800:833   */\n  tag_25\n    /* \"#utility.yul\":827:832   */\n  dup2\n    /* \"#utility.yul\":800:833   */\n  tag_12\n  jump\t// in\ntag_25:\n    /* \"#utility.yul\":696:839   */\n  swap3\n  swap2\n  pop\n  pop\n  jump\t// out\n    /* \"#utility.yul\":845:1196   */\ntag_3:\n    /* \"#utility.yul\":915:921   */\n  0x00\n    /* \"#utility.yul\":964:966   */\n  0x20\n    /* \"#utility.yul\":952:961   */\n  dup3\n    /* \"#utility.yul\":943:950   */\n  dup5\n    /* \"#utility.yul\":939:962   */\n  sub\n    /* \"#utility.yul\":935:967   */\n  slt\n    /* \"#utility.yul\":932:1051   */\n  iszero\n  tag_27\n  jumpi\n    /* \"#utility.yul\":970:1049   */\n  tag_28\n  tag_8\n  jump\t// in\ntag_28:\n    /* \"#utility.yul\":932:1051   */\ntag_27:\n    /* \"#utility.yul\":1090:1091   */\n  0x00\n    /* \"#utility.yul\":1115:1179   */\n  tag_29\n    /* \"#utility.yul\":1171:1178   */\n  dup5\n    /* \"#utility.yul\":1162:1168   */\n  dup3\n    /* \"#utility.yul\":1151:1160   */\n  dup6\n    /* \"#utility.yul\":1147:1169   */\n  add\n    /* \"#utility.yul\":1115:1179   */\n  tag_13\n  jump\t// in\ntag_29:\n    /* \"#utility.yul\":1105:1179   */\n  swap2\n  pop\n    /* \"#utility.yul\":1061:1189   */\n  pop\n    /* \"#utility.yul\":845:1196   */\n  swap3\n  swap2\n  pop\n  pop\n  jump\t// out\n    /* \"contracts/AuraVault.sol\":435:7142  contract AuraVault {... */\ntag_6:\n  mload(0x80)\n  codecopy(0x00, dataOffset(sub_0), dataSize(sub_0))\n  0x00\n  assignImmutable(\"0x6bcaf047ba4c8ac400fca43393035242dd1aabda2d6068a0c51242b97224de8d\")\n  return(0x00, dataSize(sub_0))\nstop\n\nsub_0: assembly {\n        /* \"contracts/AuraVault.sol\":435:7142  contract AuraVault {... */\n      mstore(0x40, 0x80)\n      callvalue\n      dup1\n      iszero\n      tag_1\n      jumpi\n      0x00\n      dup1\n      revert\n    tag_1:\n      pop\n      jumpi(tag_2, lt(calldatasize, 0x04))\n      shr(0xe0, calldataload(0x00))\n      dup1\n      0x7dc0d1d0\n      gt\n      tag_21\n      jumpi\n      dup1\n      0xbb7b02fe\n      gt\n      tag_22\n      jumpi\n      dup1\n      0xbb7b02fe\n      eq\n      tag_16\n      jumpi\n      dup1\n      0xd1058e59\n      eq\n      tag_17\n      jumpi\n      dup1\n      0xeb521a4c\n      eq\n      tag_18\n      jumpi\n      dup1\n      0xef6cf04d\n      eq\n      tag_19\n      jumpi\n      dup1\n      0xf1941ce9\n      eq\n      tag_20\n      jumpi\n      jump(tag_2)\n    tag_22:\n      dup1\n      0x7dc0d1d0\n      eq\n      tag_12\n      jumpi\n      dup1\n      0x7e1e2b7a\n      eq\n      tag_13\n      jumpi\n      dup1\n      0x8174794e\n      eq\n      tag_14\n      jumpi\n      dup1\n      0xa27a944d\n      eq\n      tag_15\n      jumpi\n      jump(tag_2)\n    tag_21:\n      dup1\n      0x371fd8e6\n      gt\n      tag_23\n      jumpi\n      dup1\n      0x371fd8e6\n      eq\n      tag_7\n      jumpi\n      dup1\n      0x3c1166f3\n      eq\n      tag_8\n      jumpi\n      dup1\n      0x3e413bee\n      eq\n      tag_9\n      jumpi\n      dup1\n      0x6d7c218b\n      eq\n      tag_10\n      jumpi\n      dup1\n      0x7adbf973\n      eq\n      tag_11\n      jumpi\n      jump(tag_2)\n    tag_23:\n      dup1\n      0x0a861f2a\n      eq\n      tag_3\n      jumpi\n      dup1\n      0x0d9d93d9\n      eq\n      tag_4\n      jumpi\n      dup1\n      0x12e382b4\n      eq\n      tag_5\n      jumpi\n      dup1\n      0x1f668cdb\n      eq\n      tag_6\n      jumpi\n    tag_2:\n      0x00\n      dup1\n      revert\n        /* \"contracts/AuraVault.sol\":3631:4271  function withdrawLiquidity(uint256 amount) external {... */\n    tag_3:\n      tag_24\n      0x04\n      dup1\n      calldatasize\n      sub\n      dup2\n      add\n      swap1\n      tag_25\n      swap2\n      swap1\n      tag_26\n      jump\t// in\n    tag_25:\n      tag_27\n      jump\t// in\n    tag_24:\n      stop\n        /* \"contracts/AuraVault.sol\":557:591  uint256 public lockedForSettlement */\n    tag_4:\n      tag_28\n      tag_29\n      jump\t// in\n    tag_28:\n      mload(0x40)\n      tag_30\n      swap2\n      swap1\n      tag_31\n      jump\t// in\n    tag_30:\n      mload(0x40)\n      dup1\n      swap2\n      sub\n      swap1\n      return\n        /* \"contracts/AuraVault.sol\":4279:5084  function lockFunds(address merchant, uint256 amount) external returns (bytes32 receiptHash) {... */\n    tag_5:\n      tag_32\n      0x04\n      dup1\n      calldatasize\n      sub\n      dup2\n      add\n      swap1\n      tag_33\n      swap2\n      swap1\n      tag_34\n      jump\t// in\n    tag_33:\n      tag_35\n      jump\t// in\n    tag_32:\n      mload(0x40)\n      tag_36\n      swap2\n      swap1\n      tag_37\n      jump\t// in\n    tag_36:\n      mload(0x40)\n      dup1\n      swap2\n      sub\n      swap1\n      return\n        /* \"contracts/AuraVault.sol\":2145:2421  function getDebugInfo(address user) external view returns (uint256 userBalance, uint256 vaultAllowance, address vaultAddress) {... */\n    tag_6:\n      tag_38\n      0x04\n      dup1\n      calldatasize\n      sub\n      dup2\n      add\n      swap1\n      tag_39\n      swap2\n      swap1\n      tag_40\n      jump\t// in\n    tag_39:\n      tag_41\n      jump\t// in\n    tag_38:\n      mload(0x40)\n      tag_42\n      swap4\n      swap3\n      swap2\n      swap1\n      tag_43\n      jump\t// in\n    tag_42:\n      mload(0x40)\n      dup1\n      swap2\n      sub\n      swap1\n      return\n        /* \"contracts/AuraVault.sol\":2429:2686  function repay(uint256 amount) external {... */\n    tag_7:\n      tag_44\n      0x04\n      dup1\n      calldatasize\n      sub\n      dup2\n      add\n      swap1\n      tag_45\n      swap2\n      swap1\n      tag_26\n      jump\t// in\n    tag_45:\n      tag_46\n      jump\t// in\n    tag_44:\n      stop\n        /* \"contracts/AuraVault.sol\":2694:2894  function setCreditLimit(bytes32 identityHash, uint256 limitScore) external onlyOracle {... */\n    tag_8:\n      tag_47\n      0x04\n      dup1\n      calldatasize\n      sub\n      dup2\n      add\n      swap1\n      tag_48\n      swap2\n      swap1\n      tag_49\n      jump\t// in\n    tag_48:\n      tag_50\n      jump\t// in\n    tag_47:\n      stop\n        /* \"contracts/AuraVault.sol\":461:489  IERC20 public immutable usdc */\n    tag_9:\n      tag_51\n      tag_52\n      jump\t// in\n    tag_51:\n      mload(0x40)\n      tag_53\n      swap2\n      swap1\n      tag_54\n      jump\t// in\n    tag_53:\n      mload(0x40)\n      dup1\n      swap2\n      sub\n      swap1\n      return\n        /* \"contracts/AuraVault.sol\":526:550  uint256 public totalLent */\n    tag_10:\n      tag_55\n      tag_56\n      jump\t// in\n    tag_55:\n      mload(0x40)\n      tag_57\n      swap2\n      swap1\n      tag_31\n      jump\t// in\n    tag_57:\n      mload(0x40)\n      dup1\n      swap2\n      sub\n      swap1\n      return\n        /* \"contracts/AuraVault.sol\":3485:3623  function setOracle(address _newOracle) external onlyOracle {... */\n    tag_11:\n      tag_58\n      0x04\n      dup1\n      calldatasize\n      sub\n      dup2\n      add\n      swap1\n      tag_59\n      swap2\n      swap1\n      tag_40\n      jump\t// in\n    tag_59:\n      tag_60\n      jump\t// in\n    tag_58:\n      stop\n        /* \"contracts/AuraVault.sol\":496:517  address public oracle */\n    tag_12:\n      tag_61\n      tag_62\n      jump\t// in\n    tag_61:\n      mload(0x40)\n      tag_63\n      swap2\n      swap1\n      tag_64\n      jump\t// in\n    tag_63:\n      mload(0x40)\n      dup1\n      swap2\n      sub\n      swap1\n      return\n        /* \"contracts/AuraVault.sol\":5381:5895  function settleReceipt(bytes32 receiptHash) external {... */\n    tag_13:\n      tag_65\n      0x04\n      dup1\n      calldatasize\n      sub\n      dup2\n      add\n      swap1\n      tag_66\n      swap2\n      swap1\n      tag_67\n      jump\t// in\n    tag_66:\n      tag_68\n      jump\t// in\n    tag_65:\n      stop\n        /* \"contracts/AuraVault.sol\":5092:5373  function verifyReceipt(bytes32 receiptHash) external view returns (address merchant, uint256 amount, bool claimable) {... */\n    tag_14:\n      tag_69\n      0x04\n      dup1\n      calldatasize\n      sub\n      dup2\n      add\n      swap1\n      tag_70\n      swap2\n      swap1\n      tag_67\n      jump\t// in\n    tag_70:\n      tag_71\n      jump\t// in\n    tag_69:\n      mload(0x40)\n      tag_72\n      swap4\n      swap3\n      swap2\n      swap1\n      tag_73\n      jump\t// in\n    tag_72:\n      mload(0x40)\n      dup1\n      swap2\n      sub\n      swap1\n      return\n        /* \"contracts/AuraVault.sol\":600:649  mapping(address => uint256) public lenderBalances */\n    tag_15:\n      tag_74\n      0x04\n      dup1\n      calldatasize\n      sub\n      dup2\n      add\n      swap1\n      tag_75\n      swap2\n      swap1\n      tag_40\n      jump\t// in\n    tag_75:\n      tag_76\n      jump\t// in\n    tag_74:\n      mload(0x40)\n      tag_77\n      swap2\n      swap1\n      tag_31\n      jump\t// in\n    tag_77:\n      mload(0x40)\n      dup1\n      swap2\n      sub\n      swap1\n      return\n        /* \"contracts/AuraVault.sol\":964:1017  mapping(address => bytes32[]) public merchantReceipts */\n    tag_16:\n      tag_78\n      0x04\n      dup1\n      calldatasize\n      sub\n      dup2\n      add\n      swap1\n      tag_79\n      swap2\n      swap1\n      tag_34\n      jump\t// in\n    tag_79:\n      tag_80\n      jump\t// in\n    tag_78:\n      mload(0x40)\n      tag_81\n      swap2\n      swap1\n      tag_37\n      jump\t// in\n    tag_81:\n      mload(0x40)\n      dup1\n      swap2\n      sub\n      swap1\n      return\n        /* \"contracts/AuraVault.sol\":6037:7139  function claimAll() external {... */\n    tag_17:\n      tag_82\n      tag_83\n      jump\t// in\n    tag_82:\n      stop\n        /* \"contracts/AuraVault.sol\":2902:3477  function provideLiquidity(uint256 amount) external {... */\n    tag_18:\n      tag_84\n      0x04\n      dup1\n      calldatasize\n      sub\n      dup2\n      add\n      swap1\n      tag_85\n      swap2\n      swap1\n      tag_26\n      jump\t// in\n    tag_85:\n      tag_86\n      jump\t// in\n    tag_84:\n      stop\n        /* \"contracts/AuraVault.sol\":784:827  mapping(bytes32 => Receipt) public receipts */\n    tag_19:\n      tag_87\n      0x04\n      dup1\n      calldatasize\n      sub\n      dup2\n      add\n      swap1\n      tag_88\n      swap2\n      swap1\n      tag_67\n      jump\t// in\n    tag_88:\n      tag_89\n      jump\t// in\n    tag_87:\n      mload(0x40)\n      tag_90\n      swap4\n      swap3\n      swap2\n      swap1\n      tag_73\n      jump\t// in\n    tag_90:\n      mload(0x40)\n      dup1\n      swap2\n      sub\n      swap1\n      return\n        /* \"contracts/AuraVault.sol\":656:703  mapping(bytes32 => uint256) public creditLimits */\n    tag_20:\n      tag_91\n      0x04\n      dup1\n      calldatasize\n      sub\n      dup2\n      add\n      swap1\n      tag_92\n      swap2\n      swap1\n      tag_67\n      jump\t// in\n    tag_92:\n      tag_93\n      jump\t// in\n    tag_91:\n      mload(0x40)\n      tag_94\n      swap2\n      swap1\n      tag_31\n      jump\t// in\n    tag_94:\n      mload(0x40)\n      dup1\n      swap2\n      sub\n      swap1\n      return\n        /* \"contracts/AuraVault.sol\":3631:4271  function withdrawLiquidity(uint256 amount) external {... */\n    tag_27:\n        /* \"contracts/AuraVault.sol\":3708:3709  0 */\n      0x00\n        /* \"contracts/AuraVault.sol\":3698:3704  amount */\n      dup2\n        /* \"contracts/AuraVault.sol\":3698:3709  amount == 0 */\n      sub\n        /* \"contracts/AuraVault.sol\":3694:3730  if (amount == 0) revert ZeroAmount() */\n      tag_96\n      jumpi\n        /* \"contracts/AuraVault.sol\":3718:3730  ZeroAmount() */\n      mload(0x40)\n      0x1f2a200500000000000000000000000000000000000000000000000000000000\n      dup2\n      mstore\n      0x04\n      add\n      mload(0x40)\n      dup1\n      swap2\n      sub\n      swap1\n      revert\n        /* \"contracts/AuraVault.sol\":3694:3730  if (amount == 0) revert ZeroAmount() */\n    tag_96:\n        /* \"contracts/AuraVault.sol\":3774:3780  amount */\n      dup1\n        /* \"contracts/AuraVault.sol\":3745:3759  lenderBalances */\n      0x03\n        /* \"contracts/AuraVault.sol\":3745:3771  lenderBalances[msg.sender] */\n      0x00\n        /* \"contracts/AuraVault.sol\":3760:3770  msg.sender */\n      caller\n        /* \"contracts/AuraVault.sol\":3745:3771  lenderBalances[msg.sender] */\n      0xffffffffffffffffffffffffffffffffffffffff\n      and\n      0xffffffffffffffffffffffffffffffffffffffff\n      and\n      dup2\n      mstore\n      0x20\n      add\n      swap1\n      dup2\n      mstore\n      0x20\n      add\n      0x00\n      keccak256\n      sload\n        /* \"contracts/AuraVault.sol\":3745:3780  lenderBalances[msg.sender] < amount */\n      lt\n        /* \"contracts/AuraVault.sol\":3741:3810  if (lenderBalances[msg.sender] < amount) revert InsufficientBalance() */\n      iszero\n      tag_97\n      jumpi\n        /* \"contracts/AuraVault.sol\":3789:3810  InsufficientBalance() */\n      mload(0x40)\n      0xf4d678b800000000000000000000000000000000000000000000000000000000\n      dup2\n      mstore\n      0x04\n      add\n      mload(0x40)\n      dup1\n      swap2\n      sub\n      swap1\n      revert\n        /* \"contracts/AuraVault.sol\":3741:3810  if (lenderBalances[msg.sender] < amount) revert InsufficientBalance() */\n    tag_97:\n        /* \"contracts/AuraVault.sol\":3823:3838  uint256 balance */\n      0x00\n        /* \"contracts/AuraVault.sol\":3841:3845  usdc */\n      immutable(\"0x6bcaf047ba4c8ac400fca43393035242dd1aabda2d6068a0c51242b97224de8d\")\n        /* \"contracts/AuraVault.sol\":3841:3855  usdc.balanceOf */\n      0xffffffffffffffffffffffffffffffffffffffff\n      and\n      0x70a08231\n        /* \"contracts/AuraVault.sol\":3864:3868  this */\n      address\n        /* \"contracts/AuraVault.sol\":3841:3870  usdc.balanceOf(address(this)) */\n      mload(0x40)\n      dup3\n      0xffffffff\n      and\n      0xe0\n      shl\n      dup2\n      mstore\n      0x04\n      add\n      tag_98\n      swap2\n      swap1\n      tag_64\n      jump\t// in\n    tag_98:\n      0x20\n      mload(0x40)\n      dup1\n      dup4\n      sub\n      dup2\n      dup7\n      gas\n      staticcall\n      iszero\n      dup1\n      iszero\n      tag_100\n      jumpi\n      returndatasize\n      0x00\n      dup1\n      returndatacopy\n      revert(0x00, returndatasize)\n    tag_100:\n      pop\n      pop\n      pop\n      pop\n      mload(0x40)\n      returndatasize\n      not(0x1f)\n      0x1f\n      dup3\n      add\n      and\n      dup3\n      add\n      dup1\n      0x40\n      mstore\n      pop\n      dup2\n      add\n      swap1\n      tag_101\n      swap2\n      swap1\n      tag_102\n      jump\t// in\n    tag_101:\n        /* \"contracts/AuraVault.sol\":3823:3870  uint256 balance = usdc.balanceOf(address(this)) */\n      swap1\n      pop\n        /* \"contracts/AuraVault.sol\":3881:3902  uint256 freeLiquidity */\n      0x00\n        /* \"contracts/AuraVault.sol\":3915:3934  lockedForSettlement */\n      sload(0x02)\n        /* \"contracts/AuraVault.sol\":3905:3912  balance */\n      dup3\n        /* \"contracts/AuraVault.sol\":3905:3934  balance > lockedForSettlement */\n      gt\n        /* \"contracts/AuraVault.sol\":3905:3970  balance > lockedForSettlement ? balance - lockedForSettlement : 0 */\n      tag_103\n      jumpi\n        /* \"contracts/AuraVault.sol\":3969:3970  0 */\n      0x00\n        /* \"contracts/AuraVault.sol\":3905:3970  balance > lockedForSettlement ? balance - lockedForSettlement : 0 */\n      jump(tag_104)\n    tag_103:\n        /* \"contracts/AuraVault.sol\":3947:3966  lockedForSettlement */\n      sload(0x02)\n        /* \"contracts/AuraVault.sol\":3937:3944  balance */\n      dup3\n        /* \"contracts/AuraVault.sol\":3937:3966  balance - lockedForSettlement */\n      tag_105\n      swap2\n      swap1\n      tag_106\n      jump\t// in\n    tag_105:\n        /* \"contracts/AuraVault.sol\":3905:3970  balance > lockedForSettlement ? balance - lockedForSettlement : 0 */\n    tag_104:\n        /* \"contracts/AuraVault.sol\":3881:3970  uint256 freeLiquidity = balance > lockedForSettlement ? balance - lockedForSettlement : 0 */\n      swap1\n      pop\n        /* \"contracts/AuraVault.sol\":4003:4009  amount */\n      dup3\n        /* \"contracts/AuraVault.sol\":3987:4000  freeLiquidity */\n      dup2\n        /* \"contracts/AuraVault.sol\":3987:4009  freeLiquidity < amount */\n      lt\n        /* \"contracts/AuraVault.sol\":3983:4029  if (freeLiquidity < amount) revert Insolvent() */\n      iszero\n      tag_107\n      jumpi\n        /* \"contracts/AuraVault.sol\":4018:4029  Insolvent() */\n      mload(0x40)\n      0xfc22003800000000000000000000000000000000000000000000000000000000\n      dup2\n      mstore\n      0x04\n      add\n      mload(0x40)\n      dup1\n      swap2\n      sub\n      swap1\n      revert\n        /* \"contracts/AuraVault.sol\":3983:4029  if (freeLiquidity < amount) revert Insolvent() */\n    tag_107:\n        /* \"contracts/AuraVault.sol\":4072:4078  amount */\n      dup3\n        /* \"contracts/AuraVault.sol\":4042:4056  lenderBalances */\n      0x03\n        /* \"contracts/AuraVault.sol\":4042:4068  lenderBalances[msg.sender] */\n      0x00\n        /* \"contracts/AuraVault.sol\":4057:4067  msg.sender */\n      caller\n        /* \"contracts/AuraVault.sol\":4042:4068  lenderBalances[msg.sender] */\n      0xffffffffffffffffffffffffffffffffffffffff\n      and\n      0xffffffffffffffffffffffffffffffffffffffff\n      and\n      dup2\n      mstore\n      0x20\n      add\n      swap1\n      dup2\n      mstore\n      0x20\n      add\n      0x00\n      keccak256\n      0x00\n        /* \"contracts/AuraVault.sol\":4042:4078  lenderBalances[msg.sender] -= amount */\n      dup3\n      dup3\n      sload\n      tag_108\n      swap2\n      swap1\n      tag_106\n      jump\t// in\n    tag_108:\n      swap3\n      pop\n      pop\n      dup2\n      swap1\n      sstore\n      pop\n        /* \"contracts/AuraVault.sol\":4102:4108  amount */\n      dup3\n        /* \"contracts/AuraVault.sol\":4089:4098  totalLent */\n      0x01\n      0x00\n        /* \"contracts/AuraVault.sol\":4089:4108  totalLent -= amount */\n      dup3\n      dup3\n      sload\n      tag_109\n      swap2\n      swap1\n      tag_106\n      jump\t// in\n    tag_109:\n      swap3\n      pop\n      pop\n      dup2\n      swap1\n      sstore\n      pop\n        /* \"contracts/AuraVault.sol\":4121:4128  bool ok */\n      0x00\n        /* \"contracts/AuraVault.sol\":4131:4135  usdc */\n      immutable(\"0x6bcaf047ba4c8ac400fca43393035242dd1aabda2d6068a0c51242b97224de8d\")\n        /* \"contracts/AuraVault.sol\":4131:4144  usdc.transfer */\n      0xffffffffffffffffffffffffffffffffffffffff\n      and\n      0xa9059cbb\n        /* \"contracts/AuraVault.sol\":4145:4155  msg.sender */\n      caller\n        /* \"contracts/AuraVault.sol\":4157:4163  amount */\n      dup7\n        /* \"contracts/AuraVault.sol\":4131:4164  usdc.transfer(msg.sender, amount) */\n      mload(0x40)\n      dup4\n      0xffffffff\n      and\n      0xe0\n      shl\n      dup2\n      mstore\n      0x04\n      add\n      tag_110\n      swap3\n      swap2\n      swap1\n      tag_111\n      jump\t// in\n    tag_110:\n      0x20\n      mload(0x40)\n      dup1\n      dup4\n      sub\n      dup2\n      0x00\n      dup8\n      gas\n      call\n      iszero\n      dup1\n      iszero\n      tag_113\n      jumpi\n      returndatasize\n      0x00\n      dup1\n      returndatacopy\n      revert(0x00, returndatasize)\n    tag_113:\n      pop\n      pop\n      pop\n      pop\n      mload(0x40)\n      returndatasize\n      not(0x1f)\n      0x1f\n      dup3\n      add\n      and\n      dup3\n      add\n      dup1\n      0x40\n      mstore\n      pop\n      dup2\n      add\n      swap1\n      tag_114\n      swap2\n      swap1\n      tag_115\n      jump\t// in\n    tag_114:\n        /* \"contracts/AuraVault.sol\":4121:4164  bool ok = usdc.transfer(msg.sender, amount) */\n      swap1\n      pop\n        /* \"contracts/AuraVault.sol\":4180:4182  ok */\n      dup1\n        /* \"contracts/AuraVault.sol\":4175:4207  if (!ok) revert TransferFailed() */\n      tag_116\n      jumpi\n        /* \"contracts/AuraVault.sol\":4191:4207  TransferFailed() */\n      mload(0x40)\n      0x90b8ec1800000000000000000000000000000000000000000000000000000000\n      dup2\n      mstore\n      0x04\n      add\n      mload(0x40)\n      dup1\n      swap2\n      sub\n      swap1\n      revert\n        /* \"contracts/AuraVault.sol\":4175:4207  if (!ok) revert TransferFailed() */\n    tag_116:\n        /* \"contracts/AuraVault.sol\":4244:4254  msg.sender */\n      caller\n        /* \"contracts/AuraVault.sol\":4225:4263  LiquidityWithdrawn(msg.sender, amount) */\n      0xffffffffffffffffffffffffffffffffffffffff\n      and\n      0xb1cce8684b4ffa8667b4577654e61ee3480d661ee9c27522ac80e211f6bd4d25\n        /* \"contracts/AuraVault.sol\":4256:4262  amount */\n      dup6\n        /* \"contracts/AuraVault.sol\":4225:4263  LiquidityWithdrawn(msg.sender, amount) */\n      mload(0x40)\n      tag_117\n      swap2\n      swap1\n      tag_31\n      jump\t// in\n    tag_117:\n      mload(0x40)\n      dup1\n      swap2\n      sub\n      swap1\n      log2\n        /* \"contracts/AuraVault.sol\":3683:4271  {... */\n      pop\n      pop\n      pop\n        /* \"contracts/AuraVault.sol\":3631:4271  function withdrawLiquidity(uint256 amount) external {... */\n      pop\n      jump\t// out\n        /* \"contracts/AuraVault.sol\":557:591  uint256 public lockedForSettlement */\n    tag_29:\n      sload(0x02)\n      dup2\n      jump\t// out\n        /* \"contracts/AuraVault.sol\":4279:5084  function lockFunds(address merchant, uint256 amount) external returns (bytes32 receiptHash) {... */\n    tag_35:\n        /* \"contracts/AuraVault.sol\":4350:4369  bytes32 receiptHash */\n      0x00\n        /* \"contracts/AuraVault.sol\":4396:4397  0 */\n      dup1\n        /* \"contracts/AuraVault.sol\":4386:4392  amount */\n      dup3\n        /* \"contracts/AuraVault.sol\":4386:4397  amount == 0 */\n      sub\n        /* \"contracts/AuraVault.sol\":4382:4418  if (amount == 0) revert ZeroAmount() */\n      tag_119\n      jumpi\n        /* \"contracts/AuraVault.sol\":4406:4418  ZeroAmount() */\n      mload(0x40)\n      0x1f2a200500000000000000000000000000000000000000000000000000000000\n      dup2\n      mstore\n      0x04\n      add\n      mload(0x40)\n      dup1\n      swap2\n      sub\n      swap1\n      revert\n        /* \"contracts/AuraVault.sol\":4382:4418  if (amount == 0) revert ZeroAmount() */\n    tag_119:\n        /* \"contracts/AuraVault.sol\":4429:4444  uint256 balance */\n      0x00\n        /* \"contracts/AuraVault.sol\":4447:4451  usdc */\n      immutable(\"0x6bcaf047ba4c8ac400fca43393035242dd1aabda2d6068a0c51242b97224de8d\")\n        /* \"contracts/AuraVault.sol\":4447:4461  usdc.balanceOf */\n      0xffffffffffffffffffffffffffffffffffffffff\n      and\n      0x70a08231\n        /* \"contracts/AuraVault.sol\":4470:4474  this */\n      address\n        /* \"contracts/AuraVault.sol\":4447:4476  usdc.balanceOf(address(this)) */\n      mload(0x40)\n      dup3\n      0xffffffff\n      and\n      0xe0\n      shl\n      dup2\n      mstore\n      0x04\n      add\n      tag_120\n      swap2\n      swap1\n      tag_64\n      jump\t// in\n    tag_120:\n      0x20\n      mload(0x40)\n      dup1\n      dup4\n      sub\n      dup2\n      dup7\n      gas\n      staticcall\n      iszero\n      dup1\n      iszero\n      tag_122\n      jumpi\n      returndatasize\n      0x00\n      dup1\n      returndatacopy\n      revert(0x00, returndatasize)\n    tag_122:\n      pop\n      pop\n      pop\n      pop\n      mload(0x40)\n      returndatasize\n      not(0x1f)\n      0x1f\n      dup3\n      add\n      and\n      dup3\n      add\n      dup1\n      0x40\n      mstore\n      pop\n      dup2\n      add\n      swap1\n      tag_123\n      swap2\n      swap1\n      tag_102\n      jump\t// in\n    tag_123:\n        /* \"contracts/AuraVault.sol\":4429:4476  uint256 balance = usdc.balanceOf(address(this)) */\n      swap1\n      pop\n        /* \"contracts/AuraVault.sol\":4523:4529  amount */\n      dup3\n        /* \"contracts/AuraVault.sol\":4501:4520  lockedForSettlement */\n      sload(0x02)\n        /* \"contracts/AuraVault.sol\":4501:4529  lockedForSettlement + amount */\n      tag_124\n      swap2\n      swap1\n      tag_125\n      jump\t// in\n    tag_124:\n        /* \"contracts/AuraVault.sol\":4491:4498  balance */\n      dup2\n        /* \"contracts/AuraVault.sol\":4491:4529  balance < lockedForSettlement + amount */\n      lt\n        /* \"contracts/AuraVault.sol\":4487:4549  if (balance < lockedForSettlement + amount) revert Insolvent() */\n      iszero\n      tag_126\n      jumpi\n        /* \"contracts/AuraVault.sol\":4538:4549  Insolvent() */\n      mload(0x40)\n      0xfc22003800000000000000000000000000000000000000000000000000000000\n      dup2\n      mstore\n      0x04\n      add\n      mload(0x40)\n      dup1\n      swap2\n      sub\n      swap1\n      revert\n        /* \"contracts/AuraVault.sol\":4487:4549  if (balance < lockedForSettlement + amount) revert Insolvent() */\n    tag_126:\n        /* \"contracts/AuraVault.sol\":4603:4611  merchant */\n      dup4\n        /* \"contracts/AuraVault.sol\":4613:4619  amount */\n      dup4\n        /* \"contracts/AuraVault.sol\":4621:4636  block.timestamp */\n      timestamp\n        /* \"contracts/AuraVault.sol\":4638:4650  block.number */\n      number\n        /* \"contracts/AuraVault.sol\":4652:4671  lockedForSettlement */\n      sload(0x02)\n        /* \"contracts/AuraVault.sol\":4586:4672  abi.encodePacked(merchant, amount, block.timestamp, block.number, lockedForSettlement) */\n      add(0x20, mload(0x40))\n      tag_127\n      swap6\n      swap5\n      swap4\n      swap3\n      swap2\n      swap1\n      tag_128\n      jump\t// in\n    tag_127:\n      mload(0x40)\n      0x20\n      dup2\n      dup4\n      sub\n      sub\n      dup2\n      mstore\n      swap1\n      0x40\n      mstore\n        /* \"contracts/AuraVault.sol\":4576:4673  keccak256(abi.encodePacked(merchant, amount, block.timestamp, block.number, lockedForSettlement)) */\n      dup1\n      mload\n      swap1\n      0x20\n      add\n      keccak256\n        /* \"contracts/AuraVault.sol\":4562:4673  receiptHash = keccak256(abi.encodePacked(merchant, amount, block.timestamp, block.number, lockedForSettlement)) */\n      swap2\n      pop\n        /* \"contracts/AuraVault.sol\":4720:4721  0 */\n      0x00\n        /* \"contracts/AuraVault.sol\":4688:4696  receipts */\n      0x05\n        /* \"contracts/AuraVault.sol\":4688:4709  receipts[receiptHash] */\n      0x00\n        /* \"contracts/AuraVault.sol\":4697:4708  receiptHash */\n      dup5\n        /* \"contracts/AuraVault.sol\":4688:4709  receipts[receiptHash] */\n      dup2\n      mstore\n      0x20\n      add\n      swap1\n      dup2\n      mstore\n      0x20\n      add\n      0x00\n      keccak256\n        /* \"contracts/AuraVault.sol\":4688:4716  receipts[receiptHash].amount */\n      0x01\n      add\n      sload\n        /* \"contracts/AuraVault.sol\":4688:4721  receipts[receiptHash].amount != 0 */\n      eq\n        /* \"contracts/AuraVault.sol\":4684:4746  if (receipts[receiptHash].amount != 0) revert InvalidReceipt() */\n      tag_129\n      jumpi\n        /* \"contracts/AuraVault.sol\":4730:4746  InvalidReceipt() */\n      mload(0x40)\n      0xc0098aac00000000000000000000000000000000000000000000000000000000\n      dup2\n      mstore\n      0x04\n      add\n      mload(0x40)\n      dup1\n      swap2\n      sub\n      swap1\n      revert\n        /* \"contracts/AuraVault.sol\":4684:4746  if (receipts[receiptHash].amount != 0) revert InvalidReceipt() */\n    tag_129:\n        /* \"contracts/AuraVault.sol\":4782:4788  amount */\n      dup3\n        /* \"contracts/AuraVault.sol\":4759:4778  lockedForSettlement */\n      0x02\n      0x00\n        /* \"contracts/AuraVault.sol\":4759:4788  lockedForSettlement += amount */\n      dup3\n      dup3\n      sload\n      tag_130\n      swap2\n      swap1\n      tag_125\n      jump\t// in\n    tag_130:\n      swap3\n      pop\n      pop\n      dup2\n      swap1\n      sstore\n      pop\n        /* \"contracts/AuraVault.sol\":4823:4886  Receipt({ merchant: merchant, amount: amount, settled: false }) */\n      mload(0x40)\n      dup1\n      0x60\n      add\n      0x40\n      mstore\n      dup1\n        /* \"contracts/AuraVault.sol\":4843:4851  merchant */\n      dup6\n        /* \"contracts/AuraVault.sol\":4823:4886  Receipt({ merchant: merchant, amount: amount, settled: false }) */\n      0xffffffffffffffffffffffffffffffffffffffff\n      and\n      dup2\n      mstore\n      0x20\n      add\n        /* \"contracts/AuraVault.sol\":4861:4867  amount */\n      dup5\n        /* \"contracts/AuraVault.sol\":4823:4886  Receipt({ merchant: merchant, amount: amount, settled: false }) */\n      dup2\n      mstore\n      0x20\n      add\n        /* \"contracts/AuraVault.sol\":4878:4883  false */\n      0x00\n        /* \"contracts/AuraVault.sol\":4823:4886  Receipt({ merchant: merchant, amount: amount, settled: false }) */\n      iszero\n      iszero\n      dup2\n      mstore\n      pop\n        /* \"contracts/AuraVault.sol\":4799:4807  receipts */\n      0x05\n        /* \"contracts/AuraVault.sol\":4799:4820  receipts[receiptHash] */\n      0x00\n        /* \"contracts/AuraVault.sol\":4808:4819  receiptHash */\n      dup5\n        /* \"contracts/AuraVault.sol\":4799:4820  receipts[receiptHash] */\n      dup2\n      mstore\n      0x20\n      add\n      swap1\n      dup2\n      mstore\n      0x20\n      add\n      0x00\n      keccak256\n        /* \"contracts/AuraVault.sol\":4799:4886  receipts[receiptHash] = Receipt({ merchant: merchant, amount: amount, settled: false }) */\n      0x00\n      dup3\n      add\n      mload\n      dup2\n      0x00\n      add\n      exp(0x0100, 0x00)\n      dup2\n      sload\n      dup2\n      0xffffffffffffffffffffffffffffffffffffffff\n      mul\n      not\n      and\n      swap1\n      dup4\n      0xffffffffffffffffffffffffffffffffffffffff\n      and\n      mul\n      or\n      swap1\n      sstore\n      pop\n      0x20\n      dup3\n      add\n      mload\n      dup2\n      0x01\n      add\n      sstore\n      0x40\n      dup3\n      add\n      mload\n      dup2\n      0x02\n      add\n      exp(0x0100, 0x00)\n      dup2\n      sload\n      dup2\n      0xff\n      mul\n      not\n      and\n      swap1\n      dup4\n      iszero\n      iszero\n      mul\n      or\n      swap1\n      sstore\n      pop\n      swap1\n      pop\n      pop\n        /* \"contracts/AuraVault.sol\":4972:4988  merchantReceipts */\n      0x06\n        /* \"contracts/AuraVault.sol\":4972:4998  merchantReceipts[merchant] */\n      0x00\n        /* \"contracts/AuraVault.sol\":4989:4997  merchant */\n      dup6\n        /* \"contracts/AuraVault.sol\":4972:4998  merchantReceipts[merchant] */\n      0xffffffffffffffffffffffffffffffffffffffff\n      and\n      0xffffffffffffffffffffffffffffffffffffffff\n      and\n      dup2\n      mstore\n      0x20\n      add\n      swap1\n      dup2\n      mstore\n      0x20\n      add\n      0x00\n      keccak256\n        /* \"contracts/AuraVault.sol\":5004:5015  receiptHash */\n      dup3\n        /* \"contracts/AuraVault.sol\":4972:5016  merchantReceipts[merchant].push(receiptHash) */\n      swap1\n      dup1\n      0x01\n      dup2\n      sload\n      add\n      dup1\n      dup3\n      sstore\n      dup1\n      swap2\n      pop\n      pop\n      0x01\n      swap1\n      sub\n      swap1\n      0x00\n      mstore\n      keccak256(0x00, 0x20)\n      add\n      0x00\n      swap1\n      swap2\n      swap1\n      swap2\n      swap1\n      swap2\n      pop\n      sstore\n        /* \"contracts/AuraVault.sol\":5059:5067  merchant */\n      dup4\n        /* \"contracts/AuraVault.sol\":5034:5076  FundsLocked(receiptHash, merchant, amount) */\n      0xffffffffffffffffffffffffffffffffffffffff\n      and\n        /* \"contracts/AuraVault.sol\":5046:5057  receiptHash */\n      dup3\n        /* \"contracts/AuraVault.sol\":5034:5076  FundsLocked(receiptHash, merchant, amount) */\n      0x15144217405064631de951752111334f6d9db4be6cfff45346f7068ea857fcad\n        /* \"contracts/AuraVault.sol\":5069:5075  amount */\n      dup6\n        /* \"contracts/AuraVault.sol\":5034:5076  FundsLocked(receiptHash, merchant, amount) */\n      mload(0x40)\n      tag_132\n      swap2\n      swap1\n      tag_31\n      jump\t// in\n    tag_132:\n      mload(0x40)\n      dup1\n      swap2\n      sub\n      swap1\n      log3\n        /* \"contracts/AuraVault.sol\":4371:5084  {... */\n      pop\n        /* \"contracts/AuraVault.sol\":4279:5084  function lockFunds(address merchant, uint256 amount) external returns (bytes32 receiptHash) {... */\n      swap3\n      swap2\n      pop\n      pop\n      jump\t// out\n        /* \"contracts/AuraVault.sol\":2145:2421  function getDebugInfo(address user) external view returns (uint256 userBalance, uint256 vaultAllowance, address vaultAddress) {... */\n    tag_41:\n        /* \"contracts/AuraVault.sol\":2204:2223  uint256 userBalance */\n      0x00\n        /* \"contracts/AuraVault.sol\":2225:2247  uint256 vaultAllowance */\n      dup1\n        /* \"contracts/AuraVault.sol\":2249:2269  address vaultAddress */\n      0x00\n        /* \"contracts/AuraVault.sol\":2304:2308  usdc */\n      immutable(\"0x6bcaf047ba4c8ac400fca43393035242dd1aabda2d6068a0c51242b97224de8d\")\n        /* \"contracts/AuraVault.sol\":2304:2318  usdc.balanceOf */\n      0xffffffffffffffffffffffffffffffffffffffff\n      and\n      0x70a08231\n        /* \"contracts/AuraVault.sol\":2319:2323  user */\n      dup6\n        /* \"contracts/AuraVault.sol\":2304:2324  usdc.balanceOf(user) */\n      mload(0x40)\n      dup3\n      0xffffffff\n      and\n      0xe0\n      shl\n      dup2\n      mstore\n      0x04\n      add\n      tag_134\n      swap2\n      swap1\n      tag_64\n      jump\t// in\n    tag_134:\n      0x20\n      mload(0x40)\n      dup1\n      dup4\n      sub\n      dup2\n      dup7\n      gas\n      staticcall\n      iszero\n      dup1\n      iszero\n      tag_136\n      jumpi\n      returndatasize\n      0x00\n      dup1\n      returndatacopy\n      revert(0x00, returndatasize)\n    tag_136:\n      pop\n      pop\n      pop\n      pop\n      mload(0x40)\n      returndatasize\n      not(0x1f)\n      0x1f\n      dup3\n      add\n      and\n      dup3\n      add\n      dup1\n      0x40\n      mstore\n      pop\n      dup2\n      add\n      swap1\n      tag_137\n      swap2\n      swap1\n      tag_102\n      jump\t// in\n    tag_137:\n        /* \"contracts/AuraVault.sol\":2339:2343  usdc */\n      immutable(\"0x6bcaf047ba4c8ac400fca43393035242dd1aabda2d6068a0c51242b97224de8d\")\n        /* \"contracts/AuraVault.sol\":2339:2353  usdc.allowance */\n      0xffffffffffffffffffffffffffffffffffffffff\n      and\n      0xdd62ed3e\n        /* \"contracts/AuraVault.sol\":2354:2358  user */\n      dup7\n        /* \"contracts/AuraVault.sol\":2368:2372  this */\n      address\n        /* \"contracts/AuraVault.sol\":2339:2374  usdc.allowance(user, address(this)) */\n      mload(0x40)\n      dup4\n      0xffffffff\n      and\n      0xe0\n      shl\n      dup2\n      mstore\n      0x04\n      add\n      tag_138\n      swap3\n      swap2\n      swap1\n      tag_139\n      jump\t// in\n    tag_138:\n      0x20\n      mload(0x40)\n      dup1\n      dup4\n      sub\n      dup2\n      dup7\n      gas\n      staticcall\n      iszero\n      dup1\n      iszero\n      tag_141\n      jumpi\n      returndatasize\n      0x00\n      dup1\n      returndatacopy\n      revert(0x00, returndatasize)\n    tag_141:\n      pop\n      pop\n      pop\n      pop\n      mload(0x40)\n      returndatasize\n      not(0x1f)\n      0x1f\n      dup3\n      add\n      and\n      dup3\n      add\n      dup1\n      0x40\n      mstore\n      pop\n      dup2\n      add\n      swap1\n      tag_142\n      swap2\n      swap1\n      tag_102\n      jump\t// in\n    tag_142:\n        /* \"contracts/AuraVault.sol\":2397:2401  this */\n      address\n        /* \"contracts/AuraVault.sol\":2282:2413  return (... */\n      swap3\n      pop\n      swap3\n      pop\n      swap3\n      pop\n        /* \"contracts/AuraVault.sol\":2145:2421  function getDebugInfo(address user) external view returns (uint256 userBalance, uint256 vaultAllowance, address vaultAddress) {... */\n      swap2\n      swap4\n      swap1\n      swap3\n      pop\n      jump\t// out\n        /* \"contracts/AuraVault.sol\":2429:2686  function repay(uint256 amount) external {... */\n    tag_46:\n        /* \"contracts/AuraVault.sol\":2494:2495  0 */\n      0x00\n        /* \"contracts/AuraVault.sol\":2484:2490  amount */\n      dup2\n        /* \"contracts/AuraVault.sol\":2484:2495  amount == 0 */\n      sub\n        /* \"contracts/AuraVault.sol\":2480:2516  if (amount == 0) revert ZeroAmount() */\n      tag_144\n      jumpi\n        /* \"contracts/AuraVault.sol\":2504:2516  ZeroAmount() */\n      mload(0x40)\n      0x1f2a200500000000000000000000000000000000000000000000000000000000\n      dup2\n      mstore\n      0x04\n      add\n      mload(0x40)\n      dup1\n      swap2\n      sub\n      swap1\n      revert\n        /* \"contracts/AuraVault.sol\":2480:2516  if (amount == 0) revert ZeroAmount() */\n    tag_144:\n        /* \"contracts/AuraVault.sol\":2527:2534  bool ok */\n      0x00\n        /* \"contracts/AuraVault.sol\":2537:2541  usdc */\n      immutable(\"0x6bcaf047ba4c8ac400fca43393035242dd1aabda2d6068a0c51242b97224de8d\")\n        /* \"contracts/AuraVault.sol\":2537:2554  usdc.transferFrom */\n      0xffffffffffffffffffffffffffffffffffffffff\n      and\n      0x23b872dd\n        /* \"contracts/AuraVault.sol\":2555:2565  msg.sender */\n      caller\n        /* \"contracts/AuraVault.sol\":2575:2579  this */\n      address\n        /* \"contracts/AuraVault.sol\":2582:2588  amount */\n      dup6\n        /* \"contracts/AuraVault.sol\":2537:2589  usdc.transferFrom(msg.sender, address(this), amount) */\n      mload(0x40)\n      dup5\n      0xffffffff\n      and\n      0xe0\n      shl\n      dup2\n      mstore\n      0x04\n      add\n      tag_145\n      swap4\n      swap3\n      swap2\n      swap1\n      tag_146\n      jump\t// in\n    tag_145:\n      0x20\n      mload(0x40)\n      dup1\n      dup4\n      sub\n      dup2\n      0x00\n      dup8\n      gas\n      call\n      iszero\n      dup1\n      iszero\n      tag_148\n      jumpi\n      returndatasize\n      0x00\n      dup1\n      returndatacopy\n      revert(0x00, returndatasize)\n    tag_148:\n      pop\n      pop\n      pop\n      pop\n      mload(0x40)\n      returndatasize\n      not(0x1f)\n      0x1f\n      dup3\n      add\n      and\n      dup3\n      add\n      dup1\n      0x40\n      mstore\n      pop\n      dup2\n      add\n      swap1\n      tag_149\n      swap2\n      swap1\n      tag_115\n      jump\t// in\n    tag_149:\n        /* \"contracts/AuraVault.sol\":2527:2589  bool ok = usdc.transferFrom(msg.sender, address(this), amount) */\n      swap1\n      pop\n        /* \"contracts/AuraVault.sol\":2605:2607  ok */\n      dup1\n        /* \"contracts/AuraVault.sol\":2600:2632  if (!ok) revert TransferFailed() */\n      tag_150\n      jumpi\n        /* \"contracts/AuraVault.sol\":2616:2632  TransferFailed() */\n      mload(0x40)\n      0x90b8ec1800000000000000000000000000000000000000000000000000000000\n      dup2\n      mstore\n      0x04\n      add\n      mload(0x40)\n      dup1\n      swap2\n      sub\n      swap1\n      revert\n        /* \"contracts/AuraVault.sol\":2600:2632  if (!ok) revert TransferFailed() */\n    tag_150:\n        /* \"contracts/AuraVault.sol\":2659:2669  msg.sender */\n      caller\n        /* \"contracts/AuraVault.sol\":2648:2678  LoanRepaid(msg.sender, amount) */\n      0xffffffffffffffffffffffffffffffffffffffff\n      and\n      0xc200a1f31dd659e356e0f112c82558e25f49f7b0f84438691cd96f5cb3558823\n        /* \"contracts/AuraVault.sol\":2671:2677  amount */\n      dup4\n        /* \"contracts/AuraVault.sol\":2648:2678  LoanRepaid(msg.sender, amount) */\n      mload(0x40)\n      tag_151\n      swap2\n      swap1\n      tag_31\n      jump\t// in\n    tag_151:\n      mload(0x40)\n      dup1\n      swap2\n      sub\n      swap1\n      log2\n        /* \"contracts/AuraVault.sol\":2469:2686  {... */\n      pop\n        /* \"contracts/AuraVault.sol\":2429:2686  function repay(uint256 amount) external {... */\n      pop\n      jump\t// out\n        /* \"contracts/AuraVault.sol\":2694:2894  function setCreditLimit(bytes32 identityHash, uint256 limitScore) external onlyOracle {... */\n    tag_50:\n        /* \"contracts/AuraVault.sol\":2088:2094  oracle */\n      0x00\n      dup1\n      sload\n      swap1\n      0x0100\n      exp\n      swap1\n      div\n      0xffffffffffffffffffffffffffffffffffffffff\n      and\n        /* \"contracts/AuraVault.sol\":2074:2094  msg.sender != oracle */\n      0xffffffffffffffffffffffffffffffffffffffff\n      and\n        /* \"contracts/AuraVault.sol\":2074:2084  msg.sender */\n      caller\n        /* \"contracts/AuraVault.sol\":2074:2094  msg.sender != oracle */\n      0xffffffffffffffffffffffffffffffffffffffff\n      and\n      eq\n        /* \"contracts/AuraVault.sol\":2070:2117  if (msg.sender != oracle) revert Unauthorized() */\n      tag_153\n      jumpi\n        /* \"contracts/AuraVault.sol\":2103:2117  Unauthorized() */\n      mload(0x40)\n      0x82b4290000000000000000000000000000000000000000000000000000000000\n      dup2\n      mstore\n      0x04\n      add\n      mload(0x40)\n      dup1\n      swap2\n      sub\n      swap1\n      revert\n        /* \"contracts/AuraVault.sol\":2070:2117  if (msg.sender != oracle) revert Unauthorized() */\n    tag_153:\n        /* \"contracts/AuraVault.sol\":2820:2830  limitScore */\n      dup1\n        /* \"contracts/AuraVault.sol\":2791:2803  creditLimits */\n      0x04\n        /* \"contracts/AuraVault.sol\":2791:2817  creditLimits[identityHash] */\n      0x00\n        /* \"contracts/AuraVault.sol\":2804:2816  identityHash */\n      dup5\n        /* \"contracts/AuraVault.sol\":2791:2817  creditLimits[identityHash] */\n      dup2\n      mstore\n      0x20\n      add\n      swap1\n      dup2\n      mstore\n      0x20\n      add\n      0x00\n      keccak256\n        /* \"contracts/AuraVault.sol\":2791:2830  creditLimits[identityHash] = limitScore */\n      dup2\n      swap1\n      sstore\n      pop\n        /* \"contracts/AuraVault.sol\":2861:2873  identityHash */\n      dup2\n        /* \"contracts/AuraVault.sol\":2846:2886  CreditLimitSet(identityHash, limitScore) */\n      0xc3f17324b83b26d327f1cfbd9ca233d915225309762161729642a4a04c963a4a\n        /* \"contracts/AuraVault.sol\":2875:2885  limitScore */\n      dup3\n        /* \"contracts/AuraVault.sol\":2846:2886  CreditLimitSet(identityHash, limitScore) */\n      mload(0x40)\n      tag_155\n      swap2\n      swap1\n      tag_31\n      jump\t// in\n    tag_155:\n      mload(0x40)\n      dup1\n      swap2\n      sub\n      swap1\n      log2\n        /* \"contracts/AuraVault.sol\":2694:2894  function setCreditLimit(bytes32 identityHash, uint256 limitScore) external onlyOracle {... */\n      pop\n      pop\n      jump\t// out\n        /* \"contracts/AuraVault.sol\":461:489  IERC20 public immutable usdc */\n    tag_52:\n      immutable(\"0x6bcaf047ba4c8ac400fca43393035242dd1aabda2d6068a0c51242b97224de8d\")\n      dup2\n      jump\t// out\n        /* \"contracts/AuraVault.sol\":526:550  uint256 public totalLent */\n    tag_56:\n      sload(0x01)\n      dup2\n      jump\t// out\n        /* \"contracts/AuraVault.sol\":3485:3623  function setOracle(address _newOracle) external onlyOracle {... */\n    tag_60:\n        /* \"contracts/AuraVault.sol\":2088:2094  oracle */\n      0x00\n      dup1\n      sload\n      swap1\n      0x0100\n      exp\n      swap1\n      div\n      0xffffffffffffffffffffffffffffffffffffffff\n      and\n        /* \"contracts/AuraVault.sol\":2074:2094  msg.sender != oracle */\n      0xffffffffffffffffffffffffffffffffffffffff\n      and\n        /* \"contracts/AuraVault.sol\":2074:2084  msg.sender */\n      caller\n        /* \"contracts/AuraVault.sol\":2074:2094  msg.sender != oracle */\n      0xffffffffffffffffffffffffffffffffffffffff\n      and\n      eq\n        /* \"contracts/AuraVault.sol\":2070:2117  if (msg.sender != oracle) revert Unauthorized() */\n      tag_157\n      jumpi\n        /* \"contracts/AuraVault.sol\":2103:2117  Unauthorized() */\n      mload(0x40)\n      0x82b4290000000000000000000000000000000000000000000000000000000000\n      dup2\n      mstore\n      0x04\n      add\n      mload(0x40)\n      dup1\n      swap2\n      sub\n      swap1\n      revert\n        /* \"contracts/AuraVault.sol\":2070:2117  if (msg.sender != oracle) revert Unauthorized() */\n    tag_157:\n        /* \"contracts/AuraVault.sol\":3564:3574  _newOracle */\n      dup1\n        /* \"contracts/AuraVault.sol\":3555:3561  oracle */\n      0x00\n      dup1\n        /* \"contracts/AuraVault.sol\":3555:3574  oracle = _newOracle */\n      0x0100\n      exp\n      dup2\n      sload\n      dup2\n      0xffffffffffffffffffffffffffffffffffffffff\n      mul\n      not\n      and\n      swap1\n      dup4\n      0xffffffffffffffffffffffffffffffffffffffff\n      and\n      mul\n      or\n      swap1\n      sstore\n      pop\n        /* \"contracts/AuraVault.sol\":3604:3614  _newOracle */\n      dup1\n        /* \"contracts/AuraVault.sol\":3590:3615  OracleUpdated(_newOracle) */\n      0xffffffffffffffffffffffffffffffffffffffff\n      and\n      0x3df77beb5db05fcdd70a30fc8adf3f83f9501b68579455adbd100b8180940394\n      mload(0x40)\n      mload(0x40)\n      dup1\n      swap2\n      sub\n      swap1\n      log2\n        /* \"contracts/AuraVault.sol\":3485:3623  function setOracle(address _newOracle) external onlyOracle {... */\n      pop\n      jump\t// out\n        /* \"contracts/AuraVault.sol\":496:517  address public oracle */\n    tag_62:\n      0x00\n      dup1\n      sload\n      swap1\n      0x0100\n      exp\n      swap1\n      div\n      0xffffffffffffffffffffffffffffffffffffffff\n      and\n      dup2\n      jump\t// out\n        /* \"contracts/AuraVault.sol\":5381:5895  function settleReceipt(bytes32 receiptHash) external {... */\n    tag_68:\n        /* \"contracts/AuraVault.sol\":5445:5462  Receipt storage r */\n      0x00\n        /* \"contracts/AuraVault.sol\":5465:5473  receipts */\n      0x05\n        /* \"contracts/AuraVault.sol\":5465:5486  receipts[receiptHash] */\n      0x00\n        /* \"contracts/AuraVault.sol\":5474:5485  receiptHash */\n      dup4\n        /* \"contracts/AuraVault.sol\":5465:5486  receipts[receiptHash] */\n      dup2\n      mstore\n      0x20\n      add\n      swap1\n      dup2\n      mstore\n      0x20\n      add\n      0x00\n      keccak256\n        /* \"contracts/AuraVault.sol\":5445:5486  Receipt storage r = receipts[receiptHash] */\n      swap1\n      pop\n        /* \"contracts/AuraVault.sol\":5513:5514  0 */\n      0x00\n        /* \"contracts/AuraVault.sol\":5501:5502  r */\n      dup2\n        /* \"contracts/AuraVault.sol\":5501:5509  r.amount */\n      0x01\n      add\n      sload\n        /* \"contracts/AuraVault.sol\":5501:5514  r.amount == 0 */\n      sub\n        /* \"contracts/AuraVault.sol\":5497:5539  if (r.amount == 0) revert InvalidReceipt() */\n      tag_160\n      jumpi\n        /* \"contracts/AuraVault.sol\":5523:5539  InvalidReceipt() */\n      mload(0x40)\n      0xc0098aac00000000000000000000000000000000000000000000000000000000\n      dup2\n      mstore\n      0x04\n      add\n      mload(0x40)\n      dup1\n      swap2\n      sub\n      swap1\n      revert\n        /* \"contracts/AuraVault.sol\":5497:5539  if (r.amount == 0) revert InvalidReceipt() */\n    tag_160:\n        /* \"contracts/AuraVault.sol\":5554:5555  r */\n      dup1\n        /* \"contracts/AuraVault.sol\":5554:5563  r.settled */\n      0x02\n      add\n      0x00\n      swap1\n      sload\n      swap1\n      0x0100\n      exp\n      swap1\n      div\n      0xff\n      and\n        /* \"contracts/AuraVault.sol\":5550:5588  if (r.settled) revert AlreadySettled() */\n      iszero\n      tag_161\n      jumpi\n        /* \"contracts/AuraVault.sol\":5572:5588  AlreadySettled() */\n      mload(0x40)\n      0x560ff90000000000000000000000000000000000000000000000000000000000\n      dup2\n      mstore\n      0x04\n      add\n      mload(0x40)\n      dup1\n      swap2\n      sub\n      swap1\n      revert\n        /* \"contracts/AuraVault.sol\":5550:5588  if (r.settled) revert AlreadySettled() */\n    tag_161:\n        /* \"contracts/AuraVault.sol\":5617:5618  r */\n      dup1\n        /* \"contracts/AuraVault.sol\":5617:5627  r.merchant */\n      0x00\n      add\n      0x00\n      swap1\n      sload\n      swap1\n      0x0100\n      exp\n      swap1\n      div\n      0xffffffffffffffffffffffffffffffffffffffff\n      and\n        /* \"contracts/AuraVault.sol\":5603:5627  msg.sender != r.merchant */\n      0xffffffffffffffffffffffffffffffffffffffff\n      and\n        /* \"contracts/AuraVault.sol\":5603:5613  msg.sender */\n      caller\n        /* \"contracts/AuraVault.sol\":5603:5627  msg.sender != r.merchant */\n      0xffffffffffffffffffffffffffffffffffffffff\n      and\n      eq\n        /* \"contracts/AuraVault.sol\":5599:5650  if (msg.sender != r.merchant) revert Unauthorized() */\n      tag_162\n      jumpi\n        /* \"contracts/AuraVault.sol\":5636:5650  Unauthorized() */\n      mload(0x40)\n      0x82b4290000000000000000000000000000000000000000000000000000000000\n      dup2\n      mstore\n      0x04\n      add\n      mload(0x40)\n      dup1\n      swap2\n      sub\n      swap1\n      revert\n        /* \"contracts/AuraVault.sol\":5599:5650  if (msg.sender != r.merchant) revert Unauthorized() */\n    tag_162:\n        /* \"contracts/AuraVault.sol\":5686:5687  r */\n      dup1\n        /* \"contracts/AuraVault.sol\":5686:5694  r.amount */\n      0x01\n      add\n      sload\n        /* \"contracts/AuraVault.sol\":5663:5682  lockedForSettlement */\n      0x02\n      0x00\n        /* \"contracts/AuraVault.sol\":5663:5694  lockedForSettlement -= r.amount */\n      dup3\n      dup3\n      sload\n      tag_163\n      swap2\n      swap1\n      tag_106\n      jump\t// in\n    tag_163:\n      swap3\n      pop\n      pop\n      dup2\n      swap1\n      sstore\n      pop\n        /* \"contracts/AuraVault.sol\":5717:5721  true */\n      0x01\n        /* \"contracts/AuraVault.sol\":5705:5706  r */\n      dup2\n        /* \"contracts/AuraVault.sol\":5705:5714  r.settled */\n      0x02\n      add\n      0x00\n        /* \"contracts/AuraVault.sol\":5705:5721  r.settled = true */\n      0x0100\n      exp\n      dup2\n      sload\n      dup2\n      0xff\n      mul\n      not\n      and\n      swap1\n      dup4\n      iszero\n      iszero\n      mul\n      or\n      swap1\n      sstore\n      pop\n        /* \"contracts/AuraVault.sol\":5732:5739  bool ok */\n      0x00\n        /* \"contracts/AuraVault.sol\":5742:5746  usdc */\n      immutable(\"0x6bcaf047ba4c8ac400fca43393035242dd1aabda2d6068a0c51242b97224de8d\")\n        /* \"contracts/AuraVault.sol\":5742:5755  usdc.transfer */\n      0xffffffffffffffffffffffffffffffffffffffff\n      and\n      0xa9059cbb\n        /* \"contracts/AuraVault.sol\":5756:5757  r */\n      dup4\n        /* \"contracts/AuraVault.sol\":5756:5766  r.merchant */\n      0x00\n      add\n      0x00\n      swap1\n      sload\n      swap1\n      0x0100\n      exp\n      swap1\n      div\n      0xffffffffffffffffffffffffffffffffffffffff\n      and\n        /* \"contracts/AuraVault.sol\":5768:5769  r */\n      dup5\n        /* \"contracts/AuraVault.sol\":5768:5776  r.amount */\n      0x01\n      add\n      sload\n        /* \"contracts/AuraVault.sol\":5742:5777  usdc.transfer(r.merchant, r.amount) */\n      mload(0x40)\n      dup4\n      0xffffffff\n      and\n      0xe0\n      shl\n      dup2\n      mstore\n      0x04\n      add\n      tag_164\n      swap3\n      swap2\n      swap1\n      tag_111\n      jump\t// in\n    tag_164:\n      0x20\n      mload(0x40)\n      dup1\n      dup4\n      sub\n      dup2\n      0x00\n      dup8\n      gas\n      call\n      iszero\n      dup1\n      iszero\n      tag_166\n      jumpi\n      returndatasize\n      0x00\n      dup1\n      returndatacopy\n      revert(0x00, returndatasize)\n    tag_166:\n      pop\n      pop\n      pop\n      pop\n      mload(0x40)\n      returndatasize\n      not(0x1f)\n      0x1f\n      dup3\n      add\n      and\n      dup3\n      add\n      dup1\n      0x40\n      mstore\n      pop\n      dup2\n      add\n      swap1\n      tag_167\n      swap2\n      swap1\n      tag_115\n      jump\t// in\n    tag_167:\n        /* \"contracts/AuraVault.sol\":5732:5777  bool ok = usdc.transfer(r.merchant, r.amount) */\n      swap1\n      pop\n        /* \"contracts/AuraVault.sol\":5793:5795  ok */\n      dup1\n        /* \"contracts/AuraVault.sol\":5788:5820  if (!ok) revert TransferFailed() */\n      tag_168\n      jumpi\n        /* \"contracts/AuraVault.sol\":5804:5820  TransferFailed() */\n      mload(0x40)\n      0x90b8ec1800000000000000000000000000000000000000000000000000000000\n      dup2\n      mstore\n      0x04\n      add\n      mload(0x40)\n      dup1\n      swap2\n      sub\n      swap1\n      revert\n        /* \"contracts/AuraVault.sol\":5788:5820  if (!ok) revert TransferFailed() */\n    tag_168:\n        /* \"contracts/AuraVault.sol\":5866:5867  r */\n      dup2\n        /* \"contracts/AuraVault.sol\":5866:5876  r.merchant */\n      0x00\n      add\n      0x00\n      swap1\n      sload\n      swap1\n      0x0100\n      exp\n      swap1\n      div\n      0xffffffffffffffffffffffffffffffffffffffff\n      and\n        /* \"contracts/AuraVault.sol\":5838:5887  ReceiptSettled(receiptHash, r.merchant, r.amount) */\n      0xffffffffffffffffffffffffffffffffffffffff\n      and\n        /* \"contracts/AuraVault.sol\":5853:5864  receiptHash */\n      dup4\n        /* \"contracts/AuraVault.sol\":5838:5887  ReceiptSettled(receiptHash, r.merchant, r.amount) */\n      0xb47d398c825a0f71f49c4fded299540689e40b98b4095dc747dee95312bf642d\n        /* \"contracts/AuraVault.sol\":5878:5879  r */\n      dup5\n        /* \"contracts/AuraVault.sol\":5878:5886  r.amount */\n      0x01\n      add\n      sload\n        /* \"contracts/AuraVault.sol\":5838:5887  ReceiptSettled(receiptHash, r.merchant, r.amount) */\n      mload(0x40)\n      tag_169\n      swap2\n      swap1\n      tag_31\n      jump\t// in\n    tag_169:\n      mload(0x40)\n      dup1\n      swap2\n      sub\n      swap1\n      log3\n        /* \"contracts/AuraVault.sol\":5434:5895  {... */\n      pop\n      pop\n        /* \"contracts/AuraVault.sol\":5381:5895  function settleReceipt(bytes32 receiptHash) external {... */\n      pop\n      jump\t// out\n        /* \"contracts/AuraVault.sol\":5092:5373  function verifyReceipt(bytes32 receiptHash) external view returns (address merchant, uint256 amount, bool claimable) {... */\n    tag_71:\n        /* \"contracts/AuraVault.sol\":5159:5175  address merchant */\n      0x00\n        /* \"contracts/AuraVault.sol\":5177:5191  uint256 amount */\n      dup1\n        /* \"contracts/AuraVault.sol\":5193:5207  bool claimable */\n      0x00\n        /* \"contracts/AuraVault.sol\":5220:5236  Receipt memory r */\n      dup1\n        /* \"contracts/AuraVault.sol\":5239:5247  receipts */\n      0x05\n        /* \"contracts/AuraVault.sol\":5239:5260  receipts[receiptHash] */\n      0x00\n        /* \"contracts/AuraVault.sol\":5248:5259  receiptHash */\n      dup7\n        /* \"contracts/AuraVault.sol\":5239:5260  receipts[receiptHash] */\n      dup2\n      mstore\n      0x20\n      add\n      swap1\n      dup2\n      mstore\n      0x20\n      add\n      0x00\n      keccak256\n        /* \"contracts/AuraVault.sol\":5220:5260  Receipt memory r = receipts[receiptHash] */\n      mload(0x40)\n      dup1\n      0x60\n      add\n      0x40\n      mstore\n      swap1\n      dup2\n      0x00\n      dup3\n      add\n      0x00\n      swap1\n      sload\n      swap1\n      0x0100\n      exp\n      swap1\n      div\n      0xffffffffffffffffffffffffffffffffffffffff\n      and\n      0xffffffffffffffffffffffffffffffffffffffff\n      and\n      0xffffffffffffffffffffffffffffffffffffffff\n      and\n      dup2\n      mstore\n      0x20\n      add\n      0x01\n      dup3\n      add\n      sload\n      dup2\n      mstore\n      0x20\n      add\n      0x02\n      dup3\n      add\n      0x00\n      swap1\n      sload\n      swap1\n      0x0100\n      exp\n      swap1\n      div\n      0xff\n      and\n      iszero\n      iszero\n      iszero\n      iszero\n      dup2\n      mstore\n      pop\n      pop\n      swap1\n      pop\n        /* \"contracts/AuraVault.sol\":5287:5288  0 */\n      0x00\n        /* \"contracts/AuraVault.sol\":5275:5276  r */\n      dup2\n        /* \"contracts/AuraVault.sol\":5275:5283  r.amount */\n      0x20\n      add\n      mload\n        /* \"contracts/AuraVault.sol\":5275:5288  r.amount == 0 */\n      sub\n        /* \"contracts/AuraVault.sol\":5271:5313  if (r.amount == 0) revert InvalidReceipt() */\n      tag_171\n      jumpi\n        /* \"contracts/AuraVault.sol\":5297:5313  InvalidReceipt() */\n      mload(0x40)\n      0xc0098aac00000000000000000000000000000000000000000000000000000000\n      dup2\n      mstore\n      0x04\n      add\n      mload(0x40)\n      dup1\n      swap2\n      sub\n      swap1\n      revert\n        /* \"contracts/AuraVault.sol\":5271:5313  if (r.amount == 0) revert InvalidReceipt() */\n    tag_171:\n        /* \"contracts/AuraVault.sol\":5332:5333  r */\n      dup1\n        /* \"contracts/AuraVault.sol\":5332:5342  r.merchant */\n      0x00\n      add\n      mload\n        /* \"contracts/AuraVault.sol\":5344:5345  r */\n      dup2\n        /* \"contracts/AuraVault.sol\":5344:5352  r.amount */\n      0x20\n      add\n      mload\n        /* \"contracts/AuraVault.sol\":5355:5356  r */\n      dup3\n        /* \"contracts/AuraVault.sol\":5355:5364  r.settled */\n      0x40\n      add\n      mload\n        /* \"contracts/AuraVault.sol\":5354:5364  !r.settled */\n      iszero\n        /* \"contracts/AuraVault.sol\":5324:5365  return (r.merchant, r.amount, !r.settled) */\n      swap4\n      pop\n      swap4\n      pop\n      swap4\n      pop\n      pop\n        /* \"contracts/AuraVault.sol\":5092:5373  function verifyReceipt(bytes32 receiptHash) external view returns (address merchant, uint256 amount, bool claimable) {... */\n      swap2\n      swap4\n      swap1\n      swap3\n      pop\n      jump\t// out\n        /* \"contracts/AuraVault.sol\":600:649  mapping(address => uint256) public lenderBalances */\n    tag_76:\n      mstore(0x20, 0x03)\n      dup1\n      0x00\n      mstore\n      keccak256(0x00, 0x40)\n      0x00\n      swap2\n      pop\n      swap1\n      pop\n      sload\n      dup2\n      jump\t// out\n        /* \"contracts/AuraVault.sol\":964:1017  mapping(address => bytes32[]) public merchantReceipts */\n    tag_80:\n      mstore(0x20, 0x06)\n      dup2\n      0x00\n      mstore\n      keccak256(0x00, 0x40)\n      dup2\n      dup2\n      sload\n      dup2\n      lt\n      tag_172\n      jumpi\n      0x00\n      dup1\n      revert\n    tag_172:\n      swap1\n      0x00\n      mstore\n      keccak256(0x00, 0x20)\n      add\n      0x00\n      swap2\n      pop\n      swap2\n      pop\n      pop\n      sload\n      dup2\n      jump\t// out\n        /* \"contracts/AuraVault.sol\":6037:7139  function claimAll() external {... */\n    tag_83:\n        /* \"contracts/AuraVault.sol\":6077:6104  bytes32[] memory myReceipts */\n      0x00\n        /* \"contracts/AuraVault.sol\":6107:6123  merchantReceipts */\n      0x06\n        /* \"contracts/AuraVault.sol\":6107:6135  merchantReceipts[msg.sender] */\n      0x00\n        /* \"contracts/AuraVault.sol\":6124:6134  msg.sender */\n      caller\n        /* \"contracts/AuraVault.sol\":6107:6135  merchantReceipts[msg.sender] */\n      0xffffffffffffffffffffffffffffffffffffffff\n      and\n      0xffffffffffffffffffffffffffffffffffffffff\n      and\n      dup2\n      mstore\n      0x20\n      add\n      swap1\n      dup2\n      mstore\n      0x20\n      add\n      0x00\n      keccak256\n        /* \"contracts/AuraVault.sol\":6077:6135  bytes32[] memory myReceipts = merchantReceipts[msg.sender] */\n      dup1\n      sload\n      dup1\n      0x20\n      mul\n      0x20\n      add\n      mload(0x40)\n      swap1\n      dup2\n      add\n      0x40\n      mstore\n      dup1\n      swap3\n      swap2\n      swap1\n      dup2\n      dup2\n      mstore\n      0x20\n      add\n      dup3\n      dup1\n      sload\n      dup1\n      iszero\n      tag_175\n      jumpi\n      0x20\n      mul\n      dup3\n      add\n      swap2\n      swap1\n      0x00\n      mstore\n      keccak256(0x00, 0x20)\n      swap1\n    tag_176:\n      dup2\n      sload\n      dup2\n      mstore\n      0x20\n      add\n      swap1\n      0x01\n      add\n      swap1\n      dup1\n      dup4\n      gt\n      tag_176\n      jumpi\n    tag_175:\n      pop\n      pop\n      pop\n      pop\n      pop\n      swap1\n      pop\n        /* \"contracts/AuraVault.sol\":6146:6165  uint256 totalPayout */\n      0x00\n        /* \"contracts/AuraVault.sol\":6180:6193  uint256 count */\n      dup1\n        /* \"contracts/AuraVault.sol\":6215:6224  uint256 i */\n      0x00\n        /* \"contracts/AuraVault.sol\":6210:6834  for (uint256 i = 0; i < myReceipts.length; i++) {... */\n    tag_177:\n        /* \"contracts/AuraVault.sol\":6234:6244  myReceipts */\n      dup4\n        /* \"contracts/AuraVault.sol\":6234:6251  myReceipts.length */\n      mload\n        /* \"contracts/AuraVault.sol\":6230:6231  i */\n      dup2\n        /* \"contracts/AuraVault.sol\":6230:6251  i < myReceipts.length */\n      lt\n        /* \"contracts/AuraVault.sol\":6210:6834  for (uint256 i = 0; i < myReceipts.length; i++) {... */\n      iszero\n      tag_178\n      jumpi\n        /* \"contracts/AuraVault.sol\":6273:6286  bytes32 rHash */\n      0x00\n        /* \"contracts/AuraVault.sol\":6289:6299  myReceipts */\n      dup5\n        /* \"contracts/AuraVault.sol\":6300:6301  i */\n      dup3\n        /* \"contracts/AuraVault.sol\":6289:6302  myReceipts[i] */\n      dup2\n      mload\n      dup2\n      lt\n      tag_180\n      jumpi\n      tag_181\n      tag_182\n      jump\t// in\n    tag_181:\n    tag_180:\n      0x20\n      mul\n      0x20\n      add\n      add\n      mload\n        /* \"contracts/AuraVault.sol\":6273:6302  bytes32 rHash = myReceipts[i] */\n      swap1\n      pop\n        /* \"contracts/AuraVault.sol\":6317:6334  Receipt storage r */\n      0x00\n        /* \"contracts/AuraVault.sol\":6337:6345  receipts */\n      0x05\n        /* \"contracts/AuraVault.sol\":6337:6352  receipts[rHash] */\n      0x00\n        /* \"contracts/AuraVault.sol\":6346:6351  rHash */\n      dup4\n        /* \"contracts/AuraVault.sol\":6337:6352  receipts[rHash] */\n      dup2\n      mstore\n      0x20\n      add\n      swap1\n      dup2\n      mstore\n      0x20\n      add\n      0x00\n      keccak256\n        /* \"contracts/AuraVault.sol\":6317:6352  Receipt storage r = receipts[rHash] */\n      swap1\n      pop\n        /* \"contracts/AuraVault.sol\":6469:6470  0 */\n      0x00\n        /* \"contracts/AuraVault.sol\":6458:6459  r */\n      dup2\n        /* \"contracts/AuraVault.sol\":6458:6466  r.amount */\n      0x01\n      add\n      sload\n        /* \"contracts/AuraVault.sol\":6458:6470  r.amount > 0 */\n      gt\n        /* \"contracts/AuraVault.sol\":6458:6498  r.amount > 0 && r.merchant == msg.sender */\n      dup1\n      iszero\n      tag_183\n      jumpi\n      pop\n        /* \"contracts/AuraVault.sol\":6488:6498  msg.sender */\n      caller\n        /* \"contracts/AuraVault.sol\":6474:6498  r.merchant == msg.sender */\n      0xffffffffffffffffffffffffffffffffffffffff\n      and\n        /* \"contracts/AuraVault.sol\":6474:6475  r */\n      dup2\n        /* \"contracts/AuraVault.sol\":6474:6484  r.merchant */\n      0x00\n      add\n      0x00\n      swap1\n      sload\n      swap1\n      0x0100\n      exp\n      swap1\n      div\n      0xffffffffffffffffffffffffffffffffffffffff\n      and\n        /* \"contracts/AuraVault.sol\":6474:6498  r.merchant == msg.sender */\n      0xffffffffffffffffffffffffffffffffffffffff\n      and\n      eq\n        /* \"contracts/AuraVault.sol\":6458:6498  r.amount > 0 && r.merchant == msg.sender */\n    tag_183:\n        /* \"contracts/AuraVault.sol\":6458:6512  r.amount > 0 && r.merchant == msg.sender && !r.settled */\n      dup1\n      iszero\n      tag_184\n      jumpi\n      pop\n        /* \"contracts/AuraVault.sol\":6503:6504  r */\n      dup1\n        /* \"contracts/AuraVault.sol\":6503:6512  r.settled */\n      0x02\n      add\n      0x00\n      swap1\n      sload\n      swap1\n      0x0100\n      exp\n      swap1\n      div\n      0xff\n      and\n        /* \"contracts/AuraVault.sol\":6502:6512  !r.settled */\n      iszero\n        /* \"contracts/AuraVault.sol\":6458:6512  r.amount > 0 && r.merchant == msg.sender && !r.settled */\n    tag_184:\n        /* \"contracts/AuraVault.sol\":6454:6823  if (r.amount > 0 && r.merchant == msg.sender && !r.settled) {... */\n      iszero\n      tag_185\n      jumpi\n        /* \"contracts/AuraVault.sol\":6545:6549  true */\n      0x01\n        /* \"contracts/AuraVault.sol\":6533:6534  r */\n      dup2\n        /* \"contracts/AuraVault.sol\":6533:6542  r.settled */\n      0x02\n      add\n      0x00\n        /* \"contracts/AuraVault.sol\":6533:6549  r.settled = true */\n      0x0100\n      exp\n      dup2\n      sload\n      dup2\n      0xff\n      mul\n      not\n      and\n      swap1\n      dup4\n      iszero\n      iszero\n      mul\n      or\n      swap1\n      sstore\n      pop\n        /* \"contracts/AuraVault.sol\":6591:6592  r */\n      dup1\n        /* \"contracts/AuraVault.sol\":6591:6599  r.amount */\n      0x01\n      add\n      sload\n        /* \"contracts/AuraVault.sol\":6568:6587  lockedForSettlement */\n      0x02\n      0x00\n        /* \"contracts/AuraVault.sol\":6568:6599  lockedForSettlement -= r.amount */\n      dup3\n      dup3\n      sload\n      tag_186\n      swap2\n      swap1\n      tag_106\n      jump\t// in\n    tag_186:\n      swap3\n      pop\n      pop\n      dup2\n      swap1\n      sstore\n      pop\n        /* \"contracts/AuraVault.sol\":6633:6634  r */\n      dup1\n        /* \"contracts/AuraVault.sol\":6633:6641  r.amount */\n      0x01\n      add\n      sload\n        /* \"contracts/AuraVault.sol\":6618:6641  totalPayout += r.amount */\n      dup6\n      tag_187\n      swap2\n      swap1\n      tag_125\n      jump\t// in\n    tag_187:\n      swap5\n      pop\n        /* \"contracts/AuraVault.sol\":6660:6667  count++ */\n      dup4\n      dup1\n      tag_188\n      swap1\n      tag_189\n      jump\t// in\n    tag_188:\n      swap5\n      pop\n      pop\n        /* \"contracts/AuraVault.sol\":6786:6796  msg.sender */\n      caller\n        /* \"contracts/AuraVault.sol\":6764:6807  ReceiptSettled(rHash, msg.sender, r.amount) */\n      0xffffffffffffffffffffffffffffffffffffffff\n      and\n        /* \"contracts/AuraVault.sol\":6779:6784  rHash */\n      dup3\n        /* \"contracts/AuraVault.sol\":6764:6807  ReceiptSettled(rHash, msg.sender, r.amount) */\n      0xb47d398c825a0f71f49c4fded299540689e40b98b4095dc747dee95312bf642d\n        /* \"contracts/AuraVault.sol\":6798:6799  r */\n      dup4\n        /* \"contracts/AuraVault.sol\":6798:6806  r.amount */\n      0x01\n      add\n      sload\n        /* \"contracts/AuraVault.sol\":6764:6807  ReceiptSettled(rHash, msg.sender, r.amount) */\n      mload(0x40)\n      tag_190\n      swap2\n      swap1\n      tag_31\n      jump\t// in\n    tag_190:\n      mload(0x40)\n      dup1\n      swap2\n      sub\n      swap1\n      log3\n        /* \"contracts/AuraVault.sol\":6454:6823  if (r.amount > 0 && r.merchant == msg.sender && !r.settled) {... */\n    tag_185:\n        /* \"contracts/AuraVault.sol\":6258:6834  {... */\n      pop\n      pop\n        /* \"contracts/AuraVault.sol\":6253:6256  i++ */\n      dup1\n      dup1\n      0x01\n      add\n      swap2\n      pop\n      pop\n        /* \"contracts/AuraVault.sol\":6210:6834  for (uint256 i = 0; i < myReceipts.length; i++) {... */\n      jump(tag_177)\n    tag_178:\n      pop\n        /* \"contracts/AuraVault.sol\":6865:6866  0 */\n      0x00\n        /* \"contracts/AuraVault.sol\":6850:6861  totalPayout */\n      dup3\n        /* \"contracts/AuraVault.sol\":6850:6866  totalPayout == 0 */\n      sub\n        /* \"contracts/AuraVault.sol\":6846:6893  if (totalPayout == 0) revert NoClaimableFunds() */\n      tag_191\n      jumpi\n        /* \"contracts/AuraVault.sol\":6875:6893  NoClaimableFunds() */\n      mload(0x40)\n      0x4fc4c16a00000000000000000000000000000000000000000000000000000000\n      dup2\n      mstore\n      0x04\n      add\n      mload(0x40)\n      dup1\n      swap2\n      sub\n      swap1\n      revert\n        /* \"contracts/AuraVault.sol\":6846:6893  if (totalPayout == 0) revert NoClaimableFunds() */\n    tag_191:\n        /* \"contracts/AuraVault.sol\":6981:6988  bool ok */\n      0x00\n        /* \"contracts/AuraVault.sol\":6991:6995  usdc */\n      immutable(\"0x6bcaf047ba4c8ac400fca43393035242dd1aabda2d6068a0c51242b97224de8d\")\n        /* \"contracts/AuraVault.sol\":6991:7004  usdc.transfer */\n      0xffffffffffffffffffffffffffffffffffffffff\n      and\n      0xa9059cbb\n        /* \"contracts/AuraVault.sol\":7005:7015  msg.sender */\n      caller\n        /* \"contracts/AuraVault.sol\":7017:7028  totalPayout */\n      dup6\n        /* \"contracts/AuraVault.sol\":6991:7029  usdc.transfer(msg.sender, totalPayout) */\n      mload(0x40)\n      dup4\n      0xffffffff\n      and\n      0xe0\n      shl\n      dup2\n      mstore\n      0x04\n      add\n      tag_192\n      swap3\n      swap2\n      swap1\n      tag_111\n      jump\t// in\n    tag_192:\n      0x20\n      mload(0x40)\n      dup1\n      dup4\n      sub\n      dup2\n      0x00\n      dup8\n      gas\n      call\n      iszero\n      dup1\n      iszero\n      tag_194\n      jumpi\n      returndatasize\n      0x00\n      dup1\n      returndatacopy\n      revert(0x00, returndatasize)\n    tag_194:\n      pop\n      pop\n      pop\n      pop\n      mload(0x40)\n      returndatasize\n      not(0x1f)\n      0x1f\n      dup3\n      add\n      and\n      dup3\n      add\n      dup1\n      0x40\n      mstore\n      pop\n      dup2\n      add\n      swap1\n      tag_195\n      swap2\n      swap1\n      tag_115\n      jump\t// in\n    tag_195:\n        /* \"contracts/AuraVault.sol\":6981:7029  bool ok = usdc.transfer(msg.sender, totalPayout) */\n      swap1\n      pop\n        /* \"contracts/AuraVault.sol\":7045:7047  ok */\n      dup1\n        /* \"contracts/AuraVault.sol\":7040:7072  if (!ok) revert TransferFailed() */\n      tag_196\n      jumpi\n        /* \"contracts/AuraVault.sol\":7056:7072  TransferFailed() */\n      mload(0x40)\n      0x90b8ec1800000000000000000000000000000000000000000000000000000000\n      dup2\n      mstore\n      0x04\n      add\n      mload(0x40)\n      dup1\n      swap2\n      sub\n      swap1\n      revert\n        /* \"contracts/AuraVault.sol\":7040:7072  if (!ok) revert TransferFailed() */\n    tag_196:\n        /* \"contracts/AuraVault.sol\":7100:7110  msg.sender */\n      caller\n        /* \"contracts/AuraVault.sol\":7090:7131  BulkClaim(msg.sender, totalPayout, count) */\n      0xffffffffffffffffffffffffffffffffffffffff\n      and\n      0x04e42401f3579707778c2bff1b65c8ae5a8594758afc05fec76541afcd4c3a3b\n        /* \"contracts/AuraVault.sol\":7112:7123  totalPayout */\n      dup5\n        /* \"contracts/AuraVault.sol\":7125:7130  count */\n      dup5\n        /* \"contracts/AuraVault.sol\":7090:7131  BulkClaim(msg.sender, totalPayout, count) */\n      mload(0x40)\n      tag_197\n      swap3\n      swap2\n      swap1\n      tag_198\n      jump\t// in\n    tag_197:\n      mload(0x40)\n      dup1\n      swap2\n      sub\n      swap1\n      log2\n        /* \"contracts/AuraVault.sol\":6066:7139  {... */\n      pop\n      pop\n      pop\n      pop\n        /* \"contracts/AuraVault.sol\":6037:7139  function claimAll() external {... */\n      jump\t// out\n        /* \"contracts/AuraVault.sol\":2902:3477  function provideLiquidity(uint256 amount) external {... */\n    tag_86:\n        /* \"contracts/AuraVault.sol\":2978:2979  0 */\n      0x00\n        /* \"contracts/AuraVault.sol\":2968:2974  amount */\n      dup2\n        /* \"contracts/AuraVault.sol\":2968:2979  amount == 0 */\n      sub\n        /* \"contracts/AuraVault.sol\":2964:3000  if (amount == 0) revert ZeroAmount() */\n      tag_200\n      jumpi\n        /* \"contracts/AuraVault.sol\":2988:3000  ZeroAmount() */\n      mload(0x40)\n      0x1f2a200500000000000000000000000000000000000000000000000000000000\n      dup2\n      mstore\n      0x04\n      add\n      mload(0x40)\n      dup1\n      swap2\n      sub\n      swap1\n      revert\n        /* \"contracts/AuraVault.sol\":2964:3000  if (amount == 0) revert ZeroAmount() */\n    tag_200:\n        /* \"contracts/AuraVault.sol\":3013:3034  uint256 balanceBefore */\n      0x00\n        /* \"contracts/AuraVault.sol\":3037:3041  usdc */\n      immutable(\"0x6bcaf047ba4c8ac400fca43393035242dd1aabda2d6068a0c51242b97224de8d\")\n        /* \"contracts/AuraVault.sol\":3037:3051  usdc.balanceOf */\n      0xffffffffffffffffffffffffffffffffffffffff\n      and\n      0x70a08231\n        /* \"contracts/AuraVault.sol\":3060:3064  this */\n      address\n        /* \"contracts/AuraVault.sol\":3037:3066  usdc.balanceOf(address(this)) */\n      mload(0x40)\n      dup3\n      0xffffffff\n      and\n      0xe0\n      shl\n      dup2\n      mstore\n      0x04\n      add\n      tag_201\n      swap2\n      swap1\n      tag_64\n      jump\t// in\n    tag_201:\n      0x20\n      mload(0x40)\n      dup1\n      dup4\n      sub\n      dup2\n      dup7\n      gas\n      staticcall\n      iszero\n      dup1\n      iszero\n      tag_203\n      jumpi\n      returndatasize\n      0x00\n      dup1\n      returndatacopy\n      revert(0x00, returndatasize)\n    tag_203:\n      pop\n      pop\n      pop\n      pop\n      mload(0x40)\n      returndatasize\n      not(0x1f)\n      0x1f\n      dup3\n      add\n      and\n      dup3\n      add\n      dup1\n      0x40\n      mstore\n      pop\n      dup2\n      add\n      swap1\n      tag_204\n      swap2\n      swap1\n      tag_102\n      jump\t// in\n    tag_204:\n        /* \"contracts/AuraVault.sol\":3013:3066  uint256 balanceBefore = usdc.balanceOf(address(this)) */\n      swap1\n      pop\n        /* \"contracts/AuraVault.sol\":3077:3084  bool ok */\n      0x00\n        /* \"contracts/AuraVault.sol\":3087:3091  usdc */\n      immutable(\"0x6bcaf047ba4c8ac400fca43393035242dd1aabda2d6068a0c51242b97224de8d\")\n        /* \"contracts/AuraVault.sol\":3087:3104  usdc.transferFrom */\n      0xffffffffffffffffffffffffffffffffffffffff\n      and\n      0x23b872dd\n        /* \"contracts/AuraVault.sol\":3105:3115  msg.sender */\n      caller\n        /* \"contracts/AuraVault.sol\":3125:3129  this */\n      address\n        /* \"contracts/AuraVault.sol\":3132:3138  amount */\n      dup7\n        /* \"contracts/AuraVault.sol\":3087:3139  usdc.transferFrom(msg.sender, address(this), amount) */\n      mload(0x40)\n      dup5\n      0xffffffff\n      and\n      0xe0\n      shl\n      dup2\n      mstore\n      0x04\n      add\n      tag_205\n      swap4\n      swap3\n      swap2\n      swap1\n      tag_146\n      jump\t// in\n    tag_205:\n      0x20\n      mload(0x40)\n      dup1\n      dup4\n      sub\n      dup2\n      0x00\n      dup8\n      gas\n      call\n      iszero\n      dup1\n      iszero\n      tag_207\n      jumpi\n      returndatasize\n      0x00\n      dup1\n      returndatacopy\n      revert(0x00, returndatasize)\n    tag_207:\n      pop\n      pop\n      pop\n      pop\n      mload(0x40)\n      returndatasize\n      not(0x1f)\n      0x1f\n      dup3\n      add\n      and\n      dup3\n      add\n      dup1\n      0x40\n      mstore\n      pop\n      dup2\n      add\n      swap1\n      tag_208\n      swap2\n      swap1\n      tag_115\n      jump\t// in\n    tag_208:\n        /* \"contracts/AuraVault.sol\":3077:3139  bool ok = usdc.transferFrom(msg.sender, address(this), amount) */\n      swap1\n      pop\n        /* \"contracts/AuraVault.sol\":3155:3157  ok */\n      dup1\n        /* \"contracts/AuraVault.sol\":3150:3182  if (!ok) revert TransferFailed() */\n      tag_209\n      jumpi\n        /* \"contracts/AuraVault.sol\":3166:3182  TransferFailed() */\n      mload(0x40)\n      0x90b8ec1800000000000000000000000000000000000000000000000000000000\n      dup2\n      mstore\n      0x04\n      add\n      mload(0x40)\n      dup1\n      swap2\n      sub\n      swap1\n      revert\n        /* \"contracts/AuraVault.sol\":3150:3182  if (!ok) revert TransferFailed() */\n    tag_209:\n        /* \"contracts/AuraVault.sol\":3195:3215  uint256 balanceAfter */\n      0x00\n        /* \"contracts/AuraVault.sol\":3218:3222  usdc */\n      immutable(\"0x6bcaf047ba4c8ac400fca43393035242dd1aabda2d6068a0c51242b97224de8d\")\n        /* \"contracts/AuraVault.sol\":3218:3232  usdc.balanceOf */\n      0xffffffffffffffffffffffffffffffffffffffff\n      and\n      0x70a08231\n        /* \"contracts/AuraVault.sol\":3241:3245  this */\n      address\n        /* \"contracts/AuraVault.sol\":3218:3247  usdc.balanceOf(address(this)) */\n      mload(0x40)\n      dup3\n      0xffffffff\n      and\n      0xe0\n      shl\n      dup2\n      mstore\n      0x04\n      add\n      tag_210\n      swap2\n      swap1\n      tag_64\n      jump\t// in\n    tag_210:\n      0x20\n      mload(0x40)\n      dup1\n      dup4\n      sub\n      dup2\n      dup7\n      gas\n      staticcall\n      iszero\n      dup1\n      iszero\n      tag_212\n      jumpi\n      returndatasize\n      0x00\n      dup1\n      returndatacopy\n      revert(0x00, returndatasize)\n    tag_212:\n      pop\n      pop\n      pop\n      pop\n      mload(0x40)\n      returndatasize\n      not(0x1f)\n      0x1f\n      dup3\n      add\n      and\n      dup3\n      add\n      dup1\n      0x40\n      mstore\n      pop\n      dup2\n      add\n      swap1\n      tag_213\n      swap2\n      swap1\n      tag_102\n      jump\t// in\n    tag_213:\n        /* \"contracts/AuraVault.sol\":3195:3247  uint256 balanceAfter = usdc.balanceOf(address(this)) */\n      swap1\n      pop\n        /* \"contracts/AuraVault.sol\":3258:3280  uint256 actualReceived */\n      0x00\n        /* \"contracts/AuraVault.sol\":3298:3311  balanceBefore */\n      dup4\n        /* \"contracts/AuraVault.sol\":3283:3295  balanceAfter */\n      dup3\n        /* \"contracts/AuraVault.sol\":3283:3311  balanceAfter - balanceBefore */\n      tag_214\n      swap2\n      swap1\n      tag_106\n      jump\t// in\n    tag_214:\n        /* \"contracts/AuraVault.sol\":3258:3311  uint256 actualReceived = balanceAfter - balanceBefore */\n      swap1\n      pop\n        /* \"contracts/AuraVault.sol\":3354:3368  actualReceived */\n      dup1\n        /* \"contracts/AuraVault.sol\":3324:3338  lenderBalances */\n      0x03\n        /* \"contracts/AuraVault.sol\":3324:3350  lenderBalances[msg.sender] */\n      0x00\n        /* \"contracts/AuraVault.sol\":3339:3349  msg.sender */\n      caller\n        /* \"contracts/AuraVault.sol\":3324:3350  lenderBalances[msg.sender] */\n      0xffffffffffffffffffffffffffffffffffffffff\n      and\n      0xffffffffffffffffffffffffffffffffffffffff\n      and\n      dup2\n      mstore\n      0x20\n      add\n      swap1\n      dup2\n      mstore\n      0x20\n      add\n      0x00\n      keccak256\n      0x00\n        /* \"contracts/AuraVault.sol\":3324:3368  lenderBalances[msg.sender] += actualReceived */\n      dup3\n      dup3\n      sload\n      tag_215\n      swap2\n      swap1\n      tag_125\n      jump\t// in\n    tag_215:\n      swap3\n      pop\n      pop\n      dup2\n      swap1\n      sstore\n      pop\n        /* \"contracts/AuraVault.sol\":3392:3406  actualReceived */\n      dup1\n        /* \"contracts/AuraVault.sol\":3379:3388  totalLent */\n      0x01\n      0x00\n        /* \"contracts/AuraVault.sol\":3379:3406  totalLent += actualReceived */\n      dup3\n      dup3\n      sload\n      tag_216\n      swap2\n      swap1\n      tag_125\n      jump\t// in\n    tag_216:\n      swap3\n      pop\n      pop\n      dup2\n      swap1\n      sstore\n      pop\n        /* \"contracts/AuraVault.sol\":3442:3452  msg.sender */\n      caller\n        /* \"contracts/AuraVault.sol\":3424:3469  LiquidityProvided(msg.sender, actualReceived) */\n      0xffffffffffffffffffffffffffffffffffffffff\n      and\n      0xccb2ae3a2936bf4c94fa4e12cdf0cdad6ed0e4888a044cef89afa60f2e4b92d3\n        /* \"contracts/AuraVault.sol\":3454:3468  actualReceived */\n      dup3\n        /* \"contracts/AuraVault.sol\":3424:3469  LiquidityProvided(msg.sender, actualReceived) */\n      mload(0x40)\n      tag_217\n      swap2\n      swap1\n      tag_31\n      jump\t// in\n    tag_217:\n      mload(0x40)\n      dup1\n      swap2\n      sub\n      swap1\n      log2\n        /* \"contracts/AuraVault.sol\":2953:3477  {... */\n      pop\n      pop\n      pop\n      pop\n        /* \"contracts/AuraVault.sol\":2902:3477  function provideLiquidity(uint256 amount) external {... */\n      pop\n      jump\t// out\n        /* \"contracts/AuraVault.sol\":784:827  mapping(bytes32 => Receipt) public receipts */\n    tag_89:\n      mstore(0x20, 0x05)\n      dup1\n      0x00\n      mstore\n      keccak256(0x00, 0x40)\n      0x00\n      swap2\n      pop\n      swap1\n      pop\n      dup1\n      0x00\n      add\n      0x00\n      swap1\n      sload\n      swap1\n      0x0100\n      exp\n      swap1\n      div\n      0xffffffffffffffffffffffffffffffffffffffff\n      and\n      swap1\n      dup1\n      0x01\n      add\n      sload\n      swap1\n      dup1\n      0x02\n      add\n      0x00\n      swap1\n      sload\n      swap1\n      0x0100\n      exp\n      swap1\n      div\n      0xff\n      and\n      swap1\n      pop\n      dup4\n      jump\t// out\n        /* \"contracts/AuraVault.sol\":656:703  mapping(bytes32 => uint256) public creditLimits */\n    tag_93:\n      mstore(0x20, 0x04)\n      dup1\n      0x00\n      mstore\n      keccak256(0x00, 0x40)\n      0x00\n      swap2\n      pop\n      swap1\n      pop\n      sload\n      dup2\n      jump\t// out\n        /* \"#utility.yul\":88:205   */\n    tag_219:\n        /* \"#utility.yul\":197:198   */\n      0x00\n        /* \"#utility.yul\":194:195   */\n      dup1\n        /* \"#utility.yul\":187:199   */\n      revert\n        /* \"#utility.yul\":334:411   */\n    tag_221:\n        /* \"#utility.yul\":371:378   */\n      0x00\n        /* \"#utility.yul\":400:405   */\n      dup2\n        /* \"#utility.yul\":389:405   */\n      swap1\n      pop\n        /* \"#utility.yul\":334:411   */\n      swap2\n      swap1\n      pop\n      jump\t// out\n        /* \"#utility.yul\":417:539   */\n    tag_222:\n        /* \"#utility.yul\":490:514   */\n      tag_257\n        /* \"#utility.yul\":508:513   */\n      dup2\n        /* \"#utility.yul\":490:514   */\n      tag_221\n      jump\t// in\n    tag_257:\n        /* \"#utility.yul\":483:488   */\n      dup2\n        /* \"#utility.yul\":480:515   */\n      eq\n        /* \"#utility.yul\":470:533   */\n      tag_258\n      jumpi\n        /* \"#utility.yul\":529:530   */\n      0x00\n        /* \"#utility.yul\":526:527   */\n      dup1\n        /* \"#utility.yul\":519:531   */\n      revert\n        /* \"#utility.yul\":470:533   */\n    tag_258:\n        /* \"#utility.yul\":417:539   */\n      pop\n      jump\t// out\n        /* \"#utility.yul\":545:684   */\n    tag_223:\n        /* \"#utility.yul\":591:596   */\n      0x00\n        /* \"#utility.yul\":629:635   */\n      dup2\n        /* \"#utility.yul\":616:636   */\n      calldataload\n        /* \"#utility.yul\":607:636   */\n      swap1\n      pop\n        /* \"#utility.yul\":645:678   */\n      tag_260\n        /* \"#utility.yul\":672:677   */\n      dup2\n        /* \"#utility.yul\":645:678   */\n      tag_222\n      jump\t// in\n    tag_260:\n        /* \"#utility.yul\":545:684   */\n      swap3\n      swap2\n      pop\n      pop\n      jump\t// out\n        /* \"#utility.yul\":690:1019   */\n    tag_26:\n        /* \"#utility.yul\":749:755   */\n      0x00\n        /* \"#utility.yul\":798:800   */\n      0x20\n        /* \"#utility.yul\":786:795   */\n      dup3\n        /* \"#utility.yul\":777:784   */\n      dup5\n        /* \"#utility.yul\":773:796   */\n      sub\n        /* \"#utility.yul\":769:801   */\n      slt\n        /* \"#utility.yul\":766:885   */\n      iszero\n      tag_262\n      jumpi\n        /* \"#utility.yul\":804:883   */\n      tag_263\n      tag_219\n      jump\t// in\n    tag_263:\n        /* \"#utility.yul\":766:885   */\n    tag_262:\n        /* \"#utility.yul\":924:925   */\n      0x00\n        /* \"#utility.yul\":949:1002   */\n      tag_264\n        /* \"#utility.yul\":994:1001   */\n      dup5\n        /* \"#utility.yul\":985:991   */\n      dup3\n        /* \"#utility.yul\":974:983   */\n      dup6\n        /* \"#utility.yul\":970:992   */\n      add\n        /* \"#utility.yul\":949:1002   */\n      tag_223\n      jump\t// in\n    tag_264:\n        /* \"#utility.yul\":939:1002   */\n      swap2\n      pop\n        /* \"#utility.yul\":895:1012   */\n      pop\n        /* \"#utility.yul\":690:1019   */\n      swap3\n      swap2\n      pop\n      pop\n      jump\t// out\n        /* \"#utility.yul\":1025:1143   */\n    tag_224:\n        /* \"#utility.yul\":1112:1136   */\n      tag_266\n        /* \"#utility.yul\":1130:1135   */\n      dup2\n        /* \"#utility.yul\":1112:1136   */\n      tag_221\n      jump\t// in\n    tag_266:\n        /* \"#utility.yul\":1107:1110   */\n      dup3\n        /* \"#utility.yul\":1100:1137   */\n      mstore\n        /* \"#utility.yul\":1025:1143   */\n      pop\n      pop\n      jump\t// out\n        /* \"#utility.yul\":1149:1371   */\n    tag_31:\n        /* \"#utility.yul\":1242:1246   */\n      0x00\n        /* \"#utility.yul\":1280:1282   */\n      0x20\n        /* \"#utility.yul\":1269:1278   */\n      dup3\n        /* \"#utility.yul\":1265:1283   */\n      add\n        /* \"#utility.yul\":1257:1283   */\n      swap1\n      pop\n        /* \"#utility.yul\":1293:1364   */\n      tag_268\n        /* \"#utility.yul\":1361:1362   */\n      0x00\n        /* \"#utility.yul\":1350:1359   */\n      dup4\n        /* \"#utility.yul\":1346:1363   */\n      add\n        /* \"#utility.yul\":1337:1343   */\n      dup5\n        /* \"#utility.yul\":1293:1364   */\n      tag_224\n      jump\t// in\n    tag_268:\n        /* \"#utility.yul\":1149:1371   */\n      swap3\n      swap2\n      pop\n      pop\n      jump\t// out\n        /* \"#utility.yul\":1377:1503   */\n    tag_225:\n        /* \"#utility.yul\":1414:1421   */\n      0x00\n        /* \"#utility.yul\":1454:1496   */\n      0xffffffffffffffffffffffffffffffffffffffff\n        /* \"#utility.yul\":1447:1452   */\n      dup3\n        /* \"#utility.yul\":1443:1497   */\n      and\n        /* \"#utility.yul\":1432:1497   */\n      swap1\n      pop\n        /* \"#utility.yul\":1377:1503   */\n      swap2\n      swap1\n      pop\n      jump\t// out\n        /* \"#utility.yul\":1509:1605   */\n    tag_226:\n        /* \"#utility.yul\":1546:1553   */\n      0x00\n        /* \"#utility.yul\":1575:1599   */\n      tag_271\n        /* \"#utility.yul\":1593:1598   */\n      dup3\n        /* \"#utility.yul\":1575:1599   */\n      tag_225\n      jump\t// in\n    tag_271:\n        /* \"#utility.yul\":1564:1599   */\n      swap1\n      pop\n        /* \"#utility.yul\":1509:1605   */\n      swap2\n      swap1\n      pop\n      jump\t// out\n        /* \"#utility.yul\":1611:1733   */\n    tag_227:\n        /* \"#utility.yul\":1684:1708   */\n      tag_273\n        /* \"#utility.yul\":1702:1707   */\n      dup2\n        /* \"#utility.yul\":1684:1708   */\n      tag_226\n      jump\t// in\n    tag_273:\n        /* \"#utility.yul\":1677:1682   */\n      dup2\n        /* \"#utility.yul\":1674:1709   */\n      eq\n        /* \"#utility.yul\":1664:1727   */\n      tag_274\n      jumpi\n        /* \"#utility.yul\":1723:1724   */\n      0x00\n        /* \"#utility.yul\":1720:1721   */\n      dup1\n        /* \"#utility.yul\":1713:1725   */\n      revert\n        /* \"#utility.yul\":1664:1727   */\n    tag_274:\n        /* \"#utility.yul\":1611:1733   */\n      pop\n      jump\t// out\n        /* \"#utility.yul\":1739:1878   */\n    tag_228:\n        /* \"#utility.yul\":1785:1790   */\n      0x00\n        /* \"#utility.yul\":1823:1829   */\n      dup2\n        /* \"#utility.yul\":1810:1830   */\n      calldataload\n        /* \"#utility.yul\":1801:1830   */\n      swap1\n      pop\n        /* \"#utility.yul\":1839:1872   */\n      tag_276\n        /* \"#utility.yul\":1866:1871   */\n      dup2\n        /* \"#utility.yul\":1839:1872   */\n      tag_227\n      jump\t// in\n    tag_276:\n        /* \"#utility.yul\":1739:1878   */\n      swap3\n      swap2\n      pop\n      pop\n      jump\t// out\n        /* \"#utility.yul\":1884:2358   */\n    tag_34:\n        /* \"#utility.yul\":1952:1958   */\n      0x00\n        /* \"#utility.yul\":1960:1966   */\n      dup1\n        /* \"#utility.yul\":2009:2011   */\n      0x40\n        /* \"#utility.yul\":1997:2006   */\n      dup4\n        /* \"#utility.yul\":1988:1995   */\n      dup6\n        /* \"#utility.yul\":1984:2007   */\n      sub\n        /* \"#utility.yul\":1980:2012   */\n      slt\n        /* \"#utility.yul\":1977:2096   */\n      iszero\n      tag_278\n      jumpi\n        /* \"#utility.yul\":2015:2094   */\n      tag_279\n      tag_219\n      jump\t// in\n    tag_279:\n        /* \"#utility.yul\":1977:2096   */\n    tag_278:\n        /* \"#utility.yul\":2135:2136   */\n      0x00\n        /* \"#utility.yul\":2160:2213   */\n      tag_280\n        /* \"#utility.yul\":2205:2212   */\n      dup6\n        /* \"#utility.yul\":2196:2202   */\n      dup3\n        /* \"#utility.yul\":2185:2194   */\n      dup7\n        /* \"#utility.yul\":2181:2203   */\n      add\n        /* \"#utility.yul\":2160:2213   */\n      tag_228\n      jump\t// in\n    tag_280:\n        /* \"#utility.yul\":2150:2213   */\n      swap3\n      pop\n        /* \"#utility.yul\":2106:2223   */\n      pop\n        /* \"#utility.yul\":2262:2264   */\n      0x20\n        /* \"#utility.yul\":2288:2341   */\n      tag_281\n        /* \"#utility.yul\":2333:2340   */\n      dup6\n        /* \"#utility.yul\":2324:2330   */\n      dup3\n        /* \"#utility.yul\":2313:2322   */\n      dup7\n        /* \"#utility.yul\":2309:2331   */\n      add\n        /* \"#utility.yul\":2288:2341   */\n      tag_223\n      jump\t// in\n    tag_281:\n        /* \"#utility.yul\":2278:2341   */\n      swap2\n      pop\n        /* \"#utility.yul\":2233:2351   */\n      pop\n        /* \"#utility.yul\":1884:2358   */\n      swap3\n      pop\n      swap3\n      swap1\n      pop\n      jump\t// out\n        /* \"#utility.yul\":2364:2441   */\n    tag_229:\n        /* \"#utility.yul\":2401:2408   */\n      0x00\n        /* \"#utility.yul\":2430:2435   */\n      dup2\n        /* \"#utility.yul\":2419:2435   */\n      swap1\n      pop\n        /* \"#utility.yul\":2364:2441   */\n      swap2\n      swap1\n      pop\n      jump\t// out\n        /* \"#utility.yul\":2447:2565   */\n    tag_230:\n        /* \"#utility.yul\":2534:2558   */\n      tag_284\n        /* \"#utility.yul\":2552:2557   */\n      dup2\n        /* \"#utility.yul\":2534:2558   */\n      tag_229\n      jump\t// in\n    tag_284:\n        /* \"#utility.yul\":2529:2532   */\n      dup3\n        /* \"#utility.yul\":2522:2559   */\n      mstore\n        /* \"#utility.yul\":2447:2565   */\n      pop\n      pop\n      jump\t// out\n        /* \"#utility.yul\":2571:2793   */\n    tag_37:\n        /* \"#utility.yul\":2664:2668   */\n      0x00\n        /* \"#utility.yul\":2702:2704   */\n      0x20\n        /* \"#utility.yul\":2691:2700   */\n      dup3\n        /* \"#utility.yul\":2687:2705   */\n      add\n        /* \"#utility.yul\":2679:2705   */\n      swap1\n      pop\n        /* \"#utility.yul\":2715:2786   */\n      tag_286\n        /* \"#utility.yul\":2783:2784   */\n      0x00\n        /* \"#utility.yul\":2772:2781   */\n      dup4\n        /* \"#utility.yul\":2768:2785   */\n      add\n        /* \"#utility.yul\":2759:2765   */\n      dup5\n        /* \"#utility.yul\":2715:2786   */\n      tag_230\n      jump\t// in\n    tag_286:\n        /* \"#utility.yul\":2571:2793   */\n      swap3\n      swap2\n      pop\n      pop\n      jump\t// out\n        /* \"#utility.yul\":2799:3128   */\n    tag_40:\n        /* \"#utility.yul\":2858:2864   */\n      0x00\n        /* \"#utility.yul\":2907:2909   */\n      0x20\n        /* \"#utility.yul\":2895:2904   */\n      dup3\n        /* \"#utility.yul\":2886:2893   */\n      dup5\n        /* \"#utility.yul\":2882:2905   */\n      sub\n        /* \"#utility.yul\":2878:2910   */\n      slt\n        /* \"#utility.yul\":2875:2994   */\n      iszero\n      tag_288\n      jumpi\n        /* \"#utility.yul\":2913:2992   */\n      tag_289\n      tag_219\n      jump\t// in\n    tag_289:\n        /* \"#utility.yul\":2875:2994   */\n    tag_288:\n        /* \"#utility.yul\":3033:3034   */\n      0x00\n        /* \"#utility.yul\":3058:3111   */\n      tag_290\n        /* \"#utility.yul\":3103:3110   */\n      dup5\n        /* \"#utility.yul\":3094:3100   */\n      dup3\n        /* \"#utility.yul\":3083:3092   */\n      dup6\n        /* \"#utility.yul\":3079:3101   */\n      add\n        /* \"#utility.yul\":3058:3111   */\n      tag_228\n      jump\t// in\n    tag_290:\n        /* \"#utility.yul\":3048:3111   */\n      swap2\n      pop\n        /* \"#utility.yul\":3004:3121   */\n      pop\n        /* \"#utility.yul\":2799:3128   */\n      swap3\n      swap2\n      pop\n      pop\n      jump\t// out\n        /* \"#utility.yul\":3134:3252   */\n    tag_231:\n        /* \"#utility.yul\":3221:3245   */\n      tag_292\n        /* \"#utility.yul\":3239:3244   */\n      dup2\n        /* \"#utility.yul\":3221:3245   */\n      tag_226\n      jump\t// in\n    tag_292:\n        /* \"#utility.yul\":3216:3219   */\n      dup3\n        /* \"#utility.yul\":3209:3246   */\n      mstore\n        /* \"#utility.yul\":3134:3252   */\n      pop\n      pop\n      jump\t// out\n        /* \"#utility.yul\":3258:3700   */\n    tag_43:\n        /* \"#utility.yul\":3407:3411   */\n      0x00\n        /* \"#utility.yul\":3445:3447   */\n      0x60\n        /* \"#utility.yul\":3434:3443   */\n      dup3\n        /* \"#utility.yul\":3430:3448   */\n      add\n        /* \"#utility.yul\":3422:3448   */\n      swap1\n      pop\n        /* \"#utility.yul\":3458:3529   */\n      tag_294\n        /* \"#utility.yul\":3526:3527   */\n      0x00\n        /* \"#utility.yul\":3515:3524   */\n      dup4\n        /* \"#utility.yul\":3511:3528   */\n      add\n        /* \"#utility.yul\":3502:3508   */\n      dup7\n        /* \"#utility.yul\":3458:3529   */\n      tag_224\n      jump\t// in\n    tag_294:\n        /* \"#utility.yul\":3539:3611   */\n      tag_295\n        /* \"#utility.yul\":3607:3609   */\n      0x20\n        /* \"#utility.yul\":3596:3605   */\n      dup4\n        /* \"#utility.yul\":3592:3610   */\n      add\n        /* \"#utility.yul\":3583:3589   */\n      dup6\n        /* \"#utility.yul\":3539:3611   */\n      tag_224\n      jump\t// in\n    tag_295:\n        /* \"#utility.yul\":3621:3693   */\n      tag_296\n        /* \"#utility.yul\":3689:3691   */\n      0x40\n        /* \"#utility.yul\":3678:3687   */\n      dup4\n        /* \"#utility.yul\":3674:3692   */\n      add\n        /* \"#utility.yul\":3665:3671   */\n      dup5\n        /* \"#utility.yul\":3621:3693   */\n      tag_231\n      jump\t// in\n    tag_296:\n        /* \"#utility.yul\":3258:3700   */\n      swap5\n      swap4\n      pop\n      pop\n      pop\n      pop\n      jump\t// out\n        /* \"#utility.yul\":3706:3828   */\n    tag_232:\n        /* \"#utility.yul\":3779:3803   */\n      tag_298\n        /* \"#utility.yul\":3797:3802   */\n      dup2\n        /* \"#utility.yul\":3779:3803   */\n      tag_229\n      jump\t// in\n    tag_298:\n        /* \"#utility.yul\":3772:3777   */\n      dup2\n        /* \"#utility.yul\":3769:3804   */\n      eq\n        /* \"#utility.yul\":3759:3822   */\n      tag_299\n      jumpi\n        /* \"#utility.yul\":3818:3819   */\n      0x00\n        /* \"#utility.yul\":3815:3816   */\n      dup1\n        /* \"#utility.yul\":3808:3820   */\n      revert\n        /* \"#utility.yul\":3759:3822   */\n    tag_299:\n        /* \"#utility.yul\":3706:3828   */\n      pop\n      jump\t// out\n        /* \"#utility.yul\":3834:3973   */\n    tag_233:\n        /* \"#utility.yul\":3880:3885   */\n      0x00\n        /* \"#utility.yul\":3918:3924   */\n      dup2\n        /* \"#utility.yul\":3905:3925   */\n      calldataload\n        /* \"#utility.yul\":3896:3925   */\n      swap1\n      pop\n        /* \"#utility.yul\":3934:3967   */\n      tag_301\n        /* \"#utility.yul\":3961:3966   */\n      dup2\n        /* \"#utility.yul\":3934:3967   */\n      tag_232\n      jump\t// in\n    tag_301:\n        /* \"#utility.yul\":3834:3973   */\n      swap3\n      swap2\n      pop\n      pop\n      jump\t// out\n        /* \"#utility.yul\":3979:4453   */\n    tag_49:\n        /* \"#utility.yul\":4047:4053   */\n      0x00\n        /* \"#utility.yul\":4055:4061   */\n      dup1\n        /* \"#utility.yul\":4104:4106   */\n      0x40\n        /* \"#utility.yul\":4092:4101   */\n      dup4\n        /* \"#utility.yul\":4083:4090   */\n      dup6\n        /* \"#utility.yul\":4079:4102   */\n      sub\n        /* \"#utility.yul\":4075:4107   */\n      slt\n        /* \"#utility.yul\":4072:4191   */\n      iszero\n      tag_303\n      jumpi\n        /* \"#utility.yul\":4110:4189   */\n      tag_304\n      tag_219\n      jump\t// in\n    tag_304:\n        /* \"#utility.yul\":4072:4191   */\n    tag_303:\n        /* \"#utility.yul\":4230:4231   */\n      0x00\n        /* \"#utility.yul\":4255:4308   */\n      tag_305\n        /* \"#utility.yul\":4300:4307   */\n      dup6\n        /* \"#utility.yul\":4291:4297   */\n      dup3\n        /* \"#utility.yul\":4280:4289   */\n      dup7\n        /* \"#utility.yul\":4276:4298   */\n      add\n        /* \"#utility.yul\":4255:4308   */\n      tag_233\n      jump\t// in\n    tag_305:\n        /* \"#utility.yul\":4245:4308   */\n      swap3\n      pop\n        /* \"#utility.yul\":4201:4318   */\n      pop\n        /* \"#utility.yul\":4357:4359   */\n      0x20\n        /* \"#utility.yul\":4383:4436   */\n      tag_306\n        /* \"#utility.yul\":4428:4435   */\n      dup6\n        /* \"#utility.yul\":4419:4425   */\n      dup3\n        /* \"#utility.yul\":4408:4417   */\n      dup7\n        /* \"#utility.yul\":4404:4426   */\n      add\n        /* \"#utility.yul\":4383:4436   */\n      tag_223\n      jump\t// in\n    tag_306:\n        /* \"#utility.yul\":4373:4436   */\n      swap2\n      pop\n        /* \"#utility.yul\":4328:4446   */\n      pop\n        /* \"#utility.yul\":3979:4453   */\n      swap3\n      pop\n      swap3\n      swap1\n      pop\n      jump\t// out\n        /* \"#utility.yul\":4459:4519   */\n    tag_234:\n        /* \"#utility.yul\":4487:4490   */\n      0x00\n        /* \"#utility.yul\":4508:4513   */\n      dup2\n        /* \"#utility.yul\":4501:4513   */\n      swap1\n      pop\n        /* \"#utility.yul\":4459:4519   */\n      swap2\n      swap1\n      pop\n      jump\t// out\n        /* \"#utility.yul\":4525:4667   */\n    tag_235:\n        /* \"#utility.yul\":4575:4584   */\n      0x00\n        /* \"#utility.yul\":4608:4661   */\n      tag_309\n        /* \"#utility.yul\":4626:4660   */\n      tag_310\n        /* \"#utility.yul\":4635:4659   */\n      tag_311\n        /* \"#utility.yul\":4653:4658   */\n      dup5\n        /* \"#utility.yul\":4635:4659   */\n      tag_225\n      jump\t// in\n    tag_311:\n        /* \"#utility.yul\":4626:4660   */\n      tag_234\n      jump\t// in\n    tag_310:\n        /* \"#utility.yul\":4608:4661   */\n      tag_225\n      jump\t// in\n    tag_309:\n        /* \"#utility.yul\":4595:4661   */\n      swap1\n      pop\n        /* \"#utility.yul\":4525:4667   */\n      swap2\n      swap1\n      pop\n      jump\t// out\n        /* \"#utility.yul\":4673:4799   */\n    tag_236:\n        /* \"#utility.yul\":4723:4732   */\n      0x00\n        /* \"#utility.yul\":4756:4793   */\n      tag_313\n        /* \"#utility.yul\":4787:4792   */\n      dup3\n        /* \"#utility.yul\":4756:4793   */\n      tag_235\n      jump\t// in\n    tag_313:\n        /* \"#utility.yul\":4743:4793   */\n      swap1\n      pop\n        /* \"#utility.yul\":4673:4799   */\n      swap2\n      swap1\n      pop\n      jump\t// out\n        /* \"#utility.yul\":4805:4944   */\n    tag_237:\n        /* \"#utility.yul\":4868:4877   */\n      0x00\n        /* \"#utility.yul\":4901:4938   */\n      tag_315\n        /* \"#utility.yul\":4932:4937   */\n      dup3\n        /* \"#utility.yul\":4901:4938   */\n      tag_236\n      jump\t// in\n    tag_315:\n        /* \"#utility.yul\":4888:4938   */\n      swap1\n      pop\n        /* \"#utility.yul\":4805:4944   */\n      swap2\n      swap1\n      pop\n      jump\t// out\n        /* \"#utility.yul\":4950:5107   */\n    tag_238:\n        /* \"#utility.yul\":5050:5100   */\n      tag_317\n        /* \"#utility.yul\":5094:5099   */\n      dup2\n        /* \"#utility.yul\":5050:5100   */\n      tag_237\n      jump\t// in\n    tag_317:\n        /* \"#utility.yul\":5045:5048   */\n      dup3\n        /* \"#utility.yul\":5038:5101   */\n      mstore\n        /* \"#utility.yul\":4950:5107   */\n      pop\n      pop\n      jump\t// out\n        /* \"#utility.yul\":5113:5361   */\n    tag_54:\n        /* \"#utility.yul\":5219:5223   */\n      0x00\n        /* \"#utility.yul\":5257:5259   */\n      0x20\n        /* \"#utility.yul\":5246:5255   */\n      dup3\n        /* \"#utility.yul\":5242:5260   */\n      add\n        /* \"#utility.yul\":5234:5260   */\n      swap1\n      pop\n        /* \"#utility.yul\":5270:5354   */\n      tag_319\n        /* \"#utility.yul\":5351:5352   */\n      0x00\n        /* \"#utility.yul\":5340:5349   */\n      dup4\n        /* \"#utility.yul\":5336:5353   */\n      add\n        /* \"#utility.yul\":5327:5333   */\n      dup5\n        /* \"#utility.yul\":5270:5354   */\n      tag_238\n      jump\t// in\n    tag_319:\n        /* \"#utility.yul\":5113:5361   */\n      swap3\n      swap2\n      pop\n      pop\n      jump\t// out\n        /* \"#utility.yul\":5367:5589   */\n    tag_64:\n        /* \"#utility.yul\":5460:5464   */\n      0x00\n        /* \"#utility.yul\":5498:5500   */\n      0x20\n        /* \"#utility.yul\":5487:5496   */\n      dup3\n        /* \"#utility.yul\":5483:5501   */\n      add\n        /* \"#utility.yul\":5475:5501   */\n      swap1\n      pop\n        /* \"#utility.yul\":5511:5582   */\n      tag_321\n        /* \"#utility.yul\":5579:5580   */\n      0x00\n        /* \"#utility.yul\":5568:5577   */\n      dup4\n        /* \"#utility.yul\":5564:5581   */\n      add\n        /* \"#utility.yul\":5555:5561   */\n      dup5\n        /* \"#utility.yul\":5511:5582   */\n      tag_231\n      jump\t// in\n    tag_321:\n        /* \"#utility.yul\":5367:5589   */\n      swap3\n      swap2\n      pop\n      pop\n      jump\t// out\n        /* \"#utility.yul\":5595:5924   */\n    tag_67:\n        /* \"#utility.yul\":5654:5660   */\n      0x00\n        /* \"#utility.yul\":5703:5705   */\n      0x20\n        /* \"#utility.yul\":5691:5700   */\n      dup3\n        /* \"#utility.yul\":5682:5689   */\n      dup5\n        /* \"#utility.yul\":5678:5701   */\n      sub\n        /* \"#utility.yul\":5674:5706   */\n      slt\n        /* \"#utility.yul\":5671:5790   */\n      iszero\n      tag_323\n      jumpi\n        /* \"#utility.yul\":5709:5788   */\n      tag_324\n      tag_219\n      jump\t// in\n    tag_324:\n        /* \"#utility.yul\":5671:5790   */\n    tag_323:\n        /* \"#utility.yul\":5829:5830   */\n      0x00\n        /* \"#utility.yul\":5854:5907   */\n      tag_325\n        /* \"#utility.yul\":5899:5906   */\n      dup5\n        /* \"#utility.yul\":5890:5896   */\n      dup3\n        /* \"#utility.yul\":5879:5888   */\n      dup6\n        /* \"#utility.yul\":5875:5897   */\n      add\n        /* \"#utility.yul\":5854:5907   */\n      tag_233\n      jump\t// in\n    tag_325:\n        /* \"#utility.yul\":5844:5907   */\n      swap2\n      pop\n        /* \"#utility.yul\":5800:5917   */\n      pop\n        /* \"#utility.yul\":5595:5924   */\n      swap3\n      swap2\n      pop\n      pop\n      jump\t// out\n        /* \"#utility.yul\":5930:6020   */\n    tag_239:\n        /* \"#utility.yul\":5964:5971   */\n      0x00\n        /* \"#utility.yul\":6007:6012   */\n      dup2\n        /* \"#utility.yul\":6000:6013   */\n      iszero\n        /* \"#utility.yul\":5993:6014   */\n      iszero\n        /* \"#utility.yul\":5982:6014   */\n      swap1\n      pop\n        /* \"#utility.yul\":5930:6020   */\n      swap2\n      swap1\n      pop\n      jump\t// out\n        /* \"#utility.yul\":6026:6135   */\n    tag_240:\n        /* \"#utility.yul\":6107:6128   */\n      tag_328\n        /* \"#utility.yul\":6122:6127   */\n      dup2\n        /* \"#utility.yul\":6107:6128   */\n      tag_239\n      jump\t// in\n    tag_328:\n        /* \"#utility.yul\":6102:6105   */\n      dup3\n        /* \"#utility.yul\":6095:6129   */\n      mstore\n        /* \"#utility.yul\":6026:6135   */\n      pop\n      pop\n      jump\t// out\n        /* \"#utility.yul\":6141:6571   */\n    tag_73:\n        /* \"#utility.yul\":6284:6288   */\n      0x00\n        /* \"#utility.yul\":6322:6324   */\n      0x60\n        /* \"#utility.yul\":6311:6320   */\n      dup3\n        /* \"#utility.yul\":6307:6325   */\n      add\n        /* \"#utility.yul\":6299:6325   */\n      swap1\n      pop\n        /* \"#utility.yul\":6335:6406   */\n      tag_330\n        /* \"#utility.yul\":6403:6404   */\n      0x00\n        /* \"#utility.yul\":6392:6401   */\n      dup4\n        /* \"#utility.yul\":6388:6405   */\n      add\n        /* \"#utility.yul\":6379:6385   */\n      dup7\n        /* \"#utility.yul\":6335:6406   */\n      tag_231\n      jump\t// in\n    tag_330:\n        /* \"#utility.yul\":6416:6488   */\n      tag_331\n        /* \"#utility.yul\":6484:6486   */\n      0x20\n        /* \"#utility.yul\":6473:6482   */\n      dup4\n        /* \"#utility.yul\":6469:6487   */\n      add\n        /* \"#utility.yul\":6460:6466   */\n      dup6\n        /* \"#utility.yul\":6416:6488   */\n      tag_224\n      jump\t// in\n    tag_331:\n        /* \"#utility.yul\":6498:6564   */\n      tag_332\n        /* \"#utility.yul\":6560:6562   */\n      0x40\n        /* \"#utility.yul\":6549:6558   */\n      dup4\n        /* \"#utility.yul\":6545:6563   */\n      add\n        /* \"#utility.yul\":6536:6542   */\n      dup5\n        /* \"#utility.yul\":6498:6564   */\n      tag_240\n      jump\t// in\n    tag_332:\n        /* \"#utility.yul\":6141:6571   */\n      swap5\n      swap4\n      pop\n      pop\n      pop\n      pop\n      jump\t// out\n        /* \"#utility.yul\":6577:6720   */\n    tag_241:\n        /* \"#utility.yul\":6634:6639   */\n      0x00\n        /* \"#utility.yul\":6665:6671   */\n      dup2\n        /* \"#utility.yul\":6659:6672   */\n      mload\n        /* \"#utility.yul\":6650:6672   */\n      swap1\n      pop\n        /* \"#utility.yul\":6681:6714   */\n      tag_334\n        /* \"#utility.yul\":6708:6713   */\n      dup2\n        /* \"#utility.yul\":6681:6714   */\n      tag_222\n      jump\t// in\n    tag_334:\n        /* \"#utility.yul\":6577:6720   */\n      swap3\n      swap2\n      pop\n      pop\n      jump\t// out\n        /* \"#utility.yul\":6726:7077   */\n    tag_102:\n        /* \"#utility.yul\":6796:6802   */\n      0x00\n        /* \"#utility.yul\":6845:6847   */\n      0x20\n        /* \"#utility.yul\":6833:6842   */\n      dup3\n        /* \"#utility.yul\":6824:6831   */\n      dup5\n        /* \"#utility.yul\":6820:6843   */\n      sub\n        /* \"#utility.yul\":6816:6848   */\n      slt\n        /* \"#utility.yul\":6813:6932   */\n      iszero\n      tag_336\n      jumpi\n        /* \"#utility.yul\":6851:6930   */\n      tag_337\n      tag_219\n      jump\t// in\n    tag_337:\n        /* \"#utility.yul\":6813:6932   */\n    tag_336:\n        /* \"#utility.yul\":6971:6972   */\n      0x00\n        /* \"#utility.yul\":6996:7060   */\n      tag_338\n        /* \"#utility.yul\":7052:7059   */\n      dup5\n        /* \"#utility.yul\":7043:7049   */\n      dup3\n        /* \"#utility.yul\":7032:7041   */\n      dup6\n        /* \"#utility.yul\":7028:7050   */\n      add\n        /* \"#utility.yul\":6996:7060   */\n      tag_241\n      jump\t// in\n    tag_338:\n        /* \"#utility.yul\":6986:7060   */\n      swap2\n      pop\n        /* \"#utility.yul\":6942:7070   */\n      pop\n        /* \"#utility.yul\":6726:7077   */\n      swap3\n      swap2\n      pop\n      pop\n      jump\t// out\n        /* \"#utility.yul\":7083:7263   */\n    tag_242:\n        /* \"#utility.yul\":7131:7208   */\n      0x4e487b7100000000000000000000000000000000000000000000000000000000\n        /* \"#utility.yul\":7128:7129   */\n      0x00\n        /* \"#utility.yul\":7121:7209   */\n      mstore\n        /* \"#utility.yul\":7228:7232   */\n      0x11\n        /* \"#utility.yul\":7225:7226   */\n      0x04\n        /* \"#utility.yul\":7218:7233   */\n      mstore\n        /* \"#utility.yul\":7252:7256   */\n      0x24\n        /* \"#utility.yul\":7249:7250   */\n      0x00\n        /* \"#utility.yul\":7242:7257   */\n      revert\n        /* \"#utility.yul\":7269:7463   */\n    tag_106:\n        /* \"#utility.yul\":7309:7313   */\n      0x00\n        /* \"#utility.yul\":7329:7349   */\n      tag_341\n        /* \"#utility.yul\":7347:7348   */\n      dup3\n        /* \"#utility.yul\":7329:7349   */\n      tag_221\n      jump\t// in\n    tag_341:\n        /* \"#utility.yul\":7324:7349   */\n      swap2\n      pop\n        /* \"#utility.yul\":7363:7383   */\n      tag_342\n        /* \"#utility.yul\":7381:7382   */\n      dup4\n        /* \"#utility.yul\":7363:7383   */\n      tag_221\n      jump\t// in\n    tag_342:\n        /* \"#utility.yul\":7358:7383   */\n      swap3\n      pop\n        /* \"#utility.yul\":7407:7408   */\n      dup3\n        /* \"#utility.yul\":7404:7405   */\n      dup3\n        /* \"#utility.yul\":7400:7409   */\n      sub\n        /* \"#utility.yul\":7392:7409   */\n      swap1\n      pop\n        /* \"#utility.yul\":7431:7432   */\n      dup2\n        /* \"#utility.yul\":7425:7429   */\n      dup2\n        /* \"#utility.yul\":7422:7433   */\n      gt\n        /* \"#utility.yul\":7419:7456   */\n      iszero\n      tag_343\n      jumpi\n        /* \"#utility.yul\":7436:7454   */\n      tag_344\n      tag_242\n      jump\t// in\n    tag_344:\n        /* \"#utility.yul\":7419:7456   */\n    tag_343:\n        /* \"#utility.yul\":7269:7463   */\n      swap3\n      swap2\n      pop\n      pop\n      jump\t// out\n        /* \"#utility.yul\":7469:7801   */\n    tag_111:\n        /* \"#utility.yul\":7590:7594   */\n      0x00\n        /* \"#utility.yul\":7628:7630   */\n      0x40\n        /* \"#utility.yul\":7617:7626   */\n      dup3\n        /* \"#utility.yul\":7613:7631   */\n      add\n        /* \"#utility.yul\":7605:7631   */\n      swap1\n      pop\n        /* \"#utility.yul\":7641:7712   */\n      tag_346\n        /* \"#utility.yul\":7709:7710   */\n      0x00\n        /* \"#utility.yul\":7698:7707   */\n      dup4\n        /* \"#utility.yul\":7694:7711   */\n      add\n        /* \"#utility.yul\":7685:7691   */\n      dup6\n        /* \"#utility.yul\":7641:7712   */\n      tag_231\n      jump\t// in\n    tag_346:\n        /* \"#utility.yul\":7722:7794   */\n      tag_347\n        /* \"#utility.yul\":7790:7792   */\n      0x20\n        /* \"#utility.yul\":7779:7788   */\n      dup4\n        /* \"#utility.yul\":7775:7793   */\n      add\n        /* \"#utility.yul\":7766:7772   */\n      dup5\n        /* \"#utility.yul\":7722:7794   */\n      tag_224\n      jump\t// in\n    tag_347:\n        /* \"#utility.yul\":7469:7801   */\n      swap4\n      swap3\n      pop\n      pop\n      pop\n      jump\t// out\n        /* \"#utility.yul\":7807:7923   */\n    tag_243:\n        /* \"#utility.yul\":7877:7898   */\n      tag_349\n        /* \"#utility.yul\":7892:7897   */\n      dup2\n        /* \"#utility.yul\":7877:7898   */\n      tag_239\n      jump\t// in\n    tag_349:\n        /* \"#utility.yul\":7870:7875   */\n      dup2\n        /* \"#utility.yul\":7867:7899   */\n      eq\n        /* \"#utility.yul\":7857:7917   */\n      tag_350\n      jumpi\n        /* \"#utility.yul\":7913:7914   */\n      0x00\n        /* \"#utility.yul\":7910:7911   */\n      dup1\n        /* \"#utility.yul\":7903:7915   */\n      revert\n        /* \"#utility.yul\":7857:7917   */\n    tag_350:\n        /* \"#utility.yul\":7807:7923   */\n      pop\n      jump\t// out\n        /* \"#utility.yul\":7929:8066   */\n    tag_244:\n        /* \"#utility.yul\":7983:7988   */\n      0x00\n        /* \"#utility.yul\":8014:8020   */\n      dup2\n        /* \"#utility.yul\":8008:8021   */\n      mload\n        /* \"#utility.yul\":7999:8021   */\n      swap1\n      pop\n        /* \"#utility.yul\":8030:8060   */\n      tag_352\n        /* \"#utility.yul\":8054:8059   */\n      dup2\n        /* \"#utility.yul\":8030:8060   */\n      tag_243\n      jump\t// in\n    tag_352:\n        /* \"#utility.yul\":7929:8066   */\n      swap3\n      swap2\n      pop\n      pop\n      jump\t// out\n        /* \"#utility.yul\":8072:8417   */\n    tag_115:\n        /* \"#utility.yul\":8139:8145   */\n      0x00\n        /* \"#utility.yul\":8188:8190   */\n      0x20\n        /* \"#utility.yul\":8176:8185   */\n      dup3\n        /* \"#utility.yul\":8167:8174   */\n      dup5\n        /* \"#utility.yul\":8163:8186   */\n      sub\n        /* \"#utility.yul\":8159:8191   */\n      slt\n        /* \"#utility.yul\":8156:8275   */\n      iszero\n      tag_354\n      jumpi\n        /* \"#utility.yul\":8194:8273   */\n      tag_355\n      tag_219\n      jump\t// in\n    tag_355:\n        /* \"#utility.yul\":8156:8275   */\n    tag_354:\n        /* \"#utility.yul\":8314:8315   */\n      0x00\n        /* \"#utility.yul\":8339:8400   */\n      tag_356\n        /* \"#utility.yul\":8392:8399   */\n      dup5\n        /* \"#utility.yul\":8383:8389   */\n      dup3\n        /* \"#utility.yul\":8372:8381   */\n      dup6\n        /* \"#utility.yul\":8368:8390   */\n      add\n        /* \"#utility.yul\":8339:8400   */\n      tag_244\n      jump\t// in\n    tag_356:\n        /* \"#utility.yul\":8329:8400   */\n      swap2\n      pop\n        /* \"#utility.yul\":8285:8410   */\n      pop\n        /* \"#utility.yul\":8072:8417   */\n      swap3\n      swap2\n      pop\n      pop\n      jump\t// out\n        /* \"#utility.yul\":8423:8614   */\n    tag_125:\n        /* \"#utility.yul\":8463:8466   */\n      0x00\n        /* \"#utility.yul\":8482:8502   */\n      tag_358\n        /* \"#utility.yul\":8500:8501   */\n      dup3\n        /* \"#utility.yul\":8482:8502   */\n      tag_221\n      jump\t// in\n    tag_358:\n        /* \"#utility.yul\":8477:8502   */\n      swap2\n      pop\n        /* \"#utility.yul\":8516:8536   */\n      tag_359\n        /* \"#utility.yul\":8534:8535   */\n      dup4\n        /* \"#utility.yul\":8516:8536   */\n      tag_221\n      jump\t// in\n    tag_359:\n        /* \"#utility.yul\":8511:8536   */\n      swap3\n      pop\n        /* \"#utility.yul\":8559:8560   */\n      dup3\n        /* \"#utility.yul\":8556:8557   */\n      dup3\n        /* \"#utility.yul\":8552:8561   */\n      add\n        /* \"#utility.yul\":8545:8561   */\n      swap1\n      pop\n        /* \"#utility.yul\":8580:8583   */\n      dup1\n        /* \"#utility.yul\":8577:8578   */\n      dup3\n        /* \"#utility.yul\":8574:8584   */\n      gt\n        /* \"#utility.yul\":8571:8607   */\n      iszero\n      tag_360\n      jumpi\n        /* \"#utility.yul\":8587:8605   */\n      tag_361\n      tag_242\n      jump\t// in\n    tag_361:\n        /* \"#utility.yul\":8571:8607   */\n    tag_360:\n        /* \"#utility.yul\":8423:8614   */\n      swap3\n      swap2\n      pop\n      pop\n      jump\t// out\n        /* \"#utility.yul\":8620:8714   */\n    tag_245:\n        /* \"#utility.yul\":8653:8661   */\n      0x00\n        /* \"#utility.yul\":8701:8706   */\n      dup2\n        /* \"#utility.yul\":8697:8699   */\n      0x60\n        /* \"#utility.yul\":8693:8707   */\n      shl\n        /* \"#utility.yul\":8672:8707   */\n      swap1\n      pop\n        /* \"#utility.yul\":8620:8714   */\n      swap2\n      swap1\n      pop\n      jump\t// out\n        /* \"#utility.yul\":8720:8814   */\n    tag_246:\n        /* \"#utility.yul\":8759:8766   */\n      0x00\n        /* \"#utility.yul\":8788:8808   */\n      tag_364\n        /* \"#utility.yul\":8802:8807   */\n      dup3\n        /* \"#utility.yul\":8788:8808   */\n      tag_245\n      jump\t// in\n    tag_364:\n        /* \"#utility.yul\":8777:8808   */\n      swap1\n      pop\n        /* \"#utility.yul\":8720:8814   */\n      swap2\n      swap1\n      pop\n      jump\t// out\n        /* \"#utility.yul\":8820:8920   */\n    tag_247:\n        /* \"#utility.yul\":8859:8866   */\n      0x00\n        /* \"#utility.yul\":8888:8914   */\n      tag_366\n        /* \"#utility.yul\":8908:8913   */\n      dup3\n        /* \"#utility.yul\":8888:8914   */\n      tag_246\n      jump\t// in\n    tag_366:\n        /* \"#utility.yul\":8877:8914   */\n      swap1\n      pop\n        /* \"#utility.yul\":8820:8920   */\n      swap2\n      swap1\n      pop\n      jump\t// out\n        /* \"#utility.yul\":8926:9083   */\n    tag_248:\n        /* \"#utility.yul\":9031:9076   */\n      tag_368\n        /* \"#utility.yul\":9051:9075   */\n      tag_369\n        /* \"#utility.yul\":9069:9074   */\n      dup3\n        /* \"#utility.yul\":9051:9075   */\n      tag_226\n      jump\t// in\n    tag_369:\n        /* \"#utility.yul\":9031:9076   */\n      tag_247\n      jump\t// in\n    tag_368:\n        /* \"#utility.yul\":9026:9029   */\n      dup3\n        /* \"#utility.yul\":9019:9077   */\n      mstore\n        /* \"#utility.yul\":8926:9083   */\n      pop\n      pop\n      jump\t// out\n        /* \"#utility.yul\":9089:9168   */\n    tag_249:\n        /* \"#utility.yul\":9128:9135   */\n      0x00\n        /* \"#utility.yul\":9157:9162   */\n      dup2\n        /* \"#utility.yul\":9146:9162   */\n      swap1\n      pop\n        /* \"#utility.yul\":9089:9168   */\n      swap2\n      swap1\n      pop\n      jump\t// out\n        /* \"#utility.yul\":9174:9331   */\n    tag_250:\n        /* \"#utility.yul\":9279:9324   */\n      tag_372\n        /* \"#utility.yul\":9299:9323   */\n      tag_373\n        /* \"#utility.yul\":9317:9322   */\n      dup3\n        /* \"#utility.yul\":9299:9323   */\n      tag_221\n      jump\t// in\n    tag_373:\n        /* \"#utility.yul\":9279:9324   */\n      tag_249\n      jump\t// in\n    tag_372:\n        /* \"#utility.yul\":9274:9277   */\n      dup3\n        /* \"#utility.yul\":9267:9325   */\n      mstore\n        /* \"#utility.yul\":9174:9331   */\n      pop\n      pop\n      jump\t// out\n        /* \"#utility.yul\":9337:10157   */\n    tag_128:\n        /* \"#utility.yul\":9561:9564   */\n      0x00\n        /* \"#utility.yul\":9576:9651   */\n      tag_375\n        /* \"#utility.yul\":9647:9650   */\n      dup3\n        /* \"#utility.yul\":9638:9644   */\n      dup9\n        /* \"#utility.yul\":9576:9651   */\n      tag_248\n      jump\t// in\n    tag_375:\n        /* \"#utility.yul\":9676:9678   */\n      0x14\n        /* \"#utility.yul\":9671:9674   */\n      dup3\n        /* \"#utility.yul\":9667:9679   */\n      add\n        /* \"#utility.yul\":9660:9679   */\n      swap2\n      pop\n        /* \"#utility.yul\":9689:9764   */\n      tag_376\n        /* \"#utility.yul\":9760:9763   */\n      dup3\n        /* \"#utility.yul\":9751:9757   */\n      dup8\n        /* \"#utility.yul\":9689:9764   */\n      tag_250\n      jump\t// in\n    tag_376:\n        /* \"#utility.yul\":9789:9791   */\n      0x20\n        /* \"#utility.yul\":9784:9787   */\n      dup3\n        /* \"#utility.yul\":9780:9792   */\n      add\n        /* \"#utility.yul\":9773:9792   */\n      swap2\n      pop\n        /* \"#utility.yul\":9802:9877   */\n      tag_377\n        /* \"#utility.yul\":9873:9876   */\n      dup3\n        /* \"#utility.yul\":9864:9870   */\n      dup7\n        /* \"#utility.yul\":9802:9877   */\n      tag_250\n      jump\t// in\n    tag_377:\n        /* \"#utility.yul\":9902:9904   */\n      0x20\n        /* \"#utility.yul\":9897:9900   */\n      dup3\n        /* \"#utility.yul\":9893:9905   */\n      add\n        /* \"#utility.yul\":9886:9905   */\n      swap2\n      pop\n        /* \"#utility.yul\":9915:9990   */\n      tag_378\n        /* \"#utility.yul\":9986:9989   */\n      dup3\n        /* \"#utility.yul\":9977:9983   */\n      dup6\n        /* \"#utility.yul\":9915:9990   */\n      tag_250\n      jump\t// in\n    tag_378:\n        /* \"#utility.yul\":10015:10017   */\n      0x20\n        /* \"#utility.yul\":10010:10013   */\n      dup3\n        /* \"#utility.yul\":10006:10018   */\n      add\n        /* \"#utility.yul\":9999:10018   */\n      swap2\n      pop\n        /* \"#utility.yul\":10028:10103   */\n      tag_379\n        /* \"#utility.yul\":10099:10102   */\n      dup3\n        /* \"#utility.yul\":10090:10096   */\n      dup5\n        /* \"#utility.yul\":10028:10103   */\n      tag_250\n      jump\t// in\n    tag_379:\n        /* \"#utility.yul\":10128:10130   */\n      0x20\n        /* \"#utility.yul\":10123:10126   */\n      dup3\n        /* \"#utility.yul\":10119:10131   */\n      add\n        /* \"#utility.yul\":10112:10131   */\n      swap2\n      pop\n        /* \"#utility.yul\":10148:10151   */\n      dup2\n        /* \"#utility.yul\":10141:10151   */\n      swap1\n      pop\n        /* \"#utility.yul\":9337:10157   */\n      swap7\n      swap6\n      pop\n      pop\n      pop\n      pop\n      pop\n      pop\n      jump\t// out\n        /* \"#utility.yul\":10163:10495   */\n    tag_139:\n        /* \"#utility.yul\":10284:10288   */\n      0x00\n        /* \"#utility.yul\":10322:10324   */\n      0x40\n        /* \"#utility.yul\":10311:10320   */\n      dup3\n        /* \"#utility.yul\":10307:10325   */\n      add\n        /* \"#utility.yul\":10299:10325   */\n      swap1\n      pop\n        /* \"#utility.yul\":10335:10406   */\n      tag_381\n        /* \"#utility.yul\":10403:10404   */\n      0x00\n        /* \"#utility.yul\":10392:10401   */\n      dup4\n        /* \"#utility.yul\":10388:10405   */\n      add\n        /* \"#utility.yul\":10379:10385   */\n      dup6\n        /* \"#utility.yul\":10335:10406   */\n      tag_231\n      jump\t// in\n    tag_381:\n        /* \"#utility.yul\":10416:10488   */\n      tag_382\n        /* \"#utility.yul\":10484:10486   */\n      0x20\n        /* \"#utility.yul\":10473:10482   */\n      dup4\n        /* \"#utility.yul\":10469:10487   */\n      add\n        /* \"#utility.yul\":10460:10466   */\n      dup5\n        /* \"#utility.yul\":10416:10488   */\n      tag_231\n      jump\t// in\n    tag_382:\n        /* \"#utility.yul\":10163:10495   */\n      swap4\n      swap3\n      pop\n      pop\n      pop\n      jump\t// out\n        /* \"#utility.yul\":10501:10943   */\n    tag_146:\n        /* \"#utility.yul\":10650:10654   */\n      0x00\n        /* \"#utility.yul\":10688:10690   */\n      0x60\n        /* \"#utility.yul\":10677:10686   */\n      dup3\n        /* \"#utility.yul\":10673:10691   */\n      add\n        /* \"#utility.yul\":10665:10691   */\n      swap1\n      pop\n        /* \"#utility.yul\":10701:10772   */\n      tag_384\n        /* \"#utility.yul\":10769:10770   */\n      0x00\n        /* \"#utility.yul\":10758:10767   */\n      dup4\n        /* \"#utility.yul\":10754:10771   */\n      add\n        /* \"#utility.yul\":10745:10751   */\n      dup7\n        /* \"#utility.yul\":10701:10772   */\n      tag_231\n      jump\t// in\n    tag_384:\n        /* \"#utility.yul\":10782:10854   */\n      tag_385\n        /* \"#utility.yul\":10850:10852   */\n      0x20\n        /* \"#utility.yul\":10839:10848   */\n      dup4\n        /* \"#utility.yul\":10835:10853   */\n      add\n        /* \"#utility.yul\":10826:10832   */\n      dup6\n        /* \"#utility.yul\":10782:10854   */\n      tag_231\n      jump\t// in\n    tag_385:\n        /* \"#utility.yul\":10864:10936   */\n      tag_386\n        /* \"#utility.yul\":10932:10934   */\n      0x40\n        /* \"#utility.yul\":10921:10930   */\n      dup4\n        /* \"#utility.yul\":10917:10935   */\n      add\n        /* \"#utility.yul\":10908:10914   */\n      dup5\n        /* \"#utility.yul\":10864:10936   */\n      tag_224\n      jump\t// in\n    tag_386:\n        /* \"#utility.yul\":10501:10943   */\n      swap5\n      swap4\n      pop\n      pop\n      pop\n      pop\n      jump\t// out\n        /* \"#utility.yul\":10949:11129   */\n    tag_182:\n        /* \"#utility.yul\":10997:11074   */\n      0x4e487b7100000000000000000000000000000000000000000000000000000000\n        /* \"#utility.yul\":10994:10995   */\n      0x00\n        /* \"#utility.yul\":10987:11075   */\n      mstore\n        /* \"#utility.yul\":11094:11098   */\n      0x32\n        /* \"#utility.yul\":11091:11092   */\n      0x04\n        /* \"#utility.yul\":11084:11099   */\n      mstore\n        /* \"#utility.yul\":11118:11122   */\n      0x24\n        /* \"#utility.yul\":11115:11116   */\n      0x00\n        /* \"#utility.yul\":11108:11123   */\n      revert\n        /* \"#utility.yul\":11135:11368   */\n    tag_189:\n        /* \"#utility.yul\":11174:11177   */\n      0x00\n        /* \"#utility.yul\":11197:11221   */\n      tag_389\n        /* \"#utility.yul\":11215:11220   */\n      dup3\n        /* \"#utility.yul\":11197:11221   */\n      tag_221\n      jump\t// in\n    tag_389:\n        /* \"#utility.yul\":11188:11221   */\n      swap2\n      pop\n        /* \"#utility.yul\":11243:11309   */\n      0xffffffffffffffffffffffffffffffffffffffffffffffffffffffffffffffff\n        /* \"#utility.yul\":11236:11241   */\n      dup3\n        /* \"#utility.yul\":11233:11310   */\n      sub\n        /* \"#utility.yul\":11230:11333   */\n      tag_390\n      jumpi\n        /* \"#utility.yul\":11313:11331   */\n      tag_391\n      tag_242\n      jump\t// in\n    tag_391:\n        /* \"#utility.yul\":11230:11333   */\n    tag_390:\n        /* \"#utility.yul\":11360:11361   */\n      0x01\n        /* \"#utility.yul\":11353:11358   */\n      dup3\n        /* \"#utility.yul\":11349:11362   */\n      add\n        /* \"#utility.yul\":11342:11362   */\n      swap1\n      pop\n        /* \"#utility.yul\":11135:11368   */\n      swap2\n      swap1\n      pop\n      jump\t// out\n        /* \"#utility.yul\":11374:11706   */\n    tag_198:\n        /* \"#utility.yul\":11495:11499   */\n      0x00\n        /* \"#utility.yul\":11533:11535   */\n      0x40\n        /* \"#utility.yul\":11522:11531   */\n      dup3\n        /* \"#utility.yul\":11518:11536   */\n      add\n        /* \"#utility.yul\":11510:11536   */\n      swap1\n      pop\n        /* \"#utility.yul\":11546:11617   */\n      tag_393\n        /* \"#utility.yul\":11614:11615   */\n      0x00\n        /* \"#utility.yul\":11603:11612   */\n      dup4\n        /* \"#utility.yul\":11599:11616   */\n      add\n        /* \"#utility.yul\":11590:11596   */\n      dup6\n        /* \"#utility.yul\":11546:11617   */\n      tag_224\n      jump\t// in\n    tag_393:\n        /* \"#utility.yul\":11627:11699   */\n      tag_394\n        /* \"#utility.yul\":11695:11697   */\n      0x20\n        /* \"#utility.yul\":11684:11693   */\n      dup4\n        /* \"#utility.yul\":11680:11698   */\n      add\n        /* \"#utility.yul\":11671:11677   */\n      dup5\n        /* \"#utility.yul\":11627:11699   */\n      tag_224\n      jump\t// in\n    tag_394:\n        /* \"#utility.yul\":11374:11706   */\n      swap4\n      swap3\n      pop\n      pop\n      pop\n      jump\t// out\n\n    auxdata: 0xa2646970667358221220fc3d283cbae4e896a36e398217be65a0d6a8ab2989b5cee757532f9c52424b2664736f6c634300081e0033\n}\n",
				"bytecode": {
					"linkReferences": {},
					"object": "60a060405234801561001057600080fd5b5060405161228d38038061228d8339818101604052810190610032919061010f565b336000806101000a81548173ffffffffffffffffffffffffffffffffffffffff021916908373ffffffffffffffffffffffffffffffffffffffff1602179055508073ffffffffffffffffffffffffffffffffffffffff1660808173ffffffffffffffffffffffffffffffffffffffff16815250505061013c565b600080fd5b600073ffffffffffffffffffffffffffffffffffffffff82169050919050565b60006100dc826100b1565b9050919050565b6100ec816100d1565b81146100f757600080fd5b50565b600081519050610109816100e3565b92915050565b600060208284031215610125576101246100ac565b5b6000610133848285016100fa565b91505092915050565b6080516120e96101a460003960008181610452015281816105bc0152818161072a01528181610a2501528181610abf01528181610ba501528181610da9015281816110650152818161157a015281816116e301528181611781015261185c01526120e96000f3fe608060405234801561001057600080fd5b50600436106101165760003560e01c80637dc0d1d0116100a2578063bb7b02fe11610071578063bb7b02fe146102e3578063d1058e5914610313578063eb521a4c1461031d578063ef6cf04d14610339578063f1941ce91461036b57610116565b80637dc0d1d0146102475780637e1e2b7a146102655780638174794e14610281578063a27a944d146102b357610116565b8063371fd8e6116100e9578063371fd8e6146101b75780633c1166f3146101d35780633e413bee146101ef5780636d7c218b1461020d5780637adbf9731461022b57610116565b80630a861f2a1461011b5780630d9d93d91461013757806312e382b4146101555780631f668cdb14610185575b600080fd5b61013560048036038101906101309190611a74565b61039b565b005b61013f6106e5565b60405161014c9190611ab0565b60405180910390f35b61016f600480360381019061016a9190611b29565b6106eb565b60405161017c9190611b82565b60405180910390f35b61019f600480360381019061019a9190611b9d565b610a1e565b6040516101ae93929190611bd9565b60405180910390f35b6101d160048036038101906101cc9190611a74565b610b67565b005b6101ed60048036038101906101e89190611c3c565b610cce565b005b6101f7610da7565b6040516102049190611cdb565b60405180910390f35b610215610dcb565b6040516102229190611ab0565b60405180910390f35b61024560048036038101906102409190611b9d565b610dd1565b005b61024f610edc565b60405161025c9190611cf6565b60405180910390f35b61027f600480360381019061027a9190611d11565b610f00565b005b61029b60048036038101906102969190611d11565b6111de565b6040516102aa93929190611d59565b60405180910390f35b6102cd60048036038101906102c89190611b9d565b6112db565b6040516102da9190611ab0565b60405180910390f35b6102fd60048036038101906102f89190611b29565b6112f3565b60405161030a9190611b82565b60405180910390f35b61031b611324565b005b61033760048036038101906103329190611a74565b6116a5565b005b610353600480360381019061034e9190611d11565b6119ca565b60405161036293929190611d59565b60405180910390f35b61038560048036038101906103809190611d11565b611a21565b6040516103929190611ab0565b60405180910390f35b600081036103d5576040517f1f2a200500000000000000000000000000000000000000000000000000000000815260040160405180910390fd5b80600360003373ffffffffffffffffffffffffffffffffffffffff1673ffffffffffffffffffffffffffffffffffffffff16815260200190815260200160002054101561044e576040517ff4d678b800000000000000000000000000000000000000000000000000000000815260040160405180910390fd5b60007f000000000000000000000000000000000000000000000000000000000000000073ffffffffffffffffffffffffffffffffffffffff166370a08231306040518263ffffffff1660e01b81526004016104a99190611cf6565b602060405180830381865afa1580156104c6573d6000803e3d6000fd5b505050506040513d601f19601f820116820180604052508101906104ea9190611da5565b9050600060025482116104fe57600061050d565b6002548261050c9190611e01565b5b905082811015610549576040517ffc22003800000000000000000000000000000000000000000000000000000000815260040160405180910390fd5b82600360003373ffffffffffffffffffffffffffffffffffffffff1673ffffffffffffffffffffffffffffffffffffffff16815260200190815260200160002060008282546105989190611e01565b9250508190555082600160008282546105b19190611e01565b9250508190555060007f000000000000000000000000000000000000000000000000000000000000000073ffffffffffffffffffffffffffffffffffffffff1663a9059cbb33866040518363ffffffff1660e01b8152600401610615929190611e35565b6020604051808303816000875af1158015610634573d6000803e3d6000fd5b505050506040513d601f19601f820116820180604052508101906106589190611e8a565b905080610691576040517f90b8ec1800000000000000000000000000000000000000000000000000000000815260040160405180910390fd5b3373ffffffffffffffffffffffffffffffffffffffff167fb1cce8684b4ffa8667b4577654e61ee3480d661ee9c27522ac80e211f6bd4d25856040516106d79190611ab0565b60405180910390a250505050565b60025481565b6000808203610726576040517f1f2a200500000000000000000000000000000000000000000000000000000000815260040160405180910390fd5b60007f000000000000000000000000000000000000000000000000000000000000000073ffffffffffffffffffffffffffffffffffffffff166370a08231306040518263ffffffff1660e01b81526004016107819190611cf6565b602060405180830381865afa15801561079e573d6000803e3d6000fd5b505050506040513d601f19601f820116820180604052508101906107c29190611da5565b9050826002546107d29190611eb7565b81101561080b576040517ffc22003800000000000000000000000000000000000000000000000000000000815260040160405180910390fd5b83834243600254604051602001610826959493929190611f54565b604051602081830303815290604052805190602001209150600060056000848152602001908152602001600020600101541461088e576040517fc0098aac00000000000000000000000000000000000000000000000000000000815260040160405180910390fd5b82600260008282546108a09190611eb7565b9250508190555060405180606001604052808573ffffffffffffffffffffffffffffffffffffffff168152602001848152602001600015158152506005600084815260200190815260200160002060008201518160000160006101000a81548173ffffffffffffffffffffffffffffffffffffffff021916908373ffffffffffffffffffffffffffffffffffffffff1602179055506020820151816001015560408201518160020160006101000a81548160ff021916908315150217905550905050600660008573ffffffffffffffffffffffffffffffffffffffff1673ffffffffffffffffffffffffffffffffffffffff1681526020019081526020016000208290806001815401808255809150506001900390600052602060002001600090919091909150558373ffffffffffffffffffffffffffffffffffffffff16827f15144217405064631de951752111334f6d9db4be6cfff45346f7068ea857fcad85604051610a0f9190611ab0565b60405180910390a35092915050565b60008060007f000000000000000000000000000000000000000000000000000000000000000073ffffffffffffffffffffffffffffffffffffffff166370a08231856040518263ffffffff1660e01b8152600401610a7c9190611cf6565b602060405180830381865afa158015610a99573d6000803e3d6000fd5b505050506040513d601f19601f82011682018060405250810190610abd9190611da5565b7f000000000000000000000000000000000000000000000000000000000000000073ffffffffffffffffffffffffffffffffffffffff1663dd62ed3e86306040518363ffffffff1660e01b8152600401610b18929190611fb3565b602060405180830381865afa158015610b35573d6000803e3d6000fd5b505050506040513d601f19601f82011682018060405250810190610b599190611da5565b309250925092509193909250565b60008103610ba1576040517f1f2a200500000000000000000000000000000000000000000000000000000000815260040160405180910390fd5b60007f000000000000000000000000000000000000000000000000000000000000000073ffffffffffffffffffffffffffffffffffffffff166323b872dd3330856040518463ffffffff1660e01b8152600401610c0093929190611fdc565b6020604051808303816000875af1158015610c1f573d6000803e3d6000fd5b505050506040513d601f19601f82011682018060405250810190610c439190611e8a565b905080610c7c576040517f90b8ec1800000000000000000000000000000000000000000000000000000000815260040160405180910390fd5b3373ffffffffffffffffffffffffffffffffffffffff167fc200a1f31dd659e356e0f112c82558e25f49f7b0f84438691cd96f5cb355882383604051610cc29190611ab0565b60405180910390a25050565b60008054906101000a900473ffffffffffffffffffffffffffffffffffffffff1673ffffffffffffffffffffffffffffffffffffffff163373ffffffffffffffffffffffffffffffffffffffff1614610d53576040517f82b4290000000000000000000000000000000000000000000000000000000000815260040160405180910390fd5b806004600084815260200190815260200160002081905550817fc3f17324b83b26d327f1cfbd9ca233d915225309762161729642a4a04c963a4a82604051610d9b9190611ab0565b60405180910390a25050565b7f000000000000000000000000000000000000000000000000000000000000000081565b60015481565b60008054906101000a900473ffffffffffffffffffffffffffffffffffffffff1673ffffffffffffffffffffffffffffffffffffffff163373ffffffffffffffffffffffffffffffffffffffff1614610e56576040517f82b4290000000000000000000000000000000000000000000000000000000000815260040160405180910390fd5b806000806101000a81548173ffffffffffffffffffffffffffffffffffffffff021916908373ffffffffffffffffffffffffffffffffffffffff1602179055508073ffffffffffffffffffffffffffffffffffffffff167f3df77beb5db05fcdd70a30fc8adf3f83f9501b68579455adbd100b818094039460405160405180910390a250565b60008054906101000a900473ffffffffffffffffffffffffffffffffffffffff1681565b60006005600083815260200190815260200160002090506000816001015403610f55576040517fc0098aac00000000000000000000000000000000000000000000000000000000815260040160405180910390fd5b8060020160009054906101000a900460ff1615610f9e576040517f560ff90000000000000000000000000000000000000000000000000000000000815260040160405180910390fd5b8060000160009054906101000a900473ffffffffffffffffffffffffffffffffffffffff1673ffffffffffffffffffffffffffffffffffffffff163373ffffffffffffffffffffffffffffffffffffffff1614611027576040517f82b4290000000000000000000000000000000000000000000000000000000000815260040160405180910390fd5b80600101546002600082825461103d9190611e01565b9250508190555060018160020160006101000a81548160ff02191690831515021790555060007f000000000000000000000000000000000000000000000000000000000000000073ffffffffffffffffffffffffffffffffffffffff1663a9059cbb8360000160009054906101000a900473ffffffffffffffffffffffffffffffffffffffff1684600101546040518363ffffffff1660e01b81526004016110e6929190611e35565b6020604051808303816000875af1158015611105573d6000803e3d6000fd5b505050506040513d601f19601f820116820180604052508101906111299190611e8a565b905080611162576040517f90b8ec1800000000000000000000000000000000000000000000000000000000815260040160405180910390fd5b8160000160009054906101000a900473ffffffffffffffffffffffffffffffffffffffff1673ffffffffffffffffffffffffffffffffffffffff16837fb47d398c825a0f71f49c4fded299540689e40b98b4095dc747dee95312bf642d84600101546040516111d19190611ab0565b60405180910390a3505050565b600080600080600560008681526020019081526020016000206040518060600160405290816000820160009054906101000a900473ffffffffffffffffffffffffffffffffffffffff1673ffffffffffffffffffffffffffffffffffffffff1673ffffffffffffffffffffffffffffffffffffffff168152602001600182015481526020016002820160009054906101000a900460ff161515151581525050905060008160200151036112bd576040517fc0098aac00000000000000000000000000000000000000000000000000000000815260040160405180910390fd5b80600001518160200151826040015115935093509350509193909250565b60036020528060005260406000206000915090505481565b6006602052816000526040600020818154811061130f57600080fd5b90600052602060002001600091509150505481565b6000600660003373ffffffffffffffffffffffffffffffffffffffff1673ffffffffffffffffffffffffffffffffffffffff1681526020019081526020016000208054806020026020016040519081016040528092919081815260200182805480156113af57602002820191906000526020600020905b81548152602001906001019080831161139b575b5050505050905060008060005b835181101561153b5760008482815181106113da576113d9612013565b5b6020026020010151905060006005600083815260200190815260200160002090506000816001015411801561145e57503373ffffffffffffffffffffffffffffffffffffffff168160000160009054906101000a900473ffffffffffffffffffffffffffffffffffffffff1673ffffffffffffffffffffffffffffffffffffffff16145b801561147957508060020160009054906101000a900460ff16155b1561152c5760018160020160006101000a81548160ff0219169083151502179055508060010154600260008282546114b19190611e01565b925050819055508060010154856114c89190611eb7565b945083806114d590612042565b9450503373ffffffffffffffffffffffffffffffffffffffff16827fb47d398c825a0f71f49c4fded299540689e40b98b4095dc747dee95312bf642d83600101546040516115239190611ab0565b60405180910390a35b505080806001019150506113bc565b5060008203611576576040517f4fc4c16a00000000000000000000000000000000000000000000000000000000815260040160405180910390fd5b60007f000000000000000000000000000000000000000000000000000000000000000073ffffffffffffffffffffffffffffffffffffffff1663a9059cbb33856040518363ffffffff1660e01b81526004016115d3929190611e35565b6020604051808303816000875af11580156115f2573d6000803e3d6000fd5b505050506040513d601f19601f820116820180604052508101906116169190611e8a565b90508061164f576040517f90b8ec1800000000000000000000000000000000000000000000000000000000815260040160405180910390fd5b3373ffffffffffffffffffffffffffffffffffffffff167f04e42401f3579707778c2bff1b65c8ae5a8594758afc05fec76541afcd4c3a3b848460405161169792919061208a565b60405180910390a250505050565b600081036116df576040517f1f2a200500000000000000000000000000000000000000000000000000000000815260040160405180910390fd5b60007f000000000000000000000000000000000000000000000000000000000000000073ffffffffffffffffffffffffffffffffffffffff166370a08231306040518263ffffffff1660e01b815260040161173a9190611cf6565b602060405180830381865afa158015611757573d6000803e3d6000fd5b505050506040513d601f19601f8201168201806040525081019061177b9190611da5565b905060007f000000000000000000000000000000000000000000000000000000000000000073ffffffffffffffffffffffffffffffffffffffff166323b872dd3330866040518463ffffffff1660e01b81526004016117dc93929190611fdc565b6020604051808303816000875af11580156117fb573d6000803e3d6000fd5b505050506040513d601f19601f8201168201806040525081019061181f9190611e8a565b905080611858576040517f90b8ec1800000000000000000000000000000000000000000000000000000000815260040160405180910390fd5b60007f000000000000000000000000000000000000000000000000000000000000000073ffffffffffffffffffffffffffffffffffffffff166370a08231306040518263ffffffff1660e01b81526004016118b39190611cf6565b602060405180830381865afa1580156118d0573d6000803e3d6000fd5b505050506040513d601f19601f820116820180604052508101906118f49190611da5565b9050600083826119049190611e01565b905080600360003373ffffffffffffffffffffffffffffffffffffffff1673ffffffffffffffffffffffffffffffffffffffff16815260200190815260200160002060008282546119559190611eb7565b92505081905550806001600082825461196e9190611eb7565b925050819055503373ffffffffffffffffffffffffffffffffffffffff167fccb2ae3a2936bf4c94fa4e12cdf0cdad6ed0e4888a044cef89afa60f2e4b92d3826040516119bb9190611ab0565b60405180910390a25050505050565b60056020528060005260406000206000915090508060000160009054906101000a900473ffffffffffffffffffffffffffffffffffffffff16908060010154908060020160009054906101000a900460ff16905083565b60046020528060005260406000206000915090505481565b600080fd5b6000819050919050565b611a5181611a3e565b8114611a5c57600080fd5b50565b600081359050611a6e81611a48565b92915050565b600060208284031215611a8a57611a89611a39565b5b6000611a9884828501611a5f565b91505092915050565b611aaa81611a3e565b82525050565b6000602082019050611ac56000830184611aa1565b92915050565b600073ffffffffffffffffffffffffffffffffffffffff82169050919050565b6000611af682611acb565b9050919050565b611b0681611aeb565b8114611b1157600080fd5b50565b600081359050611b2381611afd565b92915050565b60008060408385031215611b4057611b3f611a39565b5b6000611b4e85828601611b14565b9250506020611b5f85828601611a5f565b9150509250929050565b6000819050919050565b611b7c81611b69565b82525050565b6000602082019050611b976000830184611b73565b92915050565b600060208284031215611bb357611bb2611a39565b5b6000611bc184828501611b14565b91505092915050565b611bd381611aeb565b82525050565b6000606082019050611bee6000830186611aa1565b611bfb6020830185611aa1565b611c086040830184611bca565b949350505050565b611c1981611b69565b8114611c2457600080fd5b50565b600081359050611c3681611c10565b92915050565b60008060408385031215611c5357611c52611a39565b5b6000611c6185828601611c27565b9250506020611c7285828601611a5f565b9150509250929050565b6000819050919050565b6000611ca1611c9c611c9784611acb565b611c7c565b611acb565b9050919050565b6000611cb382611c86565b9050919050565b6000611cc582611ca8565b9050919050565b611cd581611cba565b82525050565b6000602082019050611cf06000830184611ccc565b92915050565b6000602082019050611d0b6000830184611bca565b92915050565b600060208284031215611d2757611d26611a39565b5b6000611d3584828501611c27565b91505092915050565b60008115159050919050565b611d5381611d3e565b82525050565b6000606082019050611d6e6000830186611bca565b611d7b6020830185611aa1565b611d886040830184611d4a565b949350505050565b600081519050611d9f81611a48565b92915050565b600060208284031215611dbb57611dba611a39565b5b6000611dc984828501611d90565b91505092915050565b7f4e487b7100000000000000000000000000000000000000000000000000000000600052601160045260246000fd5b6000611e0c82611a3e565b9150611e1783611a3e565b9250828203905081811115611e2f57611e2e611dd2565b5b92915050565b6000604082019050611e4a6000830185611bca565b611e576020830184611aa1565b9392505050565b611e6781611d3e565b8114611e7257600080fd5b50565b600081519050611e8481611e5e565b92915050565b600060208284031215611ea057611e9f611a39565b5b6000611eae84828501611e75565b91505092915050565b6000611ec282611a3e565b9150611ecd83611a3e565b9250828201905080821115611ee557611ee4611dd2565b5b92915050565b60008160601b9050919050565b6000611f0382611eeb565b9050919050565b6000611f1582611ef8565b9050919050565b611f2d611f2882611aeb565b611f0a565b82525050565b6000819050919050565b611f4e611f4982611a3e565b611f33565b82525050565b6000611f608288611f1c565b601482019150611f708287611f3d565b602082019150611f808286611f3d565b602082019150611f908285611f3d565b602082019150611fa08284611f3d565b6020820191508190509695505050505050565b6000604082019050611fc86000830185611bca565b611fd56020830184611bca565b9392505050565b6000606082019050611ff16000830186611bca565b611ffe6020830185611bca565b61200b6040830184611aa1565b949350505050565b7f4e487b7100000000000000000000000000000000000000000000000000000000600052603260045260246000fd5b600061204d82611a3e565b91507fffffffffffffffffffffffffffffffffffffffffffffffffffffffffffffffff820361207f5761207e611dd2565b5b600182019050919050565b600060408201905061209f6000830185611aa1565b6120ac6020830184611aa1565b939250505056fea2646970667358221220fc3d283cbae4e896a36e398217be65a0d6a8ab2989b5cee757532f9c52424b2664736f6c634300081e0033",
					"opcodes": "PUSH1 0xA0 PUSH1 0x40 MSTORE CALLVALUE DUP1 ISZERO PUSH2 0x10 JUMPI PUSH1 0x0 DUP1 REVERT JUMPDEST POP PUSH1 0x40 MLOAD PUSH2 0x228D CODESIZE SUB DUP1 PUSH2 0x228D DUP4 CODECOPY DUP2 DUP2 ADD PUSH1 0x40 MSTORE DUP2 ADD SWAP1 PUSH2 0x32 SWAP2 SWAP1 PUSH2 0x10F JUMP JUMPDEST CALLER PUSH1 0x0 DUP1 PUSH2 0x100 EXP DUP2 SLOAD DUP2 PUSH20 0xFFFFFFFFFFFFFFFFFFFFFFFFFFFFFFFFFFFFFFFF MUL NOT AND SWAP1 DUP4 PUSH20 0xFFFFFFFFFFFFFFFFFFFFFFFFFFFFFFFFFFFFFFFF AND MUL OR SWAP1 SSTORE POP DUP1 PUSH20 0xFFFFFFFFFFFFFFFFFFFFFFFFFFFFFFFFFFFFFFFF AND PUSH1 0x80 DUP2 PUSH20 0xFFFFFFFFFFFFFFFFFFFFFFFFFFFFFFFFFFFFFFFF AND DUP2 MSTORE POP POP POP PUSH2 0x13C JUMP JUMPDEST PUSH1 0x0 DUP1 REVERT JUMPDEST PUSH1 0x0 PUSH20 0xFFFFFFFFFFFFFFFFFFFFFFFFFFFFFFFFFFFFFFFF DUP3 AND SWAP1 POP SWAP2 SWAP1 POP JUMP JUMPDEST PUSH1 0x0 PUSH2 0xDC DUP3 PUSH2 0xB1 JUMP JUMPDEST SWAP1 POP SWAP2 SWAP1 POP JUMP JUMPDEST PUSH2 0xEC DUP2 PUSH2 0xD1 JUMP JUMPDEST DUP2 EQ PUSH2 0xF7 JUMPI PUSH1 0x0 DUP1 REVERT JUMPDEST POP JUMP JUMPDEST PUSH1 0x0 DUP2 MLOAD SWAP1 POP PUSH2 0x109 DUP2 PUSH2 0xE3 JUMP JUMPDEST SWAP3 SWAP2 POP POP JUMP JUMPDEST PUSH1 0x0 PUSH1 0x20 DUP3 DUP5 SUB SLT ISZERO PUSH2 0x125 JUMPI PUSH2 0x124 PUSH2 0xAC JUMP JUMPDEST JUMPDEST PUSH1 0x0 PUSH2 0x133 DUP5 DUP3 DUP6 ADD PUSH2 0xFA JUMP JUMPDEST SWAP2 POP POP SWAP3 SWAP2 POP POP JUMP JUMPDEST PUSH1 0x80 MLOAD PUSH2 0x20E9 PUSH2 0x1A4 PUSH1 0x0 CODECOPY PUSH1 0x0 DUP2 DUP2 PUSH2 0x452 ADD MSTORE DUP2 DUP2 PUSH2 0x5BC ADD MSTORE DUP2 DUP2 PUSH2 0x72A ADD MSTORE DUP2 DUP2 PUSH2 0xA25 ADD MSTORE DUP2 DUP2 PUSH2 0xABF ADD MSTORE DUP2 DUP2 PUSH2 0xBA5 ADD MSTORE DUP2 DUP2 PUSH2 0xDA9 ADD MSTORE DUP2 DUP2 PUSH2 0x1065 ADD MSTORE DUP2 DUP2 PUSH2 0x157A ADD MSTORE DUP2 DUP2 PUSH2 0x16E3 ADD MSTORE DUP2 DUP2 PUSH2 0x1781 ADD MSTORE PUSH2 0x185C ADD MSTORE PUSH2 0x20E9 PUSH1 0x0 RETURN INVALID PUSH1 0x80 PUSH1 0x40 MSTORE CALLVALUE DUP1 ISZERO PUSH2 0x10 JUMPI PUSH1 0x0 DUP1 REVERT JUMPDEST POP PUSH1 0x4 CALLDATASIZE LT PUSH2 0x116 JUMPI PUSH1 0x0 CALLDATALOAD PUSH1 0xE0 SHR DUP1 PUSH4 0x7DC0D1D0 GT PUSH2 0xA2 JUMPI DUP1 PUSH4 0xBB7B02FE GT PUSH2 0x71 JUMPI DUP1 PUSH4 0xBB7B02FE EQ PUSH2 0x2E3 JUMPI DUP1 PUSH4 0xD1058E59 EQ PUSH2 0x313 JUMPI DUP1 PUSH4 0xEB521A4C EQ PUSH2 0x31D JUMPI DUP1 PUSH4 0xEF6CF04D EQ PUSH2 0x339 JUMPI DUP1 PUSH4 0xF1941CE9 EQ PUSH2 0x36B JUMPI PUSH2 0x116 JUMP JUMPDEST DUP1 PUSH4 0x7DC0D1D0 EQ PUSH2 0x247 JUMPI DUP1 PUSH4 0x7E1E2B7A EQ PUSH2 0x265 JUMPI DUP1 PUSH4 0x8174794E EQ PUSH2 0x281 JUMPI DUP1 PUSH4 0xA27A944D EQ PUSH2 0x2B3 JUMPI PUSH2 0x116 JUMP JUMPDEST DUP1 PUSH4 0x371FD8E6 GT PUSH2 0xE9 JUMPI DUP1 PUSH4 0x371FD8E6 EQ PUSH2 0x1B7 JUMPI DUP1 PUSH4 0x3C1166F3 EQ PUSH2 0x1D3 JUMPI DUP1 PUSH4 0x3E413BEE EQ PUSH2 0x1EF JUMPI DUP1 PUSH4 0x6D7C218B EQ PUSH2 0x20D JUMPI DUP1 PUSH4 0x7ADBF973 EQ PUSH2 0x22B JUMPI PUSH2 0x116 JUMP JUMPDEST DUP1 PUSH4 0xA861F2A EQ PUSH2 0x11B JUMPI DUP1 PUSH4 0xD9D93D9 EQ PUSH2 0x137 JUMPI DUP1 PUSH4 0x12E382B4 EQ PUSH2 0x155 JUMPI DUP1 PUSH4 0x1F668CDB EQ PUSH2 0x185 JUMPI JUMPDEST PUSH1 0x0 DUP1 REVERT JUMPDEST PUSH2 0x135 PUSH1 0x4 DUP1 CALLDATASIZE SUB DUP2 ADD SWAP1 PUSH2 0x130 SWAP2 SWAP1 PUSH2 0x1A74 JUMP JUMPDEST PUSH2 0x39B JUMP JUMPDEST STOP JUMPDEST PUSH2 0x13F PUSH2 0x6E5 JUMP JUMPDEST PUSH1 0x40 MLOAD PUSH2 0x14C SWAP2 SWAP1 PUSH2 0x1AB0 JUMP JUMPDEST PUSH1 0x40 MLOAD DUP1 SWAP2 SUB SWAP1 RETURN JUMPDEST PUSH2 0x16F PUSH1 0x4 DUP1 CALLDATASIZE SUB DUP2 ADD SWAP1 PUSH2 0x16A SWAP2 SWAP1 PUSH2 0x1B29 JUMP JUMPDEST PUSH2 0x6EB JUMP JUMPDEST PUSH1 0x40 MLOAD PUSH2 0x17C SWAP2 SWAP1 PUSH2 0x1B82 JUMP JUMPDEST PUSH1 0x40 MLOAD DUP1 SWAP2 SUB SWAP1 RETURN JUMPDEST PUSH2 0x19F PUSH1 0x4 DUP1 CALLDATASIZE SUB DUP2 ADD SWAP1 PUSH2 0x19A SWAP2 SWAP1 PUSH2 0x1B9D JUMP JUMPDEST PUSH2 0xA1E JUMP JUMPDEST PUSH1 0x40 MLOAD PUSH2 0x1AE SWAP4 SWAP3 SWAP2 SWAP1 PUSH2 0x1BD9 JUMP JUMPDEST PUSH1 0x40 MLOAD DUP1 SWAP2 SUB SWAP1 RETURN JUMPDEST PUSH2 0x1D1 PUSH1 0x4 DUP1 CALLDATASIZE SUB DUP2 ADD SWAP1 PUSH2 0x1CC SWAP2 SWAP1 PUSH2 0x1A74 JUMP JUMPDEST PUSH2 0xB67 JUMP JUMPDEST STOP JUMPDEST PUSH2 0x1ED PUSH1 0x4 DUP1 CALLDATASIZE SUB DUP2 ADD SWAP1 PUSH2 0x1E8 SWAP2 SWAP1 PUSH2 0x1C3C JUMP JUMPDEST PUSH2 0xCCE JUMP JUMPDEST STOP JUMPDEST PUSH2 0x1F7 PUSH2 0xDA7 JUMP JUMPDEST PUSH1 0x40 MLOAD PUSH2 0x204 SWAP2 SWAP1 PUSH2 0x1CDB JUMP JUMPDEST PUSH1 0x40 MLOAD DUP1 SWAP2 SUB SWAP1 RETURN JUMPDEST PUSH2 0x215 PUSH2 0xDCB JUMP JUMPDEST PUSH1 0x40 MLOAD PUSH2 0x222 SWAP2 SWAP1 PUSH2 0x1AB0 JUMP JUMPDEST PUSH1 0x40 MLOAD DUP1 SWAP2 SUB SWAP1 RETURN JUMPDEST PUSH2 0x245 PUSH1 0x4 DUP1 CALLDATASIZE SUB DUP2 ADD SWAP1 PUSH2 0x240 SWAP2 SWAP1 PUSH2 0x1B9D JUMP JUMPDEST PUSH2 0xDD1 JUMP JUMPDEST STOP JUMPDEST PUSH2 0x24F PUSH2 0xEDC JUMP JUMPDEST PUSH1 0x40 MLOAD PUSH2 0x25C SWAP2 SWAP1 PUSH2 0x1CF6 JUMP JUMPDEST PUSH1 0x40 MLOAD DUP1 SWAP2 SUB SWAP1 RETURN JUMPDEST PUSH2 0x27F PUSH1 0x4 DUP1 CALLDATASIZE SUB DUP2 ADD SWAP1 PUSH2 0x27A SWAP2 SWAP1 PUSH2 0x1D11 JUMP JUMPDEST PUSH2 0xF00 JUMP JUMPDEST STOP JUMPDEST PUSH2 0x29B PUSH1 0x4 DUP1 CALLDATASIZE SUB DUP2 ADD SWAP1 PUSH2 0x296 SWAP2 SWAP1 PUSH2 0x1D11 JUMP JUMPDEST PUSH2 0x11DE JUMP JUMPDEST PUSH1 0x40 MLOAD PUSH2 0x2AA SWAP4 SWAP3 SWAP2 SWAP1 PUSH2 0x1D59 JUMP JUMPDEST PUSH1 0x40 MLOAD DUP1 SWAP2 SUB SWAP1 RETURN JUMPDEST PUSH2 0x2CD PUSH1 0x4 DUP1 CALLDATASIZE SUB DUP2 ADD SWAP1 PUSH2 0x2C8 SWAP2 SWAP1 PUSH2 0x1B9D JUMP JUMPDEST PUSH2 0x12DB JUMP JUMPDEST PUSH1 0x40 MLOAD PUSH2 0x2DA SWAP2 SWAP1 PUSH2 0x1AB0 JUMP JUMPDEST PUSH1 0x40 MLOAD DUP1 SWAP2 SUB SWAP1 RETURN JUMPDEST PUSH2 0x2FD PUSH1 0x4 DUP1 CALLDATASIZE SUB DUP2 ADD SWAP1 PUSH2 0x2F8 SWAP2 SWAP1 PUSH2 0x1B29 JUMP JUMPDEST PUSH2 0x12F3 JUMP JUMPDEST PUSH1 0x40 MLOAD PUSH2 0x30A SWAP2 SWAP1 PUSH2 0x1B82 JUMP JUMPDEST PUSH1 0x40 MLOAD DUP1 SWAP2 SUB SWAP1 RETURN JUMPDEST PUSH2 0x31B PUSH2 0x1324 JUMP JUMPDEST STOP JUMPDEST PUSH2 0x337 PUSH1 0x4 DUP1 CALLDATASIZE SUB DUP2 ADD SWAP1 PUSH2 0x332 SWAP2 SWAP1 PUSH2 0x1A74 JUMP JUMPDEST PUSH2 0x16A5 JUMP JUMPDEST STOP JUMPDEST PUSH2 0x353 PUSH1 0x4 DUP1 CALLDATASIZE SUB DUP2 ADD SWAP1 PUSH2 0x34E SWAP2 SWAP1 PUSH2 0x1D11 JUMP JUMPDEST PUSH2 0x19CA JUMP JUMPDEST PUSH1 0x40 MLOAD PUSH2 0x362 SWAP4 SWAP3 SWAP2 SWAP1 PUSH2 0x1D59 JUMP JUMPDEST PUSH1 0x40 MLOAD DUP1 SWAP2 SUB SWAP1 RETURN JUMPDEST PUSH2 0x385 PUSH1 0x4 DUP1 CALLDATASIZE SUB DUP2 ADD SWAP1 PUSH2 0x380 SWAP2 SWAP1 PUSH2 0x1D11 JUMP JUMPDEST PUSH2 0x1A21 JUMP JUMPDEST PUSH1 0x40 MLOAD PUSH2 0x392 SWAP2 SWAP1 PUSH2 0x1AB0 JUMP JUMPDEST PUSH1 0x40 MLOAD DUP1 SWAP2 SUB SWAP1 RETURN JUMPDEST PUSH1 0x0 DUP2 SUB PUSH2 0x3D5 JUMPI PUSH1 0x40 MLOAD PUSH32 0x1F2A200500000000000000000000000000000000000000000000000000000000 DUP2 MSTORE PUSH1 0x4 ADD PUSH1 0x40 MLOAD DUP1 SWAP2 SUB SWAP1 REVERT JUMPDEST DUP1 PUSH1 0x3 PUSH1 0x0 CALLER PUSH20 0xFFFFFFFFFFFFFFFFFFFFFFFFFFFFFFFFFFFFFFFF AND PUSH20 0xFFFFFFFFFFFFFFFFFFFFFFFFFFFFFFFFFFFFFFFF AND DUP2 MSTORE PUSH1 0x20 ADD SWAP1 DUP2 MSTORE PUSH1 0x20 ADD PUSH1 0x0 KECCAK256 SLOAD LT ISZERO PUSH2 0x44E JUMPI PUSH1 0x40 MLOAD PUSH32 0xF4D678B800000000000000000000000000000000000000000000000000000000 DUP2 MSTORE PUSH1 0x4 ADD PUSH1 0x40 MLOAD DUP1 SWAP2 SUB SWAP1 REVERT JUMPDEST PUSH1 0x0 PUSH32 0x0 PUSH20 0xFFFFFFFFFFFFFFFFFFFFFFFFFFFFFFFFFFFFFFFF AND PUSH4 0x70A08231 ADDRESS PUSH1 0x40 MLOAD DUP3 PUSH4 0xFFFFFFFF AND PUSH1 0xE0 SHL DUP2 MSTORE PUSH1 0x4 ADD PUSH2 0x4A9 SWAP2 SWAP1 PUSH2 0x1CF6 JUMP JUMPDEST PUSH1 0x20 PUSH1 0x40 MLOAD DUP1 DUP4 SUB DUP2 DUP7 GAS STATICCALL ISZERO DUP1 ISZERO PUSH2 0x4C6 JUMPI RETURNDATASIZE PUSH1 0x0 DUP1 RETURNDATACOPY RETURNDATASIZE PUSH1 0x0 REVERT JUMPDEST POP POP POP POP PUSH1 0x40 MLOAD RETURNDATASIZE PUSH1 0x1F NOT PUSH1 0x1F DUP3 ADD AND DUP3 ADD DUP1 PUSH1 0x40 MSTORE POP DUP2 ADD SWAP1 PUSH2 0x4EA SWAP2 SWAP1 PUSH2 0x1DA5 JUMP JUMPDEST SWAP1 POP PUSH1 0x0 PUSH1 0x2 SLOAD DUP3 GT PUSH2 0x4FE JUMPI PUSH1 0x0 PUSH2 0x50D JUMP JUMPDEST PUSH1 0x2 SLOAD DUP3 PUSH2 0x50C SWAP2 SWAP1 PUSH2 0x1E01 JUMP JUMPDEST JUMPDEST SWAP1 POP DUP3 DUP2 LT ISZERO PUSH2 0x549 JUMPI PUSH1 0x40 MLOAD PUSH32 0xFC22003800000000000000000000000000000000000000000000000000000000 DUP2 MSTORE PUSH1 0x4 ADD PUSH1 0x40 MLOAD DUP1 SWAP2 SUB SWAP1 REVERT JUMPDEST DUP3 PUSH1 0x3 PUSH1 0x0 CALLER PUSH20 0xFFFFFFFFFFFFFFFFFFFFFFFFFFFFFFFFFFFFFFFF AND PUSH20 0xFFFFFFFFFFFFFFFFFFFFFFFFFFFFFFFFFFFFFFFF AND DUP2 MSTORE PUSH1 0x20 ADD SWAP1 DUP2 MSTORE PUSH1 0x20 ADD PUSH1 0x0 KECCAK256 PUSH1 0x0 DUP3 DUP3 SLOAD PUSH2 0x598 SWAP2 SWAP1 PUSH2 0x1E01 JUMP JUMPDEST SWAP3 POP POP DUP2 SWAP1 SSTORE POP DUP3 PUSH1 0x1 PUSH1 0x0 DUP3 DUP3 SLOAD PUSH2 0x5B1 SWAP2 SWAP1 PUSH2 0x1E01 JUMP JUMPDEST SWAP3 POP POP DUP2 SWAP1 SSTORE POP PUSH1 0x0 PUSH32 0x0 PUSH20 0xFFFFFFFFFFFFFFFFFFFFFFFFFFFFFFFFFFFFFFFF AND PUSH4 0xA9059CBB CALLER DUP7 PUSH1 0x40 MLOAD DUP4 PUSH4 0xFFFFFFFF AND PUSH1 0xE0 SHL DUP2 MSTORE PUSH1 0x4 ADD PUSH2 0x615 SWAP3 SWAP2 SWAP1 PUSH2 0x1E35 JUMP JUMPDEST PUSH1 0x20 PUSH1 0x40 MLOAD DUP1 DUP4 SUB DUP2 PUSH1 0x0 DUP8 GAS CALL ISZERO DUP1 ISZERO PUSH2 0x634 JUMPI RETURNDATASIZE PUSH1 0x0 DUP1 RETURNDATACOPY RETURNDATASIZE PUSH1 0x0 REVERT JUMPDEST POP POP POP POP PUSH1 0x40 MLOAD RETURNDATASIZE PUSH1 0x1F NOT PUSH1 0x1F DUP3 ADD AND DUP3 ADD DUP1 PUSH1 0x40 MSTORE POP DUP2 ADD SWAP1 PUSH2 0x658 SWAP2 SWAP1 PUSH2 0x1E8A JUMP JUMPDEST SWAP1 POP DUP1 PUSH2 0x691 JUMPI PUSH1 0x40 MLOAD PUSH32 0x90B8EC1800000000000000000000000000000000000000000000000000000000 DUP2 MSTORE PUSH1 0x4 ADD PUSH1 0x40 MLOAD DUP1 SWAP2 SUB SWAP1 REVERT JUMPDEST CALLER PUSH20 0xFFFFFFFFFFFFFFFFFFFFFFFFFFFFFFFFFFFFFFFF AND PUSH32 0xB1CCE8684B4FFA8667B4577654E61EE3480D661EE9C27522AC80E211F6BD4D25 DUP6 PUSH1 0x40 MLOAD PUSH2 0x6D7 SWAP2 SWAP1 PUSH2 0x1AB0 JUMP JUMPDEST PUSH1 0x40 MLOAD DUP1 SWAP2 SUB SWAP1 LOG2 POP POP POP POP JUMP JUMPDEST PUSH1 0x2 SLOAD DUP2 JUMP JUMPDEST PUSH1 0x0 DUP1 DUP3 SUB PUSH2 0x726 JUMPI PUSH1 0x40 MLOAD PUSH32 0x1F2A200500000000000000000000000000000000000000000000000000000000 DUP2 MSTORE PUSH1 0x4 ADD PUSH1 0x40 MLOAD DUP1 SWAP2 SUB SWAP1 REVERT JUMPDEST PUSH1 0x0 PUSH32 0x0 PUSH20 0xFFFFFFFFFFFFFFFFFFFFFFFFFFFFFFFFFFFFFFFF AND PUSH4 0x70A08231 ADDRESS PUSH1 0x40 MLOAD DUP3 PUSH4 0xFFFFFFFF AND PUSH1 0xE0 SHL DUP2 MSTORE PUSH1 0x4 ADD PUSH2 0x781 SWAP2 SWAP1 PUSH2 0x1CF6 JUMP JUMPDEST PUSH1 0x20 PUSH1 0x40 MLOAD DUP1 DUP4 SUB DUP2 DUP7 GAS STATICCALL ISZERO DUP1 ISZERO PUSH2 0x79E JUMPI RETURNDATASIZE PUSH1 0x0 DUP1 RETURNDATACOPY RETURNDATASIZE PUSH1 0x0 REVERT JUMPDEST POP POP POP POP PUSH1 0x40 MLOAD RETURNDATASIZE PUSH1 0x1F NOT PUSH1 0x1F DUP3 ADD AND DUP3 ADD DUP1 PUSH1 0x40 MSTORE POP DUP2 ADD SWAP1 PUSH2 0x7C2 SWAP2 SWAP1 PUSH2 0x1DA5 JUMP JUMPDEST SWAP1 POP DUP3 PUSH1 0x2 SLOAD PUSH2 0x7D2 SWAP2 SWAP1 PUSH2 0x1EB7 JUMP JUMPDEST DUP2 LT ISZERO PUSH2 0x80B JUMPI PUSH1 0x40 MLOAD PUSH32 0xFC22003800000000000000000000000000000000000000000000000000000000 DUP2 MSTORE PUSH1 0x4 ADD PUSH1 0x40 MLOAD DUP1 SWAP2 SUB SWAP1 REVERT JUMPDEST DUP4 DUP4 TIMESTAMP NUMBER PUSH1 0x2 SLOAD PUSH1 0x40 MLOAD PUSH1 0x20 ADD PUSH2 0x826 SWAP6 SWAP5 SWAP4 SWAP3 SWAP2 SWAP1 PUSH2 0x1F54 JUMP JUMPDEST PUSH1 0x40 MLOAD PUSH1 0x20 DUP2 DUP4 SUB SUB DUP2 MSTORE SWAP1 PUSH1 0x40 MSTORE DUP1 MLOAD SWAP1 PUSH1 0x20 ADD KECCAK256 SWAP2 POP PUSH1 0x0 PUSH1 0x5 PUSH1 0x0 DUP5 DUP2 MSTORE PUSH1 0x20 ADD SWAP1 DUP2 MSTORE PUSH1 0x20 ADD PUSH1 0x0 KECCAK256 PUSH1 0x1 ADD SLOAD EQ PUSH2 0x88E JUMPI PUSH1 0x40 MLOAD PUSH32 0xC0098AAC00000000000000000000000000000000000000000000000000000000 DUP2 MSTORE PUSH1 0x4 ADD PUSH1 0x40 MLOAD DUP1 SWAP2 SUB SWAP1 REVERT JUMPDEST DUP3 PUSH1 0x2 PUSH1 0x0 DUP3 DUP3 SLOAD PUSH2 0x8A0 SWAP2 SWAP1 PUSH2 0x1EB7 JUMP JUMPDEST SWAP3 POP POP DUP2 SWAP1 SSTORE POP PUSH1 0x40 MLOAD DUP1 PUSH1 0x60 ADD PUSH1 0x40 MSTORE DUP1 DUP6 PUSH20 0xFFFFFFFFFFFFFFFFFFFFFFFFFFFFFFFFFFFFFFFF AND DUP2 MSTORE PUSH1 0x20 ADD DUP5 DUP2 MSTORE PUSH1 0x20 ADD PUSH1 0x0 ISZERO ISZERO DUP2 MSTORE POP PUSH1 0x5 PUSH1 0x0 DUP5 DUP2 MSTORE PUSH1 0x20 ADD SWAP1 DUP2 MSTORE PUSH1 0x20 ADD PUSH1 0x0 KECCAK256 PUSH1 0x0 DUP3 ADD MLOAD DUP2 PUSH1 0x0 ADD PUSH1 0x0 PUSH2 0x100 EXP DUP2 SLOAD DUP2 PUSH20 0xFFFFFFFFFFFFFFFFFFFFFFFFFFFFFFFFFFFFFFFF MUL NOT AND SWAP1 DUP4 PUSH20 0xFFFFFFFFFFFFFFFFFFFFFFFFFFFFFFFFFFFFFFFF AND MUL OR SWAP1 SSTORE POP PUSH1 0x20 DUP3 ADD MLOAD DUP2 PUSH1 0x1 ADD SSTORE PUSH1 0x40 DUP3 ADD MLOAD DUP2 PUSH1 0x2 ADD PUSH1 0x0 PUSH2 0x100 EXP DUP2 SLOAD DUP2 PUSH1 0xFF MUL NOT AND SWAP1 DUP4 ISZERO ISZERO MUL OR SWAP1 SSTORE POP SWAP1 POP POP PUSH1 0x6 PUSH1 0x0 DUP6 PUSH20 0xFFFFFFFFFFFFFFFFFFFFFFFFFFFFFFFFFFFFFFFF AND PUSH20 0xFFFFFFFFFFFFFFFFFFFFFFFFFFFFFFFFFFFFFFFF AND DUP2 MSTORE PUSH1 0x20 ADD SWAP1 DUP2 MSTORE PUSH1 0x20 ADD PUSH1 0x0 KECCAK256 DUP3 SWAP1 DUP1 PUSH1 0x1 DUP2 SLOAD ADD DUP1 DUP3 SSTORE DUP1 SWAP2 POP POP PUSH1 0x1 SWAP1 SUB SWAP1 PUSH1 0x0 MSTORE PUSH1 0x20 PUSH1 0x0 KECCAK256 ADD PUSH1 0x0 SWAP1 SWAP2 SWAP1 SWAP2 SWAP1 SWAP2 POP SSTORE DUP4 PUSH20 0xFFFFFFFFFFFFFFFFFFFFFFFFFFFFFFFFFFFFFFFF AND DUP3 PUSH32 0x15144217405064631DE951752111334F6D9DB4BE6CFFF45346F7068EA857FCAD DUP6 PUSH1 0x40 MLOAD PUSH2 0xA0F SWAP2 SWAP1 PUSH2 0x1AB0 JUMP JUMPDEST PUSH1 0x40 MLOAD DUP1 SWAP2 SUB SWAP1 LOG3 POP SWAP3 SWAP2 POP POP JUMP JUMPDEST PUSH1 0x0 DUP1 PUSH1 0x0 PUSH32 0x0 PUSH20 0xFFFFFFFFFFFFFFFFFFFFFFFFFFFFFFFFFFFFFFFF AND PUSH4 0x70A08231 DUP6 PUSH1 0x40 MLOAD DUP3 PUSH4 0xFFFFFFFF AND PUSH1 0xE0 SHL DUP2 MSTORE PUSH1 0x4 ADD PUSH2 0xA7C SWAP2 SWAP1 PUSH2 0x1CF6 JUMP JUMPDEST PUSH1 0x20 PUSH1 0x40 MLOAD DUP1 DUP4 SUB DUP2 DUP7 GAS STATICCALL ISZERO DUP1 ISZERO PUSH2 0xA99 JUMPI RETURNDATASIZE PUSH1 0x0 DUP1 RETURNDATACOPY RETURNDATASIZE PUSH1 0x0 REVERT JUMPDEST POP POP POP POP PUSH1 0x40 MLOAD RETURNDATASIZE PUSH1 0x1F NOT PUSH1 0x1F DUP3 ADD AND DUP3 ADD DUP1 PUSH1 0x40 MSTORE POP DUP2 ADD SWAP1 PUSH2 0xABD SWAP2 SWAP1 PUSH2 0x1DA5 JUMP JUMPDEST PUSH32 0x0 PUSH20 0xFFFFFFFFFFFFFFFFFFFFFFFFFFFFFFFFFFFFFFFF AND PUSH4 0xDD62ED3E DUP7 ADDRESS PUSH1 0x40 MLOAD DUP4 PUSH4 0xFFFFFFFF AND PUSH1 0xE0 SHL DUP2 MSTORE PUSH1 0x4 ADD PUSH2 0xB18 SWAP3 SWAP2 SWAP1 PUSH2 0x1FB3 JUMP JUMPDEST PUSH1 0x20 PUSH1 0x40 MLOAD DUP1 DUP4 SUB DUP2 DUP7 GAS STATICCALL ISZERO DUP1 ISZERO PUSH2 0xB35 JUMPI RETURNDATASIZE PUSH1 0x0 DUP1 RETURNDATACOPY RETURNDATASIZE PUSH1 0x0 REVERT JUMPDEST POP POP POP POP PUSH1 0x40 MLOAD RETURNDATASIZE PUSH1 0x1F NOT PUSH1 0x1F DUP3 ADD AND DUP3 ADD DUP1 PUSH1 0x40 MSTORE POP DUP2 ADD SWAP1 PUSH2 0xB59 SWAP2 SWAP1 PUSH2 0x1DA5 JUMP JUMPDEST ADDRESS SWAP3 POP SWAP3 POP SWAP3 POP SWAP2 SWAP4 SWAP1 SWAP3 POP JUMP JUMPDEST PUSH1 0x0 DUP2 SUB PUSH2 0xBA1 JUMPI PUSH1 0x40 MLOAD PUSH32 0x1F2A200500000000000000000000000000000000000000000000000000000000 DUP2 MSTORE PUSH1 0x4 ADD PUSH1 0x40 MLOAD DUP1 SWAP2 SUB SWAP1 REVERT JUMPDEST PUSH1 0x0 PUSH32 0x0 PUSH20 0xFFFFFFFFFFFFFFFFFFFFFFFFFFFFFFFFFFFFFFFF AND PUSH4 0x23B872DD CALLER ADDRESS DUP6 PUSH1 0x40 MLOAD DUP5 PUSH4 0xFFFFFFFF AND PUSH1 0xE0 SHL DUP2 MSTORE PUSH1 0x4 ADD PUSH2 0xC00 SWAP4 SWAP3 SWAP2 SWAP1 PUSH2 0x1FDC JUMP JUMPDEST PUSH1 0x20 PUSH1 0x40 MLOAD DUP1 DUP4 SUB DUP2 PUSH1 0x0 DUP8 GAS CALL ISZERO DUP1 ISZERO PUSH2 0xC1F JUMPI RETURNDATASIZE PUSH1 0x0 DUP1 RETURNDATACOPY RETURNDATASIZE PUSH1 0x0 REVERT JUMPDEST POP POP POP POP PUSH1 0x40 MLOAD RETURNDATASIZE PUSH1 0x1F NOT PUSH1 0x1F DUP3 ADD AND DUP3 ADD DUP1 PUSH1 0x40 MSTORE POP DUP2 ADD SWAP1 PUSH2 0xC43 SWAP2 SWAP1 PUSH2 0x1E8A JUMP JUMPDEST SWAP1 POP DUP1 PUSH2 0xC7C JUMPI PUSH1 0x40 MLOAD PUSH32 0x90B8EC1800000000000000000000000000000000000000000000000000000000 DUP2 MSTORE PUSH1 0x4 ADD PUSH1 0x40 MLOAD DUP1 SWAP2 SUB SWAP1 REVERT JUMPDEST CALLER PUSH20 0xFFFFFFFFFFFFFFFFFFFFFFFFFFFFFFFFFFFFFFFF AND PUSH32 0xC200A1F31DD659E356E0F112C82558E25F49F7B0F84438691CD96F5CB3558823 DUP4 PUSH1 0x40 MLOAD PUSH2 0xCC2 SWAP2 SWAP1 PUSH2 0x1AB0 JUMP JUMPDEST PUSH1 0x40 MLOAD DUP1 SWAP2 SUB SWAP1 LOG2 POP POP JUMP JUMPDEST PUSH1 0x0 DUP1 SLOAD SWAP1 PUSH2 0x100 EXP SWAP1 DIV PUSH20 0xFFFFFFFFFFFFFFFFFFFFFFFFFFFFFFFFFFFFFFFF AND PUSH20 0xFFFFFFFFFFFFFFFFFFFFFFFFFFFFFFFFFFFFFFFF AND CALLER PUSH20 0xFFFFFFFFFFFFFFFFFFFFFFFFFFFFFFFFFFFFFFFF AND EQ PUSH2 0xD53 JUMPI PUSH1 0x40 MLOAD PUSH32 0x82B4290000000000000000000000000000000000000000000000000000000000 DUP2 MSTORE PUSH1 0x4 ADD PUSH1 0x40 MLOAD DUP1 SWAP2 SUB SWAP1 REVERT JUMPDEST DUP1 PUSH1 0x4 PUSH1 0x0 DUP5 DUP2 MSTORE PUSH1 0x20 ADD SWAP1 DUP2 MSTORE PUSH1 0x20 ADD PUSH1 0x0 KECCAK256 DUP2 SWAP1 SSTORE POP DUP2 PUSH32 0xC3F17324B83B26D327F1CFBD9CA233D915225309762161729642A4A04C963A4A DUP3 PUSH1 0x40 MLOAD PUSH2 0xD9B SWAP2 SWAP1 PUSH2 0x1AB0 JUMP JUMPDEST PUSH1 0x40 MLOAD DUP1 SWAP2 SUB SWAP1 LOG2 POP POP JUMP JUMPDEST PUSH32 0x0 DUP2 JUMP JUMPDEST PUSH1 0x1 SLOAD DUP2 JUMP JUMPDEST PUSH1 0x0 DUP1 SLOAD SWAP1 PUSH2 0x100 EXP SWAP1 DIV PUSH20 0xFFFFFFFFFFFFFFFFFFFFFFFFFFFFFFFFFFFFFFFF AND PUSH20 0xFFFFFFFFFFFFFFFFFFFFFFFFFFFFFFFFFFFFFFFF AND CALLER PUSH20 0xFFFFFFFFFFFFFFFFFFFFFFFFFFFFFFFFFFFFFFFF AND EQ PUSH2 0xE56 JUMPI PUSH1 0x40 MLOAD PUSH32 0x82B4290000000000000000000000000000000000000000000000000000000000 DUP2 MSTORE PUSH1 0x4 ADD PUSH1 0x40 MLOAD DUP1 SWAP2 SUB SWAP1 REVERT JUMPDEST DUP1 PUSH1 0x0 DUP1 PUSH2 0x100 EXP DUP2 SLOAD DUP2 PUSH20 0xFFFFFFFFFFFFFFFFFFFFFFFFFFFFFFFFFFFFFFFF MUL NOT AND SWAP1 DUP4 PUSH20 0xFFFFFFFFFFFFFFFFFFFFFFFFFFFFFFFFFFFFFFFF AND MUL OR SWAP1 SSTORE POP DUP1 PUSH20 0xFFFFFFFFFFFFFFFFFFFFFFFFFFFFFFFFFFFFFFFF AND PUSH32 0x3DF77BEB5DB05FCDD70A30FC8ADF3F83F9501B68579455ADBD100B8180940394 PUSH1 0x40 MLOAD PUSH1 0x40 MLOAD DUP1 SWAP2 SUB SWAP1 LOG2 POP JUMP JUMPDEST PUSH1 0x0 DUP1 SLOAD SWAP1 PUSH2 0x100 EXP SWAP1 DIV PUSH20 0xFFFFFFFFFFFFFFFFFFFFFFFFFFFFFFFFFFFFFFFF AND DUP2 JUMP JUMPDEST PUSH1 0x0 PUSH1 0x5 PUSH1 0x0 DUP4 DUP2 MSTORE PUSH1 0x20 ADD SWAP1 DUP2 MSTORE PUSH1 0x20 ADD PUSH1 0x0 KECCAK256 SWAP1 POP PUSH1 0x0 DUP2 PUSH1 0x1 ADD SLOAD SUB PUSH2 0xF55 JUMPI PUSH1 0x40 MLOAD PUSH32 0xC0098AAC00000000000000000000000000000000000000000000000000000000 DUP2 MSTORE PUSH1 0x4 ADD PUSH1 0x40 MLOAD DUP1 SWAP2 SUB SWAP1 REVERT JUMPDEST DUP1 PUSH1 0x2 ADD PUSH1 0x0 SWAP1 SLOAD SWAP1 PUSH2 0x100 EXP SWAP1 DIV PUSH1 0xFF AND ISZERO PUSH2 0xF9E JUMPI PUSH1 0x40 MLOAD PUSH32 0x560FF90000000000000000000000000000000000000000000000000000000000 DUP2 MSTORE PUSH1 0x4 ADD PUSH1 0x40 MLOAD DUP1 SWAP2 SUB SWAP1 REVERT JUMPDEST DUP1 PUSH1 0x0 ADD PUSH1 0x0 SWAP1 SLOAD SWAP1 PUSH2 0x100 EXP SWAP1 DIV PUSH20 0xFFFFFFFFFFFFFFFFFFFFFFFFFFFFFFFFFFFFFFFF AND PUSH20 0xFFFFFFFFFFFFFFFFFFFFFFFFFFFFFFFFFFFFFFFF AND CALLER PUSH20 0xFFFFFFFFFFFFFFFFFFFFFFFFFFFFFFFFFFFFFFFF AND EQ PUSH2 0x1027 JUMPI PUSH1 0x40 MLOAD PUSH32 0x82B4290000000000000000000000000000000000000000000000000000000000 DUP2 MSTORE PUSH1 0x4 ADD PUSH1 0x40 MLOAD DUP1 SWAP2 SUB SWAP1 REVERT JUMPDEST DUP1 PUSH1 0x1 ADD SLOAD PUSH1 0x2 PUSH1 0x0 DUP3 DUP3 SLOAD PUSH2 0x103D SWAP2 SWAP1 PUSH2 0x1E01 JUMP JUMPDEST SWAP3 POP POP DUP2 SWAP1 SSTORE POP PUSH1 0x1 DUP2 PUSH1 0x2 ADD PUSH1 0x0 PUSH2 0x100 EXP DUP2 SLOAD DUP2 PUSH1 0xFF MUL NOT AND SWAP1 DUP4 ISZERO ISZERO MUL OR SWAP1 SSTORE POP PUSH1 0x0 PUSH32 0x0 PUSH20 0xFFFFFFFFFFFFFFFFFFFFFFFFFFFFFFFFFFFFFFFF AND PUSH4 0xA9059CBB DUP4 PUSH1 0x0 ADD PUSH1 0x0 SWAP1 SLOAD SWAP1 PUSH2 0x100 EXP SWAP1 DIV PUSH20 0xFFFFFFFFFFFFFFFFFFFFFFFFFFFFFFFFFFFFFFFF AND DUP5 PUSH1 0x1 ADD SLOAD PUSH1 0x40 MLOAD DUP4 PUSH4 0xFFFFFFFF AND PUSH1 0xE0 SHL DUP2 MSTORE PUSH1 0x4 ADD PUSH2 0x10E6 SWAP3 SWAP2 SWAP1 PUSH2 0x1E35 JUMP JUMPDEST PUSH1 0x20 PUSH1 0x40 MLOAD DUP1 DUP4 SUB DUP2 PUSH1 0x0 DUP8 GAS CALL ISZERO DUP1 ISZERO PUSH2 0x1105 JUMPI RETURNDATASIZE PUSH1 0x0 DUP1 RETURNDATACOPY RETURNDATASIZE PUSH1 0x0 REVERT JUMPDEST POP POP POP POP PUSH1 0x40 MLOAD RETURNDATASIZE PUSH1 0x1F NOT PUSH1 0x1F DUP3 ADD AND DUP3 ADD DUP1 PUSH1 0x40 MSTORE POP DUP2 ADD SWAP1 PUSH2 0x1129 SWAP2 SWAP1 PUSH2 0x1E8A JUMP JUMPDEST SWAP1 POP DUP1 PUSH2 0x1162 JUMPI PUSH1 0x40 MLOAD PUSH32 0x90B8EC1800000000000000000000000000000000000000000000000000000000 DUP2 MSTORE PUSH1 0x4 ADD PUSH1 0x40 MLOAD DUP1 SWAP2 SUB SWAP1 REVERT JUMPDEST DUP2 PUSH1 0x0 ADD PUSH1 0x0 SWAP1 SLOAD SWAP1 PUSH2 0x100 EXP SWAP1 DIV PUSH20 0xFFFFFFFFFFFFFFFFFFFFFFFFFFFFFFFFFFFFFFFF AND PUSH20 0xFFFFFFFFFFFFFFFFFFFFFFFFFFFFFFFFFFFFFFFF AND DUP4 PUSH32 0xB47D398C825A0F71F49C4FDED299540689E40B98B4095DC747DEE95312BF642D DUP5 PUSH1 0x1 ADD SLOAD PUSH1 0x40 MLOAD PUSH2 0x11D1 SWAP2 SWAP1 PUSH2 0x1AB0 JUMP JUMPDEST PUSH1 0x40 MLOAD DUP1 SWAP2 SUB SWAP1 LOG3 POP POP POP JUMP JUMPDEST PUSH1 0x0 DUP1 PUSH1 0x0 DUP1 PUSH1 0x5 PUSH1 0x0 DUP7 DUP2 MSTORE PUSH1 0x20 ADD SWAP1 DUP2 MSTORE PUSH1 0x20 ADD PUSH1 0x0 KECCAK256 PUSH1 0x40 MLOAD DUP1 PUSH1 0x60 ADD PUSH1 0x40 MSTORE SWAP1 DUP2 PUSH1 0x0 DUP3 ADD PUSH1 0x0 SWAP1 SLOAD SWAP1 PUSH2 0x100 EXP SWAP1 DIV PUSH20 0xFFFFFFFFFFFFFFFFFFFFFFFFFFFFFFFFFFFFFFFF AND PUSH20 0xFFFFFFFFFFFFFFFFFFFFFFFFFFFFFFFFFFFFFFFF AND PUSH20 0xFFFFFFFFFFFFFFFFFFFFFFFFFFFFFFFFFFFFFFFF AND DUP2 MSTORE PUSH1 0x20 ADD PUSH1 0x1 DUP3 ADD SLOAD DUP2 MSTORE PUSH1 0x20 ADD PUSH1 0x2 DUP3 ADD PUSH1 0x0 SWAP1 SLOAD SWAP1 PUSH2 0x100 EXP SWAP1 DIV PUSH1 0xFF AND ISZERO ISZERO ISZERO ISZERO DUP2 MSTORE POP POP SWAP1 POP PUSH1 0x0 DUP2 PUSH1 0x20 ADD MLOAD SUB PUSH2 0x12BD JUMPI PUSH1 0x40 MLOAD PUSH32 0xC0098AAC00000000000000000000000000000000000000000000000000000000 DUP2 MSTORE PUSH1 0x4 ADD PUSH1 0x40 MLOAD DUP1 SWAP2 SUB SWAP1 REVERT JUMPDEST DUP1 PUSH1 0x0 ADD MLOAD DUP2 PUSH1 0x20 ADD MLOAD DUP3 PUSH1 0x40 ADD MLOAD ISZERO SWAP4 POP SWAP4 POP SWAP4 POP POP SWAP2 SWAP4 SWAP1 SWAP3 POP JUMP JUMPDEST PUSH1 0x3 PUSH1 0x20 MSTORE DUP1 PUSH1 0x0 MSTORE PUSH1 0x40 PUSH1 0x0 KECCAK256 PUSH1 0x0 SWAP2 POP SWAP1 POP SLOAD DUP2 JUMP JUMPDEST PUSH1 0x6 PUSH1 0x20 MSTORE DUP2 PUSH1 0x0 MSTORE PUSH1 0x40 PUSH1 0x0 KECCAK256 DUP2 DUP2 SLOAD DUP2 LT PUSH2 0x130F JUMPI PUSH1 0x0 DUP1 REVERT JUMPDEST SWAP1 PUSH1 0x0 MSTORE PUSH1 0x20 PUSH1 0x0 KECCAK256 ADD PUSH1 0x0 SWAP2 POP SWAP2 POP POP SLOAD DUP2 JUMP JUMPDEST PUSH1 0x0 PUSH1 0x6 PUSH1 0x0 CALLER PUSH20 0xFFFFFFFFFFFFFFFFFFFFFFFFFFFFFFFFFFFFFFFF AND PUSH20 0xFFFFFFFFFFFFFFFFFFFFFFFFFFFFFFFFFFFFFFFF AND DUP2 MSTORE PUSH1 0x20 ADD SWAP1 DUP2 MSTORE PUSH1 0x20 ADD PUSH1 0x0 KECCAK256 DUP1 SLOAD DUP1 PUSH1 0x20 MUL PUSH1 0x20 ADD PUSH1 0x40 MLOAD SWAP1 DUP2 ADD PUSH1 0x40 MSTORE DUP1 SWAP3 SWAP2 SWAP1 DUP2 DUP2 MSTORE PUSH1 0x20 ADD DUP3 DUP1 SLOAD DUP1 ISZERO PUSH2 0x13AF JUMPI PUSH1 0x20 MUL DUP3 ADD SWAP2 SWAP1 PUSH1 0x0 MSTORE PUSH1 0x20 PUSH1 0x0 KECCAK256 SWAP1 JUMPDEST DUP2 SLOAD DUP2 MSTORE PUSH1 0x20 ADD SWAP1 PUSH1 0x1 ADD SWAP1 DUP1 DUP4 GT PUSH2 0x139B JUMPI JUMPDEST POP POP POP POP POP SWAP1 POP PUSH1 0x0 DUP1 PUSH1 0x0 JUMPDEST DUP4 MLOAD DUP2 LT ISZERO PUSH2 0x153B JUMPI PUSH1 0x0 DUP5 DUP3 DUP2 MLOAD DUP2 LT PUSH2 0x13DA JUMPI PUSH2 0x13D9 PUSH2 0x2013 JUMP JUMPDEST JUMPDEST PUSH1 0x20 MUL PUSH1 0x20 ADD ADD MLOAD SWAP1 POP PUSH1 0x0 PUSH1 0x5 PUSH1 0x0 DUP4 DUP2 MSTORE PUSH1 0x20 ADD SWAP1 DUP2 MSTORE PUSH1 0x20 ADD PUSH1 0x0 KECCAK256 SWAP1 POP PUSH1 0x0 DUP2 PUSH1 0x1 ADD SLOAD GT DUP1 ISZERO PUSH2 0x145E JUMPI POP CALLER PUSH20 0xFFFFFFFFFFFFFFFFFFFFFFFFFFFFFFFFFFFFFFFF AND DUP2 PUSH1 0x0 ADD PUSH1 0x0 SWAP1 SLOAD SWAP1 PUSH2 0x100 EXP SWAP1 DIV PUSH20 0xFFFFFFFFFFFFFFFFFFFFFFFFFFFFFFFFFFFFFFFF AND PUSH20 0xFFFFFFFFFFFFFFFFFFFFFFFFFFFFFFFFFFFFFFFF AND EQ JUMPDEST DUP1 ISZERO PUSH2 0x1479 JUMPI POP DUP1 PUSH1 0x2 ADD PUSH1 0x0 SWAP1 SLOAD SWAP1 PUSH2 0x100 EXP SWAP1 DIV PUSH1 0xFF AND ISZERO JUMPDEST ISZERO PUSH2 0x152C JUMPI PUSH1 0x1 DUP2 PUSH1 0x2 ADD PUSH1 0x0 PUSH2 0x100 EXP DUP2 SLOAD DUP2 PUSH1 0xFF MUL NOT AND SWAP1 DUP4 ISZERO ISZERO MUL OR SWAP1 SSTORE POP DUP1 PUSH1 0x1 ADD SLOAD PUSH1 0x2 PUSH1 0x0 DUP3 DUP3 SLOAD PUSH2 0x14B1 SWAP2 SWAP1 PUSH2 0x1E01 JUMP JUMPDEST SWAP3 POP POP DUP2 SWAP1 SSTORE POP DUP1 PUSH1 0x1 ADD SLOAD DUP6 PUSH2 0x14C8 SWAP2 SWAP1 PUSH2 0x1EB7 JUMP JUMPDEST SWAP5 POP DUP4 DUP1 PUSH2 0x14D5 SWAP1 PUSH2 0x2042 JUMP JUMPDEST SWAP5 POP POP CALLER PUSH20 0xFFFFFFFFFFFFFFFFFFFFFFFFFFFFFFFFFFFFFFFF AND DUP3 PUSH32 0xB47D398C825A0F71F49C4FDED299540689E40B98B4095DC747DEE95312BF642D DUP4 PUSH1 0x1 ADD SLOAD PUSH1 0x40 MLOAD PUSH2 0x1523 SWAP2 SWAP1 PUSH2 0x1AB0 JUMP JUMPDEST PUSH1 0x40 MLOAD DUP1 SWAP2 SUB SWAP1 LOG3 JUMPDEST POP POP DUP1 DUP1 PUSH1 0x1 ADD SWAP2 POP POP PUSH2 0x13BC JUMP JUMPDEST POP PUSH1 0x0 DUP3 SUB PUSH2 0x1576 JUMPI PUSH1 0x40 MLOAD PUSH32 0x4FC4C16A00000000000000000000000000000000000000000000000000000000 DUP2 MSTORE PUSH1 0x4 ADD PUSH1 0x40 MLOAD DUP1 SWAP2 SUB SWAP1 REVERT JUMPDEST PUSH1 0x0 PUSH32 0x0 PUSH20 0xFFFFFFFFFFFFFFFFFFFFFFFFFFFFFFFFFFFFFFFF AND PUSH4 0xA9059CBB CALLER DUP6 PUSH1 0x40 MLOAD DUP4 PUSH4 0xFFFFFFFF AND PUSH1 0xE0 SHL DUP2 MSTORE PUSH1 0x4 ADD PUSH2 0x15D3 SWAP3 SWAP2 SWAP1 PUSH2 0x1E35 JUMP JUMPDEST PUSH1 0x20 PUSH1 0x40 MLOAD DUP1 DUP4 SUB DUP2 PUSH1 0x0 DUP8 GAS CALL ISZERO DUP1 ISZERO PUSH2 0x15F2 JUMPI RETURNDATASIZE PUSH1 0x0 DUP1 RETURNDATACOPY RETURNDATASIZE PUSH1 0x0 REVERT JUMPDEST POP POP POP POP PUSH1 0x40 MLOAD RETURNDATASIZE PUSH1 0x1F NOT PUSH1 0x1F DUP3 ADD AND DUP3 ADD DUP1 PUSH1 0x40 MSTORE POP DUP2 ADD SWAP1 PUSH2 0x1616 SWAP2 SWAP1 PUSH2 0x1E8A JUMP JUMPDEST SWAP1 POP DUP1 PUSH2 0x164F JUMPI PUSH1 0x40 MLOAD PUSH32 0x90B8EC1800000000000000000000000000000000000000000000000000000000 DUP2 MSTORE PUSH1 0x4 ADD PUSH1 0x40 MLOAD DUP1 SWAP2 SUB SWAP1 REVERT JUMPDEST CALLER PUSH20 0xFFFFFFFFFFFFFFFFFFFFFFFFFFFFFFFFFFFFFFFF AND PUSH32 0x4E42401F3579707778C2BFF1B65C8AE5A8594758AFC05FEC76541AFCD4C3A3B DUP5 DUP5 PUSH1 0x40 MLOAD PUSH2 0x1697 SWAP3 SWAP2 SWAP1 PUSH2 0x208A JUMP JUMPDEST PUSH1 0x40 MLOAD DUP1 SWAP2 SUB SWAP1 LOG2 POP POP POP POP JUMP JUMPDEST PUSH1 0x0 DUP2 SUB PUSH2 0x16DF JUMPI PUSH1 0x40 MLOAD PUSH32 0x1F2A200500000000000000000000000000000000000000000000000000000000 DUP2 MSTORE PUSH1 0x4 ADD PUSH1 0x40 MLOAD DUP1 SWAP2 SUB SWAP1 REVERT JUMPDEST PUSH1 0x0 PUSH32 0x0 PUSH20 0xFFFFFFFFFFFFFFFFFFFFFFFFFFFFFFFFFFFFFFFF AND PUSH4 0x70A08231 ADDRESS PUSH1 0x40 MLOAD DUP3 PUSH4 0xFFFFFFFF AND PUSH1 0xE0 SHL DUP2 MSTORE PUSH1 0x4 ADD PUSH2 0x173A SWAP2 SWAP1 PUSH2 0x1CF6 JUMP JUMPDEST PUSH1 0x20 PUSH1 0x40 MLOAD DUP1 DUP4 SUB DUP2 DUP7 GAS STATICCALL ISZERO DUP1 ISZERO PUSH2 0x1757 JUMPI RETURNDATASIZE PUSH1 0x0 DUP1 RETURNDATACOPY RETURNDATASIZE PUSH1 0x0 REVERT JUMPDEST POP POP POP POP PUSH1 0x40 MLOAD RETURNDATASIZE PUSH1 0x1F NOT PUSH1 0x1F DUP3 ADD AND DUP3 ADD DUP1 PUSH1 0x40 MSTORE POP DUP2 ADD SWAP1 PUSH2 0x177B SWAP2 SWAP1 PUSH2 0x1DA5 JUMP JUMPDEST SWAP1 POP PUSH1 0x0 PUSH32 0x0 PUSH20 0xFFFFFFFFFFFFFFFFFFFFFFFFFFFFFFFFFFFFFFFF AND PUSH4 0x23B872DD CALLER ADDRESS DUP7 PUSH1 0x40 MLOAD DUP5 PUSH4 0xFFFFFFFF AND PUSH1 0xE0 SHL DUP2 MSTORE PUSH1 0x4 ADD PUSH2 0x17DC SWAP4 SWAP3 SWAP2 SWAP1 PUSH2 0x1FDC JUMP JUMPDEST PUSH1 0x20 PUSH1 0x40 MLOAD DUP1 DUP4 SUB DUP2 PUSH1 0x0 DUP8 GAS CALL ISZERO DUP1 ISZERO PUSH2 0x17FB JUMPI RETURNDATASIZE PUSH1 0x0 DUP1 RETURNDATACOPY RETURNDATASIZE PUSH1 0x0 REVERT JUMPDEST POP POP POP POP PUSH1 0x40 MLOAD RETURNDATASIZE PUSH1 0x1F NOT PUSH1 0x1F DUP3 ADD AND DUP3 ADD DUP1 PUSH1 0x40 MSTORE POP DUP2 ADD SWAP1 PUSH2 0x181F SWAP2 SWAP1 PUSH2 0x1E8A JUMP JUMPDEST SWAP1 POP DUP1 PUSH2 0x1858 JUMPI PUSH1 0x40 MLOAD PUSH32 0x90B8EC1800000000000000000000000000000000000000000000000000000000 DUP2 MSTORE PUSH1 0x4 ADD PUSH1 0x40 MLOAD DUP1 SWAP2 SUB SWAP1 REVERT JUMPDEST PUSH1 0x0 PUSH32 0x0 PUSH20 0xFFFFFFFFFFFFFFFFFFFFFFFFFFFFFFFFFFFFFFFF AND PUSH4 0x70A08231 ADDRESS PUSH1 0x40 MLOAD DUP3 PUSH4 0xFFFFFFFF AND PUSH1 0xE0 SHL DUP2 MSTORE PUSH1 0x4 ADD PUSH2 0x18B3 SWAP2 SWAP1 PUSH2 0x1CF6 JUMP JUMPDEST PUSH1 0x20 PUSH1 0x40 MLOAD DUP1 DUP4 SUB DUP2 DUP7 GAS STATICCALL ISZERO DUP1 ISZERO PUSH2 0x18D0 JUMPI RETURNDATASIZE PUSH1 0x0 DUP1 RETURNDATACOPY RETURNDATASIZE PUSH1 0x0 REVERT JUMPDEST POP POP POP POP PUSH1 0x40 MLOAD RETURNDATASIZE PUSH1 0x1F NOT PUSH1 0x1F DUP3 ADD AND DUP3 ADD DUP1 PUSH1 0x40 MSTORE POP DUP2 ADD SWAP1 PUSH2 0x18F4 SWAP2 SWAP1 PUSH2 0x1DA5 JUMP JUMPDEST SWAP1 POP PUSH1 0x0 DUP4 DUP3 PUSH2 0x1904 SWAP2 SWAP1 PUSH2 0x1E01 JUMP JUMPDEST SWAP1 POP DUP1 PUSH1 0x3 PUSH1 0x0 CALLER PUSH20 0xFFFFFFFFFFFFFFFFFFFFFFFFFFFFFFFFFFFFFFFF AND PUSH20 0xFFFFFFFFFFFFFFFFFFFFFFFFFFFFFFFFFFFFFFFF AND DUP2 MSTORE PUSH1 0x20 ADD SWAP1 DUP2 MSTORE PUSH1 0x20 ADD PUSH1 0x0 KECCAK256 PUSH1 0x0 DUP3 DUP3 SLOAD PUSH2 0x1955 SWAP2 SWAP1 PUSH2 0x1EB7 JUMP JUMPDEST SWAP3 POP POP DUP2 SWAP1 SSTORE POP DUP1 PUSH1 0x1 PUSH1 0x0 DUP3 DUP3 SLOAD PUSH2 0x196E SWAP2 SWAP1 PUSH2 0x1EB7 JUMP JUMPDEST SWAP3 POP POP DUP2 SWAP1 SSTORE POP CALLER PUSH20 0xFFFFFFFFFFFFFFFFFFFFFFFFFFFFFFFFFFFFFFFF AND PUSH32 0xCCB2AE3A2936BF4C94FA4E12CDF0CDAD6ED0E4888A044CEF89AFA60F2E4B92D3 DUP3 PUSH1 0x40 MLOAD PUSH2 0x19BB SWAP2 SWAP1 PUSH2 0x1AB0 JUMP JUMPDEST PUSH1 0x40 MLOAD DUP1 SWAP2 SUB SWAP1 LOG2 POP POP POP POP POP JUMP JUMPDEST PUSH1 0x5 PUSH1 0x20 MSTORE DUP1 PUSH1 0x0 MSTORE PUSH1 0x40 PUSH1 0x0 KECCAK256 PUSH1 0x0 SWAP2 POP SWAP1 POP DUP1 PUSH1 0x0 ADD PUSH1 0x0 SWAP1 SLOAD SWAP1 PUSH2 0x100 EXP SWAP1 DIV PUSH20 0xFFFFFFFFFFFFFFFFFFFFFFFFFFFFFFFFFFFFFFFF AND SWAP1 DUP1 PUSH1 0x1 ADD SLOAD SWAP1 DUP1 PUSH1 0x2 ADD PUSH1 0x0 SWAP1 SLOAD SWAP1 PUSH2 0x100 EXP SWAP1 DIV PUSH1 0xFF AND SWAP1 POP DUP4 JUMP JUMPDEST PUSH1 0x4 PUSH1 0x20 MSTORE DUP1 PUSH1 0x0 MSTORE PUSH1 0x40 PUSH1 0x0 KECCAK256 PUSH1 0x0 SWAP2 POP SWAP1 POP SLOAD DUP2 JUMP JUMPDEST PUSH1 0x0 DUP1 REVERT JUMPDEST PUSH1 0x0 DUP2 SWAP1 POP SWAP2 SWAP1 POP JUMP JUMPDEST PUSH2 0x1A51 DUP2 PUSH2 0x1A3E JUMP JUMPDEST DUP2 EQ PUSH2 0x1A5C JUMPI PUSH1 0x0 DUP1 REVERT JUMPDEST POP JUMP JUMPDEST PUSH1 0x0 DUP2 CALLDATALOAD SWAP1 POP PUSH2 0x1A6E DUP2 PUSH2 0x1A48 JUMP JUMPDEST SWAP3 SWAP2 POP POP JUMP JUMPDEST PUSH1 0x0 PUSH1 0x20 DUP3 DUP5 SUB SLT ISZERO PUSH2 0x1A8A JUMPI PUSH2 0x1A89 PUSH2 0x1A39 JUMP JUMPDEST JUMPDEST PUSH1 0x0 PUSH2 0x1A98 DUP5 DUP3 DUP6 ADD PUSH2 0x1A5F JUMP JUMPDEST SWAP2 POP POP SWAP3 SWAP2 POP POP JUMP JUMPDEST PUSH2 0x1AAA DUP2 PUSH2 0x1A3E JUMP JUMPDEST DUP3 MSTORE POP POP JUMP JUMPDEST PUSH1 0x0 PUSH1 0x20 DUP3 ADD SWAP1 POP PUSH2 0x1AC5 PUSH1 0x0 DUP4 ADD DUP5 PUSH2 0x1AA1 JUMP JUMPDEST SWAP3 SWAP2 POP POP JUMP JUMPDEST PUSH1 0x0 PUSH20 0xFFFFFFFFFFFFFFFFFFFFFFFFFFFFFFFFFFFFFFFF DUP3 AND SWAP1 POP SWAP2 SWAP1 POP JUMP JUMPDEST PUSH1 0x0 PUSH2 0x1AF6 DUP3 PUSH2 0x1ACB JUMP JUMPDEST SWAP1 POP SWAP2 SWAP1 POP JUMP JUMPDEST PUSH2 0x1B06 DUP2 PUSH2 0x1AEB JUMP JUMPDEST DUP2 EQ PUSH2 0x1B11 JUMPI PUSH1 0x0 DUP1 REVERT JUMPDEST POP JUMP JUMPDEST PUSH1 0x0 DUP2 CALLDATALOAD SWAP1 POP PUSH2 0x1B23 DUP2 PUSH2 0x1AFD JUMP JUMPDEST SWAP3 SWAP2 POP POP JUMP JUMPDEST PUSH1 0x0 DUP1 PUSH1 0x40 DUP4 DUP6 SUB SLT ISZERO PUSH2 0x1B40 JUMPI PUSH2 0x1B3F PUSH2 0x1A39 JUMP JUMPDEST JUMPDEST PUSH1 0x0 PUSH2 0x1B4E DUP6 DUP3 DUP7 ADD PUSH2 0x1B14 JUMP JUMPDEST SWAP3 POP POP PUSH1 0x20 PUSH2 0x1B5F DUP6 DUP3 DUP7 ADD PUSH2 0x1A5F JUMP JUMPDEST SWAP2 POP POP SWAP3 POP SWAP3 SWAP1 POP JUMP JUMPDEST PUSH1 0x0 DUP2 SWAP1 POP SWAP2 SWAP1 POP JUMP JUMPDEST PUSH2 0x1B7C DUP2 PUSH2 0x1B69 JUMP JUMPDEST DUP3 MSTORE POP POP JUMP JUMPDEST PUSH1 0x0 PUSH1 0x20 DUP3 ADD SWAP1 POP PUSH2 0x1B97 PUSH1 0x0 DUP4 ADD DUP5 PUSH2 0x1B73 JUMP JUMPDEST SWAP3 SWAP2 POP POP JUMP JUMPDEST PUSH1 0x0 PUSH1 0x20 DUP3 DUP5 SUB SLT ISZERO PUSH2 0x1BB3 JUMPI PUSH2 0x1BB2 PUSH2 0x1A39 JUMP JUMPDEST JUMPDEST PUSH1 0x0 PUSH2 0x1BC1 DUP5 DUP3 DUP6 ADD PUSH2 0x1B14 JUMP JUMPDEST SWAP2 POP POP SWAP3 SWAP2 POP POP JUMP JUMPDEST PUSH2 0x1BD3 DUP2 PUSH2 0x1AEB JUMP JUMPDEST DUP3 MSTORE POP POP JUMP JUMPDEST PUSH1 0x0 PUSH1 0x60 DUP3 ADD SWAP1 POP PUSH2 0x1BEE PUSH1 0x0 DUP4 ADD DUP7 PUSH2 0x1AA1 JUMP JUMPDEST PUSH2 0x1BFB PUSH1 0x20 DUP4 ADD DUP6 PUSH2 0x1AA1 JUMP JUMPDEST PUSH2 0x1C08 PUSH1 0x40 DUP4 ADD DUP5 PUSH2 0x1BCA JUMP JUMPDEST SWAP5 SWAP4 POP POP POP POP JUMP JUMPDEST PUSH2 0x1C19 DUP2 PUSH2 0x1B69 JUMP JUMPDEST DUP2 EQ PUSH2 0x1C24 JUMPI PUSH1 0x0 DUP1 REVERT JUMPDEST POP JUMP JUMPDEST PUSH1 0x0 DUP2 CALLDATALOAD SWAP1 POP PUSH2 0x1C36 DUP2 PUSH2 0x1C10 JUMP JUMPDEST SWAP3 SWAP2 POP POP JUMP JUMPDEST PUSH1 0x0 DUP1 PUSH1 0x40 DUP4 DUP6 SUB SLT ISZERO PUSH2 0x1C53 JUMPI PUSH2 0x1C52 PUSH2 0x1A39 JUMP JUMPDEST JUMPDEST PUSH1 0x0 PUSH2 0x1C61 DUP6 DUP3 DUP7 ADD PUSH2 0x1C27 JUMP JUMPDEST SWAP3 POP POP PUSH1 0x20 PUSH2 0x1C72 DUP6 DUP3 DUP7 ADD PUSH2 0x1A5F JUMP JUMPDEST SWAP2 POP POP SWAP3 POP SWAP3 SWAP1 POP JUMP JUMPDEST PUSH1 0x0 DUP2 SWAP1 POP SWAP2 SWAP1 POP JUMP JUMPDEST PUSH1 0x0 PUSH2 0x1CA1 PUSH2 0x1C9C PUSH2 0x1C97 DUP5 PUSH2 0x1ACB JUMP JUMPDEST PUSH2 0x1C7C JUMP JUMPDEST PUSH2 0x1ACB JUMP JUMPDEST SWAP1 POP SWAP2 SWAP1 POP JUMP JUMPDEST PUSH1 0x0 PUSH2 0x1CB3 DUP3 PUSH2 0x1C86 JUMP JUMPDEST SWAP1 POP SWAP2 SWAP1 POP JUMP JUMPDEST PUSH1 0x0 PUSH2 0x1CC5 DUP3 PUSH2 0x1CA8 JUMP JUMPDEST SWAP1 POP SWAP2 SWAP1 POP JUMP JUMPDEST PUSH2 0x1CD5 DUP2 PUSH2 0x1CBA JUMP JUMPDEST DUP3 MSTORE POP POP JUMP JUMPDEST PUSH1 0x0 PUSH1 0x20 DUP3 ADD SWAP1 POP PUSH2 0x1CF0 PUSH1 0x0 DUP4 ADD DUP5 PUSH2 0x1CCC JUMP JUMPDEST SWAP3 SWAP2 POP POP JUMP JUMPDEST PUSH1 0x0 PUSH1 0x20 DUP3 ADD SWAP1 POP PUSH2 0x1D0B PUSH1 0x0 DUP4 ADD DUP5 PUSH2 0x1BCA JUMP JUMPDEST SWAP3 SWAP2 POP POP JUMP JUMPDEST PUSH1 0x0 PUSH1 0x20 DUP3 DUP5 SUB SLT ISZERO PUSH2 0x1D27 JUMPI PUSH2 0x1D26 PUSH2 0x1A39 JUMP JUMPDEST JUMPDEST PUSH1 0x0 PUSH2 0x1D35 DUP5 DUP3 DUP6 ADD PUSH2 0x1C27 JUMP JUMPDEST SWAP2 POP POP SWAP3 SWAP2 POP POP JUMP JUMPDEST PUSH1 0x0 DUP2 ISZERO ISZERO SWAP1 POP SWAP2 SWAP1 POP JUMP JUMPDEST PUSH2 0x1D53 DUP2 PUSH2 0x1D3E JUMP JUMPDEST DUP3 MSTORE POP POP JUMP JUMPDEST PUSH1 0x0 PUSH1 0x60 DUP3 ADD SWAP1 POP PUSH2 0x1D6E PUSH1 0x0 DUP4 ADD DUP7 PUSH2 0x1BCA JUMP JUMPDEST PUSH2 0x1D7B PUSH1 0x20 DUP4 ADD DUP6 PUSH2 0x1AA1 JUMP JUMPDEST PUSH2 0x1D88 PUSH1 0x40 DUP4 ADD DUP5 PUSH2 0x1D4A JUMP JUMPDEST SWAP5 SWAP4 POP POP POP POP JUMP JUMPDEST PUSH1 0x0 DUP2 MLOAD SWAP1 POP PUSH2 0x1D9F DUP2 PUSH2 0x1A48 JUMP JUMPDEST SWAP3 SWAP2 POP POP JUMP JUMPDEST PUSH1 0x0 PUSH1 0x20 DUP3 DUP5 SUB SLT ISZERO PUSH2 0x1DBB JUMPI PUSH2 0x1DBA PUSH2 0x1A39 JUMP JUMPDEST JUMPDEST PUSH1 0x0 PUSH2 0x1DC9 DUP5 DUP3 DUP6 ADD PUSH2 0x1D90 JUMP JUMPDEST SWAP2 POP POP SWAP3 SWAP2 POP POP JUMP JUMPDEST PUSH32 0x4E487B7100000000000000000000000000000000000000000000000000000000 PUSH1 0x0 MSTORE PUSH1 0x11 PUSH1 0x4 MSTORE PUSH1 0x24 PUSH1 0x0 REVERT JUMPDEST PUSH1 0x0 PUSH2 0x1E0C DUP3 PUSH2 0x1A3E JUMP JUMPDEST SWAP2 POP PUSH2 0x1E17 DUP4 PUSH2 0x1A3E JUMP JUMPDEST SWAP3 POP DUP3 DUP3 SUB SWAP1 POP DUP2 DUP2 GT ISZERO PUSH2 0x1E2F JUMPI PUSH2 0x1E2E PUSH2 0x1DD2 JUMP JUMPDEST JUMPDEST SWAP3 SWAP2 POP POP JUMP JUMPDEST PUSH1 0x0 PUSH1 0x40 DUP3 ADD SWAP1 POP PUSH2 0x1E4A PUSH1 0x0 DUP4 ADD DUP6 PUSH2 0x1BCA JUMP JUMPDEST PUSH2 0x1E57 PUSH1 0x20 DUP4 ADD DUP5 PUSH2 0x1AA1 JUMP JUMPDEST SWAP4 SWAP3 POP POP POP JUMP JUMPDEST PUSH2 0x1E67 DUP2 PUSH2 0x1D3E JUMP JUMPDEST DUP2 EQ PUSH2 0x1E72 JUMPI PUSH1 0x0 DUP1 REVERT JUMPDEST POP JUMP JUMPDEST PUSH1 0x0 DUP2 MLOAD SWAP1 POP PUSH2 0x1E84 DUP2 PUSH2 0x1E5E JUMP JUMPDEST SWAP3 SWAP2 POP POP JUMP JUMPDEST PUSH1 0x0 PUSH1 0x20 DUP3 DUP5 SUB SLT ISZERO PUSH2 0x1EA0 JUMPI PUSH2 0x1E9F PUSH2 0x1A39 JUMP JUMPDEST JUMPDEST PUSH1 0x0 PUSH2 0x1EAE DUP5 DUP3 DUP6 ADD PUSH2 0x1E75 JUMP JUMPDEST SWAP2 POP POP SWAP3 SWAP2 POP POP JUMP JUMPDEST PUSH1 0x0 PUSH2 0x1EC2 DUP3 PUSH2 0x1A3E JUMP JUMPDEST SWAP2 POP PUSH2 0x1ECD DUP4 PUSH2 0x1A3E JUMP JUMPDEST SWAP3 POP DUP3 DUP3 ADD SWAP1 POP DUP1 DUP3 GT ISZERO PUSH2 0x1EE5 JUMPI PUSH2 0x1EE4 PUSH2 0x1DD2 JUMP JUMPDEST JUMPDEST SWAP3 SWAP2 POP POP JUMP JUMPDEST PUSH1 0x0 DUP2 PUSH1 0x60 SHL SWAP1 POP SWAP2 SWAP1 POP JUMP JUMPDEST PUSH1 0x0 PUSH2 0x1F03 DUP3 PUSH2 0x1EEB JUMP JUMPDEST SWAP1 POP SWAP2 SWAP1 POP JUMP JUMPDEST PUSH1 0x0 PUSH2 0x1F15 DUP3 PUSH2 0x1EF8 JUMP JUMPDEST SWAP1 POP SWAP2 SWAP1 POP JUMP JUMPDEST PUSH2 0x1F2D PUSH2 0x1F28 DUP3 PUSH2 0x1AEB JUMP JUMPDEST PUSH2 0x1F0A JUMP JUMPDEST DUP3 MSTORE POP POP JUMP JUMPDEST PUSH1 0x0 DUP2 SWAP1 POP SWAP2 SWAP1 POP JUMP JUMPDEST PUSH2 0x1F4E PUSH2 0x1F49 DUP3 PUSH2 0x1A3E JUMP JUMPDEST PUSH2 0x1F33 JUMP JUMPDEST DUP3 MSTORE POP POP JUMP JUMPDEST PUSH1 0x0 PUSH2 0x1F60 DUP3 DUP9 PUSH2 0x1F1C JUMP JUMPDEST PUSH1 0x14 DUP3 ADD SWAP2 POP PUSH2 0x1F70 DUP3 DUP8 PUSH2 0x1F3D JUMP JUMPDEST PUSH1 0x20 DUP3 ADD SWAP2 POP PUSH2 0x1F80 DUP3 DUP7 PUSH2 0x1F3D JUMP JUMPDEST PUSH1 0x20 DUP3 ADD SWAP2 POP PUSH2 0x1F90 DUP3 DUP6 PUSH2 0x1F3D JUMP JUMPDEST PUSH1 0x20 DUP3 ADD SWAP2 POP PUSH2 0x1FA0 DUP3 DUP5 PUSH2 0x1F3D JUMP JUMPDEST PUSH1 0x20 DUP3 ADD SWAP2 POP DUP2 SWAP1 POP SWAP7 SWAP6 POP POP POP POP POP POP JUMP JUMPDEST PUSH1 0x0 PUSH1 0x40 DUP3 ADD SWAP1 POP PUSH2 0x1FC8 PUSH1 0x0 DUP4 ADD DUP6 PUSH2 0x1BCA JUMP JUMPDEST PUSH2 0x1FD5 PUSH1 0x20 DUP4 ADD DUP5 PUSH2 0x1BCA JUMP JUMPDEST SWAP4 SWAP3 POP POP POP JUMP JUMPDEST PUSH1 0x0 PUSH1 0x60 DUP3 ADD SWAP1 POP PUSH2 0x1FF1 PUSH1 0x0 DUP4 ADD DUP7 PUSH2 0x1BCA JUMP JUMPDEST PUSH2 0x1FFE PUSH1 0x20 DUP4 ADD DUP6 PUSH2 0x1BCA JUMP JUMPDEST PUSH2 0x200B PUSH1 0x40 DUP4 ADD DUP5 PUSH2 0x1AA1 JUMP JUMPDEST SWAP5 SWAP4 POP POP POP POP JUMP JUMPDEST PUSH32 0x4E487B7100000000000000000000000000000000000000000000000000000000 PUSH1 0x0 MSTORE PUSH1 0x32 PUSH1 0x4 MSTORE PUSH1 0x24 PUSH1 0x0 REVERT JUMPDEST PUSH1 0x0 PUSH2 0x204D DUP3 PUSH2 0x1A3E JUMP JUMPDEST SWAP2 POP PUSH32 0xFFFFFFFFFFFFFFFFFFFFFFFFFFFFFFFFFFFFFFFFFFFFFFFFFFFFFFFFFFFFFFFF DUP3 SUB PUSH2 0x207F JUMPI PUSH2 0x207E PUSH2 0x1DD2 JUMP JUMPDEST JUMPDEST PUSH1 0x1 DUP3 ADD SWAP1 POP SWAP2 SWAP1 POP JUMP JUMPDEST PUSH1 0x0 PUSH1 0x40 DUP3 ADD SWAP1 POP PUSH2 0x209F PUSH1 0x0 DUP4 ADD DUP6 PUSH2 0x1AA1 JUMP JUMPDEST PUSH2 0x20AC PUSH1 0x20 DUP4 ADD DUP5 PUSH2 0x1AA1 JUMP JUMPDEST SWAP4 SWAP3 POP POP POP JUMP INVALID LOG2 PUSH5 0x6970667358 0x22 SLT KECCAK256 0xFC RETURNDATASIZE 0x28 EXTCODECOPY 0xBA RETF 0xE8 SWAP7 LOG3 PUSH15 0x398217BE65A0D6A8AB2989B5CEE757 MSTORE8 0x2F SWAP13 MSTORE TIMESTAMP 0x4B 0x26 PUSH5 0x736F6C6343 STOP ADDMOD 0x1E STOP CALLER "
				},
				"gasEstimates": {
					"creation": {
						"codeDepositCost": "1685000",
						"executionCost": "infinite",
						"totalCost": "infinite"
					},
					"external": {
						"claimAll()": "infinite",
						"creditLimits(bytes32)": "2875",
						"getDebugInfo(address)": "infinite",
						"lenderBalances(address)": "2903",
						"lockFunds(address,uint256)": "infinite",
						"lockedForSettlement()": "2475",
						"merchantReceipts(address,uint256)": "5189",
						"oracle()": "2534",
						"provideLiquidity(uint256)": "infinite",
						"receipts(bytes32)": "7418",
						"repay(uint256)": "infinite",
						"setCreditLimit(bytes32,uint256)": "infinite",
						"setOracle(address)": "28161",
						"settleReceipt(bytes32)": "infinite",
						"totalLent()": "2518",
						"usdc()": "infinite",
						"verifyReceipt(bytes32)": "7598",
						"withdrawLiquidity(uint256)": "infinite"
					}
				},
				"methodIdentifiers": {
					"claimAll()": "d1058e59",
					"creditLimits(bytes32)": "f1941ce9",
					"getDebugInfo(address)": "1f668cdb",
					"lenderBalances(address)": "a27a944d",
					"lockFunds(address,uint256)": "12e382b4",
					"lockedForSettlement()": "0d9d93d9",
					"merchantReceipts(address,uint256)": "bb7b02fe",
					"oracle()": "7dc0d1d0",
					"provideLiquidity(uint256)": "eb521a4c",
					"receipts(bytes32)": "ef6cf04d",
					"repay(uint256)": "371fd8e6",
					"setCreditLimit(bytes32,uint256)": "3c1166f3",
					"setOracle(address)": "7adbf973",
					"settleReceipt(bytes32)": "7e1e2b7a",
					"totalLent()": "6d7c218b",
					"usdc()": "3e413bee",
					"verifyReceipt(bytes32)": "8174794e",
					"withdrawLiquidity(uint256)": "0a861f2a"
				}
			},
			"storageLayout": {
				"storage": [
					{
						"astId": 43,
						"contract": "contracts/AuraVault.sol:AuraVault",
						"label": "oracle",
						"offset": 0,
						"slot": "0",
						"type": "t_address"
					},
					{
						"astId": 45,
						"contract": "contracts/AuraVault.sol:AuraVault",
						"label": "totalLent",
						"offset": 0,
						"slot": "1",
						"type": "t_uint256"
					},
					{
						"astId": 47,
						"contract": "contracts/AuraVault.sol:AuraVault",
						"label": "lockedForSettlement",
						"offset": 0,
						"slot": "2",
						"type": "t_uint256"
					},
					{
						"astId": 51,
						"contract": "contracts/AuraVault.sol:AuraVault",
						"label": "lenderBalances",
						"offset": 0,
						"slot": "3",
						"type": "t_mapping(t_address,t_uint256)"
					},
					{
						"astId": 55,
						"contract": "contracts/AuraVault.sol:AuraVault",
						"label": "creditLimits",
						"offset": 0,
						"slot": "4",
						"type": "t_mapping(t_bytes32,t_uint256)"
					},
					{
						"astId": 67,
						"contract": "contracts/AuraVault.sol:AuraVault",
						"label": "receipts",
						"offset": 0,
						"slot": "5",
						"type": "t_mapping(t_bytes32,t_struct(Receipt)62_storage)"
					},
					{
						"astId": 72,
						"contract": "contracts/AuraVault.sol:AuraVault",
						"label": "merchantReceipts",
						"offset": 0,
						"slot": "6",
						"type": "t_mapping(t_address,t_array(t_bytes32)dyn_storage)"
					}
				],
				"types": {
					"t_address": {
						"encoding": "inplace",
						"label": "address",
						"numberOfBytes": "20"
					},
					"t_array(t_bytes32)dyn_storage": {
						"base": "t_bytes32",
						"encoding": "dynamic_array",
						"label": "bytes32[]",
						"numberOfBytes": "32"
					},
					"t_bool": {
						"encoding": "inplace",
						"label": "bool",
						"numberOfBytes": "1"
					},
					"t_bytes32": {
						"encoding": "inplace",
						"label": "bytes32",
						"numberOfBytes": "32"
					},
					"t_mapping(t_address,t_array(t_bytes32)dyn_storage)": {
						"encoding": "mapping",
						"key": "t_address",
						"label": "mapping(address => bytes32[])",
						"numberOfBytes": "32",
						"value": "t_array(t_bytes32)dyn_storage"
					},
					"t_mapping(t_address,t_uint256)": {
						"encoding": "mapping",
						"key": "t_address",
						"label": "mapping(address => uint256)",
						"numberOfBytes": "32",
						"value": "t_uint256"
					},
					"t_mapping(t_bytes32,t_struct(Receipt)62_storage)": {
						"encoding": "mapping",
						"key": "t_bytes32",
						"label": "mapping(bytes32 => struct AuraVault.Receipt)",
						"numberOfBytes": "32",
						"value": "t_struct(Receipt)62_storage"
					},
					"t_mapping(t_bytes32,t_uint256)": {
						"encoding": "mapping",
						"key": "t_bytes32",
						"label": "mapping(bytes32 => uint256)",
						"numberOfBytes": "32",
						"value": "t_uint256"
					},
					"t_struct(Receipt)62_storage": {
						"encoding": "inplace",
						"label": "struct AuraVault.Receipt",
						"members": [
							{
								"astId": 57,
								"contract": "contracts/AuraVault.sol:AuraVault",
								"label": "merchant",
								"offset": 0,
								"slot": "0",
								"type": "t_address"
							},
							{
								"astId": 59,
								"contract": "contracts/AuraVault.sol:AuraVault",
								"label": "amount",
								"offset": 0,
								"slot": "1",
								"type": "t_uint256"
							},
							{
								"astId": 61,
								"contract": "contracts/AuraVault.sol:AuraVault",
								"label": "settled",
								"offset": 0,
								"slot": "2",
								"type": "t_bool"
							}
						],
						"numberOfBytes": "96"
					},
					"t_uint256": {
						"encoding": "inplace",
						"label": "uint256",
						"numberOfBytes": "32"
					}
				}
			},
			"userdoc": {
				"kind": "user",
				"methods": {},
				"version": 1
			}
		}
	}
}